{"abi":[{"type":"constructor","inputs":[{"name":"_router","type":"address","internalType":"address"},{"name":"_wbnb","type":"address","internalType":"address"}],"stateMutability":"nonpayable"},{"type":"receive","stateMutability":"payable"},{"type":"function","name":"BPS","inputs":[],"outputs":[{"name":"","type":"uint256","internalType":"uint256"}],"stateMutability":"view"},{"type":"function","name":"DEV_BPS","inputs":[],"outputs":[{"name":"","type":"uint256","internalType":"uint256"}],"stateMutability":"view"},{"type":"function","name":"POOL_BPS","inputs":[],"outputs":[{"name":"","type":"uint256","internalType":"uint256"}],"stateMutability":"view"},{"type":"function","name":"PRIZE_BPS","inputs":[],"outputs":[{"name":"","type":"uint256","internalType":"uint256"}],"stateMutability":"view"},{"type":"function","name":"RESERVE_BPS","inputs":[],"outputs":[{"name":"","type":"uint256","internalType":"uint256"}],"stateMutability":"view"},{"type":"function","name":"TAX_BPS","inputs":[],"outputs":[{"name":"","type":"uint256","internalType":"uint256"}],"stateMutability":"view"},{"type":"function","name":"allowance","inputs":[{"name":"","type":"address","internalType":"address"},{"name":"","type":"address","internalType":"address"}],"outputs":[{"name":"","type":"uint256","internalType":"uint256"}],"stateMutability":"view"},{"type":"function","name":"approve","inputs":[{"name":"spender","type":"address","internalType":"address"},{"name":"amount","type":"uint256","internalType":"uint256"}],"outputs":[{"name":"","type":"bool","internalType":"bool"}],"stateMutability":"nonpayable"},{"type":"function","name":"balanceOf","inputs":[{"name":"","type":"address","internalType":"address"}],"outputs":[{"name":"","type":"uint256","internalType":"uint256"}],"stateMutability":"view"},{"type":"function","name":"claim","inputs":[],"outputs":[],"stateMutability":"nonpayable"},{"type":"function","name":"claimed","inputs":[],"outputs":[{"name":"","type":"bool","internalType":"bool"}],"stateMutability":"view"},{"type":"function","name":"currentPool","inputs":[],"outputs":[{"name":"","type":"uint256","internalType":"uint256"}],"stateMutability":"view"},{"type":"function","name":"currentPrize","inputs":[],"outputs":[{"name":"","type":"uint256","internalType":"uint256"}],"stateMutability":"view"},{"type":"function","name":"currentWinner","inputs":[],"outputs":[{"name":"","type":"address","internalType":"address"}],"stateMutability":"view"},{"type":"function","name":"decimals","inputs":[],"outputs":[{"name":"","type":"uint8","internalType":"uint8"}],"stateMutability":"view"},{"type":"function","name":"dev","inputs":[],"outputs":[{"name":"","type":"address","internalType":"address"}],"stateMutability":"view"},{"type":"function","name":"drawTimestamp","inputs":[],"outputs":[{"name":"","type":"uint256","internalType":"uint256"}],"stateMutability":"view"},{"type":"function","name":"drawWinner","inputs":[{"name":"winner","type":"address","internalType":"address"}],"outputs":[],"stateMutability":"nonpayable"},{"type":"function","name":"getCurrentRound","inputs":[],"outputs":[{"name":"","type":"uint256","internalType":"uint256"}],"stateMutability":"view"},{"type":"function","name":"getEstimatedNextPrize","inputs":[],"outputs":[{"name":"","type":"uint256","internalType":"uint256"}],"stateMutability":"view"},{"type":"function","name":"getHistory","inputs":[{"name":"idx","type":"uint256","internalType":"uint256"}],"outputs":[{"name":"","type":"tuple","internalType":"struct AILotteryToken.DrawRecord","components":[{"name":"round","type":"uint256","internalType":"uint256"},{"name":"winner","type":"address","internalType":"address"},{"name":"prize","type":"uint256","internalType":"uint256"},{"name":"claimed","type":"bool","internalType":"bool"},{"name":"ts","type":"uint256","internalType":"uint256"}]}],"stateMutability":"view"},{"type":"function","name":"getHistoryLength","inputs":[],"outputs":[{"name":"","type":"uint256","internalType":"uint256"}],"stateMutability":"view"},{"type":"function","name":"getHoldingBonus","inputs":[{"name":"addr","type":"address","internalType":"address"}],"outputs":[{"name":"since","type":"uint256","internalType":"uint256"},{"name":"multiplierBps","type":"uint256","internalType":"uint256"}],"stateMutability":"view"},{"type":"function","name":"getPendingPrize","inputs":[],"outputs":[{"name":"winner","type":"address","internalType":"address"},{"name":"prize","type":"uint256","internalType":"uint256"},{"name":"isClaimed","type":"bool","internalType":"bool"},{"name":"drawnAt","type":"uint256","internalType":"uint256"}],"stateMutability":"view"},{"type":"function","name":"getPoolBalance","inputs":[],"outputs":[{"name":"pool","type":"uint256","internalType":"uint256"},{"name":"reserve","type":"uint256","internalType":"uint256"}],"stateMutability":"view"},{"type":"function","name":"history","inputs":[{"name":"","type":"uint256","internalType":"uint256"}],"outputs":[{"name":"round","type":"uint256","internalType":"uint256"},{"name":"winner","type":"address","internalType":"address"},{"name":"prize","type":"uint256","internalType":"uint256"},{"name":"claimed","type":"bool","internalType":"bool"},{"name":"ts","type":"uint256","internalType":"uint256"}],"stateMutability":"view"},{"type":"function","name":"holdingSince","inputs":[{"name":"","type":"address","internalType":"address"}],"outputs":[{"name":"","type":"uint256","internalType":"uint256"}],"stateMutability":"view"},{"type":"function","name":"isExempt","inputs":[{"name":"","type":"address","internalType":"address"}],"outputs":[{"name":"","type":"bool","internalType":"bool"}],"stateMutability":"view"},{"type":"function","name":"isPair","inputs":[{"name":"","type":"address","internalType":"address"}],"outputs":[{"name":"","type":"bool","internalType":"bool"}],"stateMutability":"view"},{"type":"function","name":"name","inputs":[],"outputs":[{"name":"","type":"string","internalType":"string"}],"stateMutability":"view"},{"type":"function","name":"nextReserve","inputs":[],"outputs":[{"name":"","type":"uint256","internalType":"uint256"}],"stateMutability":"view"},{"type":"function","name":"oracle","inputs":[],"outputs":[{"name":"","type":"address","internalType":"address"}],"stateMutability":"view"},{"type":"function","name":"round","inputs":[],"outputs":[{"name":"","type":"uint256","internalType":"uint256"}],"stateMutability":"view"},{"type":"function","name":"router","inputs":[],"outputs":[{"name":"","type":"address","internalType":"address"}],"stateMutability":"view"},{"type":"function","name":"setExempt","inputs":[{"name":"addr","type":"address","internalType":"address"},{"name":"val","type":"bool","internalType":"bool"}],"outputs":[],"stateMutability":"nonpayable"},{"type":"function","name":"setOracle","inputs":[{"name":"_oracle","type":"address","internalType":"address"}],"outputs":[],"stateMutability":"nonpayable"},{"type":"function","name":"setPair","inputs":[{"name":"pair","type":"address","internalType":"address"},{"name":"val","type":"bool","internalType":"bool"}],"outputs":[],"stateMutability":"nonpayable"},{"type":"function","name":"symbol","inputs":[],"outputs":[{"name":"","type":"string","internalType":"string"}],"stateMutability":"view"},{"type":"function","name":"totalSupply","inputs":[],"outputs":[{"name":"","type":"uint256","internalType":"uint256"}],"stateMutability":"view"},{"type":"function","name":"transfer","inputs":[{"name":"to","type":"address","internalType":"address"},{"name":"amount","type":"uint256","internalType":"uint256"}],"outputs":[{"name":"","type":"bool","internalType":"bool"}],"stateMutability":"nonpayable"},{"type":"function","name":"transferFrom","inputs":[{"name":"from","type":"address","internalType":"address"},{"name":"to","type":"address","internalType":"address"},{"name":"amount","type":"uint256","internalType":"uint256"}],"outputs":[{"name":"","type":"bool","internalType":"bool"}],"stateMutability":"nonpayable"},{"type":"function","name":"wbnb","inputs":[],"outputs":[{"name":"","type":"address","internalType":"address"}],"stateMutability":"view"},{"type":"event","name":"Approval","inputs":[{"name":"owner","type":"address","indexed":true,"internalType":"address"},{"name":"spender","type":"address","indexed":true,"internalType":"address"},{"name":"value","type":"uint256","indexed":false,"internalType":"uint256"}],"anonymous":false},{"type":"event","name":"PrizeClaimed","inputs":[{"name":"round","type":"uint256","indexed":true,"internalType":"uint256"},{"name":"winner","type":"address","indexed":true,"internalType":"address"},{"name":"prize","type":"uint256","indexed":false,"internalType":"uint256"}],"anonymous":false},{"type":"event","name":"PrizeExpired","inputs":[{"name":"round","type":"uint256","indexed":true,"internalType":"uint256"},{"name":"winner","type":"address","indexed":true,"internalType":"address"},{"name":"prize","type":"uint256","indexed":false,"internalType":"uint256"}],"anonymous":false},{"type":"event","name":"TaxCollected","inputs":[{"name":"tokenAmount","type":"uint256","indexed":false,"internalType":"uint256"}],"anonymous":false},{"type":"event","name":"TaxSwapped","inputs":[{"name":"bnbAmount","type":"uint256","indexed":false,"internalType":"uint256"},{"name":"toPool","type":"uint256","indexed":false,"internalType":"uint256"},{"name":"toReserve","type":"uint256","indexed":false,"internalType":"uint256"},{"name":"toDev","type":"uint256","indexed":false,"internalType":"uint256"}],"anonymous":false},{"type":"event","name":"Transfer","inputs":[{"name":"from","type":"address","indexed":true,"internalType":"address"},{"name":"to","type":"address","indexed":true,"internalType":"address"},{"name":"value","type":"uint256","indexed":false,"internalType":"uint256"}],"anonymous":false},{"type":"event","name":"WinnerDrawn","inputs":[{"name":"round","type":"uint256","indexed":true,"internalType":"uint256"},{"name":"winner","type":"address","indexed":true,"internalType":"address"},{"name":"prize","type":"uint256","indexed":false,"internalType":"uint256"}],"anonymous":false}],"bytecode":{"object":"0x60a060405234801562000010575f80fd5b50604051620034c8380380620034c88339818101604052810190620000369190620002fe565b3373ffffffffffffffffffffffffffffffffffffffff1660808173ffffffffffffffffffffffffffffffffffffffff168152505033600e5f6101000a81548173ffffffffffffffffffffffffffffffffffffffff021916908373ffffffffffffffffffffffffffffffffffffffff16021790555081600f5f6101000a81548173ffffffffffffffffffffffffffffffffffffffff021916908373ffffffffffffffffffffffffffffffffffffffff1602179055508060105f6101000a81548173ffffffffffffffffffffffffffffffffffffffff021916908373ffffffffffffffffffffffffffffffffffffffff1602179055506b033b2e3c9fd0803ce80000005f819055505f5460015f3373ffffffffffffffffffffffffffffffffffffffff1673ffffffffffffffffffffffffffffffffffffffff1681526020019081526020015f2081905550600160045f3373ffffffffffffffffffffffffffffffffffffffff1673ffffffffffffffffffffffffffffffffffffffff1681526020019081526020015f205f6101000a81548160ff021916908315150217905550600160045f3073ffffffffffffffffffffffffffffffffffffffff1673ffffffffffffffffffffffffffffffffffffffff1681526020019081526020015f205f6101000a81548160ff0219169083151502179055503373ffffffffffffffffffffffffffffffffffffffff165f73ffffffffffffffffffffffffffffffffffffffff167fddf252ad1be2c89b69c2b068fc378daa952ba7f163c4a11628f55a4df523b3ef5f546040516200028991906200035d565b60405180910390a3505062000378565b5f80fd5b5f73ffffffffffffffffffffffffffffffffffffffff82169050919050565b5f620002c8826200029d565b9050919050565b620002da81620002bc565b8114620002e5575f80fd5b50565b5f81519050620002f881620002cf565b92915050565b5f806040838503121562000317576200031662000299565b5b5f6200032685828601620002e8565b92505060206200033985828601620002e8565b9150509250929050565b5f819050919050565b620003578162000343565b82525050565b5f602082019050620003725f8301846200034c565b92915050565b608051613114620003b45f395f8181610fdf015281816110d5015281816112110152818161176b015281816117ce015261247601526131145ff3fe608060405260043610610254575f3560e01c80638d329a9711610138578063abd70aa2116100b5578063c8691b2a11610079578063c8691b2a146108c4578063dd62ed3e14610900578063e41dc9f81461093c578063e5e31b1314610966578063e834a834146109a2578063f887ea40146109cc5761025b565b8063abd70aa2146107cd578063ad5dff73146107f8578063b914a21914610834578063c3fdfbb41461085e578063c42b42a01461089a5761025b565b80639fde54f5116100fc5780639fde54f5146106d5578063a32bf597146106fd578063a7a38f0b14610727578063a9059cbb14610767578063aabe2fe3146107a35761025b565b80638d329a97146106055780638d72647e1461062d57806391cca3db14610657578063944d12101461068157806395d89b41146106ab5761025b565b8063597e05cd116101d15780636c5939a9116101955780636c5939a9146104fb57806370a0823114610525578063760690c4146105615780637adbf9731461058b5780637dc0d1d0146105b357806386a22eff146105dd5761025b565b8063597e05cd1461041657806368f4a78614610440578063692b69ae1461046a5780636ab4250b146104945780636b548d6d146104d15761025b565b8063249d39e911610218578063249d39e914610355578063313ce5671461037f578063364976ea146103a95780634e71d92d146103d65780635478f468146103ec5761025b565b806306fdde031461025f578063095ea7b314610289578063146ca531146102c557806318160ddd146102ef57806323b872dd146103195761025b565b3661025b57005b5f80fd5b34801561026a575f80fd5b506102736109f6565b6040516102809190612615565b60405180910390f35b348015610294575f80fd5b506102af60048036038101906102aa91906126c6565b610a2f565b6040516102bc919061271e565b60405180910390f35b3480156102d0575f80fd5b506102d9610b1c565b6040516102e69190612746565b60405180910390f35b3480156102fa575f80fd5b50610303610b22565b6040516103109190612746565b60405180910390f35b348015610324575f80fd5b5061033f600480360381019061033a919061275f565b610b27565b60405161034c919061271e565b60405180910390f35b348015610360575f80fd5b50610369610cac565b6040516103769190612746565b60405180910390f35b34801561038a575f80fd5b50610393610cb2565b6040516103a091906127ca565b60405180910390f35b3480156103b4575f80fd5b506103bd610cb7565b6040516103cd94939291906127f2565b60405180910390f35b3480156103e1575f80fd5b506103ea610d00565b005b3480156103f7575f80fd5b50610400610ec1565b60405161040d9190612746565b60405180910390f35b348015610421575f80fd5b5061042a610ecd565b6040516104379190612746565b60405180910390f35b34801561044b575f80fd5b50610454610efd565b6040516104619190612746565b60405180910390f35b348015610475575f80fd5b5061047e610f03565b60405161048b9190612746565b60405180910390f35b34801561049f575f80fd5b506104ba60048036038101906104b59190612835565b610f09565b6040516104c8929190612860565b60405180910390f35b3480156104dc575f80fd5b506104e5610fb6565b6040516104f29190612746565b60405180910390f35b348015610506575f80fd5b5061050f610fbc565b60405161051c9190612746565b60405180910390f35b348015610530575f80fd5b5061054b60048036038101906105469190612835565b610fc2565b6040516105589190612746565b60405180910390f35b34801561056c575f80fd5b50610575610fd7565b6040516105829190612746565b60405180910390f35b348015610596575f80fd5b506105b160048036038101906105ac9190612835565b610fdd565b005b3480156105be575f80fd5b506105c76110ae565b6040516105d49190612887565b60405180910390f35b3480156105e8575f80fd5b5061060360048036038101906105fe91906128ca565b6110d3565b005b348015610610575f80fd5b5061062b60048036038101906106269190612835565b6111b9565b005b348015610638575f80fd5b50610641611744565b60405161064e9190612887565b60405180910390f35b348015610662575f80fd5b5061066b611769565b6040516106789190612887565b60405180910390f35b34801561068c575f80fd5b5061069561178d565b6040516106a29190612746565b60405180910390f35b3480156106b6575f80fd5b506106bf611793565b6040516106cc9190612615565b60405180910390f35b3480156106e0575f80fd5b506106fb60048036038101906106f691906128ca565b6117cc565b005b348015610708575f80fd5b506107116118b2565b60405161071e9190612746565b60405180910390f35b348015610732575f80fd5b5061074d60048036038101906107489190612908565b6118bb565b60405161075e959493929190612933565b60405180910390f35b348015610772575f80fd5b5061078d600480360381019061078891906126c6565b611927565b60405161079a919061271e565b60405180910390f35b3480156107ae575f80fd5b506107b761193b565b6040516107c49190612887565b60405180910390f35b3480156107d8575f80fd5b506107e1611960565b6040516107ef929190612860565b60405180910390f35b348015610803575f80fd5b5061081e60048036038101906108199190612835565b611970565b60405161082b919061271e565b60405180910390f35b34801561083f575f80fd5b5061084861198d565b6040516108559190612746565b60405180910390f35b348015610869575f80fd5b50610884600480360381019061087f9190612835565b611993565b6040516108919190612746565b60405180910390f35b3480156108a5575f80fd5b506108ae6119a8565b6040516108bb9190612746565b60405180910390f35b3480156108cf575f80fd5b506108ea60048036038101906108e59190612908565b6119ae565b6040516108f79190612a17565b60405180910390f35b34801561090b575f80fd5b5061092660048036038101906109219190612a30565b611a74565b6040516109339190612746565b60405180910390f35b348015610947575f80fd5b50610950611a94565b60405161095d9190612746565b60405180910390f35b348015610971575f80fd5b5061098c60048036038101906109879190612835565b611a9a565b604051610999919061271e565b60405180910390f35b3480156109ad575f80fd5b506109b6611ab7565b6040516109c3919061271e565b60405180910390f35b3480156109d7575f80fd5b506109e0611ac9565b6040516109ed9190612887565b60405180910390f35b6040518060400160405280600a81526020017f4149204c6f74746572790000000000000000000000000000000000000000000081525081565b5f8160025f3373ffffffffffffffffffffffffffffffffffffffff1673ffffffffffffffffffffffffffffffffffffffff1681526020019081526020015f205f8573ffffffffffffffffffffffffffffffffffffffff1673ffffffffffffffffffffffffffffffffffffffff1681526020019081526020015f20819055508273ffffffffffffffffffffffffffffffffffffffff163373ffffffffffffffffffffffffffffffffffffffff167f8c5be1e5ebec7d5bd14f71427d1e84f3dd0314c0f7b2291e5b200ac8c7c3b92584604051610b0a9190612746565b60405180910390a36001905092915050565b60075481565b5f5481565b5f8060025f8673ffffffffffffffffffffffffffffffffffffffff1673ffffffffffffffffffffffffffffffffffffffff1681526020019081526020015f205f3373ffffffffffffffffffffffffffffffffffffffff1673ffffffffffffffffffffffffffffffffffffffff1681526020019081526020015f205490507fffffffffffffffffffffffffffffffffffffffffffffffffffffffffffffffff8114610c975782811015610c0e576040517f08c379a0000000000000000000000000000000000000000000000000000000008152600401610c0590612ab8565b60405180910390fd5b8281610c1a9190612b03565b60025f8773ffffffffffffffffffffffffffffffffffffffff1673ffffffffffffffffffffffffffffffffffffffff1681526020019081526020015f205f3373ffffffffffffffffffffffffffffffffffffffff1673ffffffffffffffffffffffffffffffffffffffff1681526020019081526020015f20819055505b610ca2858585611aee565b9150509392505050565b61271081565b601281565b5f805f8060085f9054906101000a900473ffffffffffffffffffffffffffffffffffffffff16600954600b5f9054906101000a900460ff16600a54935093509350935090919293565b3373ffffffffffffffffffffffffffffffffffffffff1660085f9054906101000a900473ffffffffffffffffffffffffffffffffffffffff1673ffffffffffffffffffffffffffffffffffffffff1614610d8f576040517f08c379a0000000000000000000000000000000000000000000000000000000008152600401610d8690612b80565b60405180910390fd5b600b5f9054906101000a900460ff1615610dde576040517f08c379a0000000000000000000000000000000000000000000000000000000008152600401610dd590612be8565b60405180910390fd5b6001600b5f6101000a81548160ff0219169083151502179055505f3373ffffffffffffffffffffffffffffffffffffffff16600954604051610e1f90612c33565b5f6040518083038185875af1925050503d805f8114610e59576040519150601f19603f3d011682016040523d82523d5f602084013e610e5e565b606091505b5050905080610e6b575f80fd5b3373ffffffffffffffffffffffffffffffffffffffff166007547f4aa95f981a8337cb337de335b965507da0879c3b49f799d20058e913f5ad2c26600954604051610eb69190612746565b60405180910390a350565b5f600c80549050905090565b5f612710611770600654600554610ee49190612c47565b610eee9190612c7a565b610ef89190612ce8565b905090565b6103e881565b60055481565b5f80600d5f8473ffffffffffffffffffffffffffffffffffffffff1673ffffffffffffffffffffffffffffffffffffffff1681526020019081526020015f205491505f8203610f5f575f61271091509150610fb1565b5f610e108342610f6f9190612b03565b610f799190612ce8565b9050600c8110610f915782614e209250925050610fb1565b60038110610fa75782613a989250925050610fb1565b8261271092509250505b915091565b61138881565b60065481565b6001602052805f5260405f205f915090505481565b6103e881565b7f000000000000000000000000000000000000000000000000000000000000000073ffffffffffffffffffffffffffffffffffffffff163373ffffffffffffffffffffffffffffffffffffffff161461106b576040517f08c379a000000000000000000000000000000000000000000000000000000000815260040161106290612d62565b60405180910390fd5b80600e5f6101000a81548173ffffffffffffffffffffffffffffffffffffffff021916908373ffffffffffffffffffffffffffffffffffffffff16021790555050565b600e5f9054906101000a900473ffffffffffffffffffffffffffffffffffffffff1681565b7f000000000000000000000000000000000000000000000000000000000000000073ffffffffffffffffffffffffffffffffffffffff163373ffffffffffffffffffffffffffffffffffffffff1614611161576040517f08c379a000000000000000000000000000000000000000000000000000000000815260040161115890612d62565b60405180910390fd5b8060035f8473ffffffffffffffffffffffffffffffffffffffff1673ffffffffffffffffffffffffffffffffffffffff1681526020019081526020015f205f6101000a81548160ff0219169083151502179055505050565b600e5f9054906101000a900473ffffffffffffffffffffffffffffffffffffffff1673ffffffffffffffffffffffffffffffffffffffff163373ffffffffffffffffffffffffffffffffffffffff16148061125f57507f000000000000000000000000000000000000000000000000000000000000000073ffffffffffffffffffffffffffffffffffffffff163373ffffffffffffffffffffffffffffffffffffffff16145b61129e576040517f08c379a000000000000000000000000000000000000000000000000000000000815260040161129590612dca565b60405180910390fd5b5f73ffffffffffffffffffffffffffffffffffffffff1660085f9054906101000a900473ffffffffffffffffffffffffffffffffffffffff1673ffffffffffffffffffffffffffffffffffffffff16141580156113075750600b5f9054906101000a900460ff16155b156114b05760095460055f82825461131f9190612c47565b92505081905550600c6040518060a00160405280600754815260200160085f9054906101000a900473ffffffffffffffffffffffffffffffffffffffff1673ffffffffffffffffffffffffffffffffffffffff16815260200160095481526020015f15158152602001600a54815250908060018154018082558091505060019003905f5260205f2090600502015f909190919091505f820151815f01556020820151816001015f6101000a81548173ffffffffffffffffffffffffffffffffffffffff021916908373ffffffffffffffffffffffffffffffffffffffff160217905550604082015181600201556060820151816003015f6101000a81548160ff02191690831515021790555060808201518160040155505060085f9054906101000a900473ffffffffffffffffffffffffffffffffffffffff1673ffffffffffffffffffffffffffffffffffffffff166007547ffd2195580a44eacf25019abee25eba02b7abeade2b38cc1409421b3c88818a9b6009546040516114a39190612746565b60405180910390a3611618565b5f73ffffffffffffffffffffffffffffffffffffffff1660085f9054906101000a900473ffffffffffffffffffffffffffffffffffffffff1673ffffffffffffffffffffffffffffffffffffffff161461161757600c6040518060a00160405280600754815260200160085f9054906101000a900473ffffffffffffffffffffffffffffffffffffffff1673ffffffffffffffffffffffffffffffffffffffff1681526020016009548152602001600115158152602001600a54815250908060018154018082558091505060019003905f5260205f2090600502015f909190919091505f820151815f01556020820151816001015f6101000a81548173ffffffffffffffffffffffffffffffffffffffff021916908373ffffffffffffffffffffffffffffffffffffffff160217905550604082015181600201556060820151816003015f6101000a81548160ff0219169083151502179055506080820151816004015550505b5b60065460055f82825461162b9190612c47565b925050819055505f60068190555060075f81548092919061164b90612de8565b91905055505f6127106117706005546116649190612c7a565b61166e9190612ce8565b90508060055f8282546116819190612b03565b925050819055508160085f6101000a81548173ffffffffffffffffffffffffffffffffffffffff021916908373ffffffffffffffffffffffffffffffffffffffff1602179055508060098190555042600a819055505f600b5f6101000a81548160ff0219169083151502179055508173ffffffffffffffffffffffffffffffffffffffff166007547f9c1e776cbdf221420917b223eb09503e61c8e990a1c09065cbf15bdff06a555e836040516117389190612746565b60405180910390a35050565b60105f9054906101000a900473ffffffffffffffffffffffffffffffffffffffff1681565b7f000000000000000000000000000000000000000000000000000000000000000081565b61177081565b6040518060400160405280600581526020017f41494c4f5400000000000000000000000000000000000000000000000000000081525081565b7f000000000000000000000000000000000000000000000000000000000000000073ffffffffffffffffffffffffffffffffffffffff163373ffffffffffffffffffffffffffffffffffffffff161461185a576040517f08c379a000000000000000000000000000000000000000000000000000000000815260040161185190612d62565b60405180910390fd5b8060045f8473ffffffffffffffffffffffffffffffffffffffff1673ffffffffffffffffffffffffffffffffffffffff1681526020019081526020015f205f6101000a81548160ff0219169083151502179055505050565b5f600754905090565b600c81815481106118ca575f80fd5b905f5260205f2090600502015f91509050805f015490806001015f9054906101000a900473ffffffffffffffffffffffffffffffffffffffff1690806002015490806003015f9054906101000a900460ff16908060040154905085565b5f611933338484611aee565b905092915050565b60085f9054906101000a900473ffffffffffffffffffffffffffffffffffffffff1681565b5f80600554600654915091509091565b6004602052805f5260405f205f915054906101000a900460ff1681565b600a5481565b600d602052805f5260405f205f915090505481565b60095481565b6119b6612549565b600c82815481106119ca576119c9612e2f565b5b905f5260205f2090600502016040518060a00160405290815f8201548152602001600182015f9054906101000a900473ffffffffffffffffffffffffffffffffffffffff1673ffffffffffffffffffffffffffffffffffffffff1673ffffffffffffffffffffffffffffffffffffffff16815260200160028201548152602001600382015f9054906101000a900460ff161515151581526020016004820154815250509050919050565b6002602052815f5260405f20602052805f5260405f205f91509150505481565b610fa081565b6003602052805f5260405f205f915054906101000a900460ff1681565b600b5f9054906101000a900460ff1681565b600f5f9054906101000a900473ffffffffffffffffffffffffffffffffffffffff1681565b5f8160015f8673ffffffffffffffffffffffffffffffffffffffff1673ffffffffffffffffffffffffffffffffffffffff1681526020019081526020015f20541015611b6f576040517f08c379a0000000000000000000000000000000000000000000000000000000008152600401611b6690612ea6565b60405180910390fd5b5f601060149054906101000a900460ff16158015611bd4575060045f8673ffffffffffffffffffffffffffffffffffffffff1673ffffffffffffffffffffffffffffffffffffffff1681526020019081526020015f205f9054906101000a900460ff16155b8015611c27575060045f8573ffffffffffffffffffffffffffffffffffffffff1673ffffffffffffffffffffffffffffffffffffffff1681526020019081526020015f205f9054906101000a900460ff16155b8015611cca575060035f8673ffffffffffffffffffffffffffffffffffffffff1673ffffffffffffffffffffffffffffffffffffffff1681526020019081526020015f205f9054906101000a900460ff1680611cc9575060035f8573ffffffffffffffffffffffffffffffffffffffff1673ffffffffffffffffffffffffffffffffffffffff1681526020019081526020015f205f9054906101000a900460ff165b5b90505f8115611de0576127106103e885611ce49190612c7a565b611cee9190612ce8565b90508060015f3073ffffffffffffffffffffffffffffffffffffffff1673ffffffffffffffffffffffffffffffffffffffff1681526020019081526020015f205f828254611d3c9190612c47565b925050819055503073ffffffffffffffffffffffffffffffffffffffff168673ffffffffffffffffffffffffffffffffffffffff167fddf252ad1be2c89b69c2b068fc378daa952ba7f163c4a11628f55a4df523b3ef83604051611da09190612746565b60405180910390a37f092c6768ba45dfdc937f94a27a0c5be8334952f1558bc7dd41b3e8707502e1b681604051611dd79190612746565b60405180910390a15b5f8185611ded9190612b03565b90508460015f8973ffffffffffffffffffffffffffffffffffffffff1673ffffffffffffffffffffffffffffffffffffffff1681526020019081526020015f205f828254611e3b9190612b03565b925050819055508060015f8873ffffffffffffffffffffffffffffffffffffffff1673ffffffffffffffffffffffffffffffffffffffff1681526020019081526020015f205f828254611e8e9190612c47565b925050819055505f600d5f8873ffffffffffffffffffffffffffffffffffffffff1673ffffffffffffffffffffffffffffffffffffffff1681526020019081526020015f2054148015611ee057505f81115b15611f285742600d5f8873ffffffffffffffffffffffffffffffffffffffff1673ffffffffffffffffffffffffffffffffffffffff1681526020019081526020015f20819055505b5f60015f8973ffffffffffffffffffffffffffffffffffffffff1673ffffffffffffffffffffffffffffffffffffffff1681526020019081526020015f205403611faf575f600d5f8973ffffffffffffffffffffffffffffffffffffffff1673ffffffffffffffffffffffffffffffffffffffff1681526020019081526020015f20819055505b8573ffffffffffffffffffffffffffffffffffffffff168773ffffffffffffffffffffffffffffffffffffffff167fddf252ad1be2c89b69c2b068fc378daa952ba7f163c4a11628f55a4df523b3ef8360405161200c9190612746565b60405180910390a382801561205d57505f60015f3073ffffffffffffffffffffffffffffffffffffffff1673ffffffffffffffffffffffffffffffffffffffff1681526020019081526020015f2054115b80156120b0575060035f8873ffffffffffffffffffffffffffffffffffffffff1673ffffffffffffffffffffffffffffffffffffffff1681526020019081526020015f205f9054906101000a900460ff16155b156120be576120bd6120cc565b5b600193505050509392505050565b601060149054906101000a900460ff161561211c576040517f08c379a000000000000000000000000000000000000000000000000000000000815260040161211390612f0e565b60405180910390fd5b6001601060146101000a81548160ff0219169083151502179055505f60015f3073ffffffffffffffffffffffffffffffffffffffff1673ffffffffffffffffffffffffffffffffffffffff1681526020019081526020015f205490505f810361218557506123c9565b5f600267ffffffffffffffff8111156121a1576121a0612f2c565b5b6040519080825280602002602001820160405280156121cf5781602001602082028036833780820191505090505b50905030815f815181106121e6576121e5612e2f565b5b602002602001019073ffffffffffffffffffffffffffffffffffffffff16908173ffffffffffffffffffffffffffffffffffffffff168152505060105f9054906101000a900473ffffffffffffffffffffffffffffffffffffffff168160018151811061225657612255612e2f565b5b602002602001019073ffffffffffffffffffffffffffffffffffffffff16908173ffffffffffffffffffffffffffffffffffffffff16815250508160025f3073ffffffffffffffffffffffffffffffffffffffff1673ffffffffffffffffffffffffffffffffffffffff1681526020019081526020015f205f600f5f9054906101000a900473ffffffffffffffffffffffffffffffffffffffff1673ffffffffffffffffffffffffffffffffffffffff1673ffffffffffffffffffffffffffffffffffffffff1681526020019081526020015f2081905550600f5f9054906101000a900473ffffffffffffffffffffffffffffffffffffffff1673ffffffffffffffffffffffffffffffffffffffff1663791ac947835f8430426040518663ffffffff1660e01b8152600401612390959493929190613043565b5f604051808303815f87803b1580156123a7575f80fd5b505af11580156123b9573d5f803e3d5ffd5b505050506123c6476123e5565b50505b5f601060146101000a81548160ff021916908315150217905550565b5f810315612546575f612710611388836123ff9190612c7a565b6124099190612ce8565b90505f612710610fa08461241d9190612c7a565b6124279190612ce8565b90505f8183856124379190612b03565b6124419190612b03565b90508260055f8282546124549190612c47565b925050819055508160065f82825461246c9190612c47565b925050819055505f7f000000000000000000000000000000000000000000000000000000000000000073ffffffffffffffffffffffffffffffffffffffff16826040516124b890612c33565b5f6040518083038185875af1925050503d805f81146124f2576040519150601f19603f3d011682016040523d82523d5f602084013e6124f7565b606091505b5050905080612504575f80fd5b7f68839396f994f2ff4db9afa66c0ab6c38efcf8d877b712c092d11a1024fe748585858585604051612539949392919061309b565b60405180910390a1505050505b50565b6040518060a001604052805f81526020015f73ffffffffffffffffffffffffffffffffffffffff1681526020015f81526020015f151581526020015f81525090565b5f81519050919050565b5f82825260208201905092915050565b5f5b838110156125c25780820151818401526020810190506125a7565b5f8484015250505050565b5f601f19601f8301169050919050565b5f6125e78261258b565b6125f18185612595565b93506126018185602086016125a5565b61260a816125cd565b840191505092915050565b5f6020820190508181035f83015261262d81846125dd565b905092915050565b5f80fd5b5f73ffffffffffffffffffffffffffffffffffffffff82169050919050565b5f61266282612639565b9050919050565b61267281612658565b811461267c575f80fd5b50565b5f8135905061268d81612669565b92915050565b5f819050919050565b6126a581612693565b81146126af575f80fd5b50565b5f813590506126c08161269c565b92915050565b5f80604083850312156126dc576126db612635565b5b5f6126e98582860161267f565b92505060206126fa858286016126b2565b9150509250929050565b5f8115159050919050565b61271881612704565b82525050565b5f6020820190506127315f83018461270f565b92915050565b61274081612693565b82525050565b5f6020820190506127595f830184612737565b92915050565b5f805f6060848603121561277657612775612635565b5b5f6127838682870161267f565b93505060206127948682870161267f565b92505060406127a5868287016126b2565b9150509250925092565b5f60ff82169050919050565b6127c4816127af565b82525050565b5f6020820190506127dd5f8301846127bb565b92915050565b6127ec81612658565b82525050565b5f6080820190506128055f8301876127e3565b6128126020830186612737565b61281f604083018561270f565b61282c6060830184612737565b95945050505050565b5f6020828403121561284a57612849612635565b5b5f6128578482850161267f565b91505092915050565b5f6040820190506128735f830185612737565b6128806020830184612737565b9392505050565b5f60208201905061289a5f8301846127e3565b92915050565b6128a981612704565b81146128b3575f80fd5b50565b5f813590506128c4816128a0565b92915050565b5f80604083850312156128e0576128df612635565b5b5f6128ed8582860161267f565b92505060206128fe858286016128b6565b9150509250929050565b5f6020828403121561291d5761291c612635565b5b5f61292a848285016126b2565b91505092915050565b5f60a0820190506129465f830188612737565b61295360208301876127e3565b6129606040830186612737565b61296d606083018561270f565b61297a6080830184612737565b9695505050505050565b61298d81612693565b82525050565b61299c81612658565b82525050565b6129ab81612704565b82525050565b60a082015f8201516129c55f850182612984565b5060208201516129d86020850182612993565b5060408201516129eb6040850182612984565b5060608201516129fe60608501826129a2565b506080820151612a116080850182612984565b50505050565b5f60a082019050612a2a5f8301846129b1565b92915050565b5f8060408385031215612a4657612a45612635565b5b5f612a538582860161267f565b9250506020612a648582860161267f565b9150509250929050565b7f616c6c6f77616e636500000000000000000000000000000000000000000000005f82015250565b5f612aa2600983612595565b9150612aad82612a6e565b602082019050919050565b5f6020820190508181035f830152612acf81612a96565b9050919050565b7f4e487b71000000000000000000000000000000000000000000000000000000005f52601160045260245ffd5b5f612b0d82612693565b9150612b1883612693565b9250828203905081811115612b3057612b2f612ad6565b5b92915050565b7f2177696e6e6572000000000000000000000000000000000000000000000000005f82015250565b5f612b6a600783612595565b9150612b7582612b36565b602082019050919050565b5f6020820190508181035f830152612b9781612b5e565b9050919050565b7f636c61696d6564000000000000000000000000000000000000000000000000005f82015250565b5f612bd2600783612595565b9150612bdd82612b9e565b602082019050919050565b5f6020820190508181035f830152612bff81612bc6565b9050919050565b5f81905092915050565b50565b5f612c1e5f83612c06565b9150612c2982612c10565b5f82019050919050565b5f612c3d82612c13565b9150819050919050565b5f612c5182612693565b9150612c5c83612693565b9250828201905080821115612c7457612c73612ad6565b5b92915050565b5f612c8482612693565b9150612c8f83612693565b9250828202612c9d81612693565b91508282048414831517612cb457612cb3612ad6565b5b5092915050565b7f4e487b71000000000000000000000000000000000000000000000000000000005f52601260045260245ffd5b5f612cf282612693565b9150612cfd83612693565b925082612d0d57612d0c612cbb565b5b828204905092915050565b7f21646576000000000000000000000000000000000000000000000000000000005f82015250565b5f612d4c600483612595565b9150612d5782612d18565b602082019050919050565b5f6020820190508181035f830152612d7981612d40565b9050919050565b7f216f7261636c65000000000000000000000000000000000000000000000000005f82015250565b5f612db4600783612595565b9150612dbf82612d80565b602082019050919050565b5f6020820190508181035f830152612de181612da8565b9050919050565b5f612df282612693565b91507fffffffffffffffffffffffffffffffffffffffffffffffffffffffffffffffff8203612e2457612e23612ad6565b5b600182019050919050565b7f4e487b71000000000000000000000000000000000000000000000000000000005f52603260045260245ffd5b7f62616c616e6365000000000000000000000000000000000000000000000000005f82015250565b5f612e90600783612595565b9150612e9b82612e5c565b602082019050919050565b5f6020820190508181035f830152612ebd81612e84565b9050919050565b7f7265656e7472616e7400000000000000000000000000000000000000000000005f82015250565b5f612ef8600983612595565b9150612f0382612ec4565b602082019050919050565b5f6020820190508181035f830152612f2581612eec565b9050919050565b7f4e487b71000000000000000000000000000000000000000000000000000000005f52604160045260245ffd5b5f819050919050565b5f819050919050565b5f612f85612f80612f7b84612f59565b612f62565b612693565b9050919050565b612f9581612f6b565b82525050565b5f81519050919050565b5f82825260208201905092915050565b5f819050602082019050919050565b5f612fcf8383612993565b60208301905092915050565b5f602082019050919050565b5f612ff182612f9b565b612ffb8185612fa5565b935061300683612fb5565b805f5b8381101561303657815161301d8882612fc4565b975061302883612fdb565b925050600181019050613009565b5085935050505092915050565b5f60a0820190506130565f830188612737565b6130636020830187612f8c565b81810360408301526130758186612fe7565b905061308460608301856127e3565b6130916080830184612737565b9695505050505050565b5f6080820190506130ae5f830187612737565b6130bb6020830186612737565b6130c86040830185612737565b6130d56060830184612737565b9594505050505056fea26469706673582212209aa0e9449ee0ebf1ade28ad45c087081d2ecd4ef1ceeea5b8361ba79f7074e0564736f6c63430008180033","linkReferences":{}},"methodIdentifiers":{"BPS()":"249d39e9","DEV_BPS()":"760690c4","POOL_BPS()":"6b548d6d","PRIZE_BPS()":"944d1210","RESERVE_BPS()":"e41dc9f8","TAX_BPS()":"68f4a786","allowance(address,address)":"dd62ed3e","approve(address,uint256)":"095ea7b3","balanceOf(address)":"70a08231","claim()":"4e71d92d","claimed()":"e834a834","currentPool()":"692b69ae","currentPrize()":"c42b42a0","currentWinner()":"aabe2fe3","decimals()":"313ce567","dev()":"91cca3db","drawTimestamp()":"b914a219","drawWinner(address)":"8d329a97","getCurrentRound()":"a32bf597","getEstimatedNextPrize()":"597e05cd","getHistory(uint256)":"c8691b2a","getHistoryLength()":"5478f468","getHoldingBonus(address)":"6ab4250b","getPendingPrize()":"364976ea","getPoolBalance()":"abd70aa2","history(uint256)":"a7a38f0b","holdingSince(address)":"c3fdfbb4","isExempt(address)":"ad5dff73","isPair(address)":"e5e31b13","name()":"06fdde03","nextReserve()":"6c5939a9","oracle()":"7dc0d1d0","round()":"146ca531","router()":"f887ea40","setExempt(address,bool)":"9fde54f5","setOracle(address)":"7adbf973","setPair(address,bool)":"86a22eff","symbol()":"95d89b41","totalSupply()":"18160ddd","transfer(address,uint256)":"a9059cbb","transferFrom(address,address,uint256)":"23b872dd","wbnb()":"8d72647e"},"id":0}