{"abi":[{"type":"constructor","inputs":[{"name":"_dev","type":"address","internalType":"address"},{"name":"_minBal","type":"uint256","internalType":"uint256"},{"name":"_cooldown","type":"uint256","internalType":"uint256"}],"stateMutability":"nonpayable"},{"type":"receive","stateMutability":"payable"},{"type":"function","name":"BPS","inputs":[],"outputs":[{"name":"","type":"uint256","internalType":"uint256"}],"stateMutability":"view"},{"type":"function","name":"DEV_BPS","inputs":[],"outputs":[{"name":"","type":"uint256","internalType":"uint256"}],"stateMutability":"view"},{"type":"function","name":"MODEL_ID","inputs":[],"outputs":[{"name":"","type":"uint256","internalType":"uint256"}],"stateMutability":"view"},{"type":"function","name":"NUM_CHOICES","inputs":[],"outputs":[{"name":"","type":"uint8","internalType":"uint8"}],"stateMutability":"view"},{"type":"function","name":"POOL_BPS","inputs":[],"outputs":[{"name":"","type":"uint256","internalType":"uint256"}],"stateMutability":"view"},{"type":"function","name":"PRIZE_BPS","inputs":[],"outputs":[{"name":"","type":"uint256","internalType":"uint256"}],"stateMutability":"view"},{"type":"function","name":"RESERVE_BPS","inputs":[],"outputs":[{"name":"","type":"uint256","internalType":"uint256"}],"stateMutability":"view"},{"type":"function","name":"candidates","inputs":[{"name":"","type":"uint256","internalType":"uint256"}],"outputs":[{"name":"","type":"address","internalType":"address"}],"stateMutability":"view"},{"type":"function","name":"claim","inputs":[],"outputs":[],"stateMutability":"nonpayable"},{"type":"function","name":"claimed","inputs":[],"outputs":[{"name":"","type":"bool","internalType":"bool"}],"stateMutability":"view"},{"type":"function","name":"cooldown","inputs":[],"outputs":[{"name":"","type":"uint256","internalType":"uint256"}],"stateMutability":"view"},{"type":"function","name":"currentPool","inputs":[],"outputs":[{"name":"","type":"uint256","internalType":"uint256"}],"stateMutability":"view"},{"type":"function","name":"currentPrize","inputs":[],"outputs":[{"name":"","type":"uint256","internalType":"uint256"}],"stateMutability":"view"},{"type":"function","name":"currentWinner","inputs":[],"outputs":[{"name":"","type":"address","internalType":"address"}],"stateMutability":"view"},{"type":"function","name":"description","inputs":[],"outputs":[{"name":"","type":"string","internalType":"string"}],"stateMutability":"view"},{"type":"function","name":"dev","inputs":[],"outputs":[{"name":"","type":"address","internalType":"address"}],"stateMutability":"view"},{"type":"function","name":"drawTimestamp","inputs":[],"outputs":[{"name":"","type":"uint256","internalType":"uint256"}],"stateMutability":"view"},{"type":"function","name":"emergencyWithdraw","inputs":[{"name":"to","type":"address","internalType":"address payable"}],"outputs":[],"stateMutability":"nonpayable"},{"type":"function","name":"fulfillReasoning","inputs":[{"name":"requestId","type":"uint256","internalType":"uint256"},{"name":"choice","type":"uint8","internalType":"uint8"}],"outputs":[],"stateMutability":"nonpayable"},{"type":"function","name":"getCandidates","inputs":[],"outputs":[{"name":"","type":"address[]","internalType":"address[]"}],"stateMutability":"view"},{"type":"function","name":"getCurrentRound","inputs":[],"outputs":[{"name":"","type":"uint256","internalType":"uint256"}],"stateMutability":"view"},{"type":"function","name":"getEstimatedNextPrize","inputs":[],"outputs":[{"name":"","type":"uint256","internalType":"uint256"}],"stateMutability":"view"},{"type":"function","name":"getHistory","inputs":[{"name":"idx","type":"uint256","internalType":"uint256"}],"outputs":[{"name":"","type":"tuple","internalType":"struct AILotteryVaultV2.DrawRecord","components":[{"name":"round","type":"uint256","internalType":"uint256"},{"name":"winner","type":"address","internalType":"address"},{"name":"prize","type":"uint256","internalType":"uint256"},{"name":"claimed","type":"bool","internalType":"bool"},{"name":"timestamp","type":"uint256","internalType":"uint256"}]}],"stateMutability":"view"},{"type":"function","name":"getHistoryLength","inputs":[],"outputs":[{"name":"","type":"uint256","internalType":"uint256"}],"stateMutability":"view"},{"type":"function","name":"getPendingPrize","inputs":[],"outputs":[{"name":"","type":"address","internalType":"address"},{"name":"","type":"uint256","internalType":"uint256"},{"name":"","type":"bool","internalType":"bool"},{"name":"","type":"uint256","internalType":"uint256"}],"stateMutability":"view"},{"type":"function","name":"getPoolBalance","inputs":[],"outputs":[{"name":"","type":"uint256","internalType":"uint256"},{"name":"","type":"uint256","internalType":"uint256"}],"stateMutability":"view"},{"type":"function","name":"history","inputs":[{"name":"","type":"uint256","internalType":"uint256"}],"outputs":[{"name":"round","type":"uint256","internalType":"uint256"},{"name":"winner","type":"address","internalType":"address"},{"name":"prize","type":"uint256","internalType":"uint256"},{"name":"claimed","type":"bool","internalType":"bool"},{"name":"timestamp","type":"uint256","internalType":"uint256"}],"stateMutability":"view"},{"type":"function","name":"isDrawPending","inputs":[],"outputs":[{"name":"","type":"bool","internalType":"bool"}],"stateMutability":"view"},{"type":"function","name":"lastDrawTs","inputs":[],"outputs":[{"name":"","type":"uint256","internalType":"uint256"}],"stateMutability":"view"},{"type":"function","name":"lastRequestId","inputs":[],"outputs":[{"name":"","type":"uint256","internalType":"uint256"}],"stateMutability":"view"},{"type":"function","name":"manualDraw","inputs":[{"name":"winner","type":"address","internalType":"address"}],"outputs":[],"stateMutability":"nonpayable"},{"type":"function","name":"minBal","inputs":[],"outputs":[{"name":"","type":"uint256","internalType":"uint256"}],"stateMutability":"view"},{"type":"function","name":"nextReserve","inputs":[],"outputs":[{"name":"","type":"uint256","internalType":"uint256"}],"stateMutability":"view"},{"type":"function","name":"onFlapAIRequestRefunded","inputs":[{"name":"requestId","type":"uint256","internalType":"uint256"}],"outputs":[],"stateMutability":"payable"},{"type":"function","name":"owner","inputs":[],"outputs":[{"name":"","type":"address","internalType":"address"}],"stateMutability":"view"},{"type":"function","name":"requestDraw","inputs":[],"outputs":[],"stateMutability":"nonpayable"},{"type":"function","name":"round","inputs":[],"outputs":[{"name":"","type":"uint256","internalType":"uint256"}],"stateMutability":"view"},{"type":"function","name":"setCandidates","inputs":[{"name":"_candidates","type":"address[]","internalType":"address[]"}],"outputs":[],"stateMutability":"nonpayable"},{"type":"function","name":"setParams","inputs":[{"name":"_min","type":"uint256","internalType":"uint256"},{"name":"_cd","type":"uint256","internalType":"uint256"}],"outputs":[],"stateMutability":"nonpayable"},{"type":"function","name":"totalDraws","inputs":[],"outputs":[{"name":"","type":"uint256","internalType":"uint256"}],"stateMutability":"view"},{"type":"function","name":"transferOwnership","inputs":[{"name":"o","type":"address","internalType":"address"}],"outputs":[],"stateMutability":"nonpayable"},{"type":"event","name":"DrawFulfilled","inputs":[{"name":"requestId","type":"uint256","indexed":false,"internalType":"uint256"},{"name":"choiceIndex","type":"uint8","indexed":false,"internalType":"uint8"}],"anonymous":false},{"type":"event","name":"DrawRefunded","inputs":[{"name":"requestId","type":"uint256","indexed":false,"internalType":"uint256"}],"anonymous":false},{"type":"event","name":"DrawRequested","inputs":[{"name":"requestId","type":"uint256","indexed":false,"internalType":"uint256"},{"name":"numCandidates","type":"uint256","indexed":false,"internalType":"uint256"}],"anonymous":false},{"type":"event","name":"PrizeClaimed","inputs":[{"name":"round","type":"uint256","indexed":true,"internalType":"uint256"},{"name":"winner","type":"address","indexed":true,"internalType":"address"},{"name":"prize","type":"uint256","indexed":false,"internalType":"uint256"}],"anonymous":false},{"type":"event","name":"PrizeExpired","inputs":[{"name":"round","type":"uint256","indexed":true,"internalType":"uint256"},{"name":"winner","type":"address","indexed":true,"internalType":"address"},{"name":"prize","type":"uint256","indexed":false,"internalType":"uint256"}],"anonymous":false},{"type":"event","name":"TaxReceived","inputs":[{"name":"amount","type":"uint256","indexed":false,"internalType":"uint256"},{"name":"toPool","type":"uint256","indexed":false,"internalType":"uint256"},{"name":"toReserve","type":"uint256","indexed":false,"internalType":"uint256"},{"name":"toDev","type":"uint256","indexed":false,"internalType":"uint256"}],"anonymous":false},{"type":"event","name":"WinnerDrawn","inputs":[{"name":"round","type":"uint256","indexed":true,"internalType":"uint256"},{"name":"winner","type":"address","indexed":true,"internalType":"address"},{"name":"prize","type":"uint256","indexed":false,"internalType":"uint256"}],"anonymous":false},{"type":"error","name":"AlreadyClaimed","inputs":[]},{"type":"error","name":"DrawPending","inputs":[]},{"type":"error","name":"FlapAIConsumerOnlyProvider","inputs":[]},{"type":"error","name":"FlapAIConsumerUnsupportedChain","inputs":[{"name":"chainId","type":"uint256","internalType":"uint256"}]},{"type":"error","name":"NoCandidates","inputs":[]},{"type":"error","name":"NoPendingPrize","inputs":[]},{"type":"error","name":"NotOwner","inputs":[]},{"type":"error","name":"NotWinner","inputs":[]},{"type":"error","name":"UnsupportedChain","inputs":[{"name":"chainId","type":"uint256","internalType":"uint256"}]}],"bytecode":{"object":"0x60a060405234801562000010575f80fd5b5060405162003c2b38038062003c2b83398181016040528101906200003691906200015d565b8273ffffffffffffffffffffffffffffffffffffffff1660808173ffffffffffffffffffffffffffffffffffffffff1681525050825f806101000a81548173ffffffffffffffffffffffffffffffffffffffff021916908373ffffffffffffffffffffffffffffffffffffffff1602179055508160018190555080600281905550505050620001b6565b5f80fd5b5f73ffffffffffffffffffffffffffffffffffffffff82169050919050565b5f620000ef82620000c4565b9050919050565b6200010181620000e3565b81146200010c575f80fd5b50565b5f815190506200011f81620000f6565b92915050565b5f819050919050565b620001398162000125565b811462000144575f80fd5b50565b5f8151905062000157816200012e565b92915050565b5f805f60608486031215620001775762000176620000c0565b5b5f62000186868287016200010f565b9350506020620001998682870162000147565b9250506040620001ac8682870162000147565b9150509250925092565b608051613a55620001d65f395f81816102db01526111490152613a555ff3fe608060405260043610610249575f3560e01c8063787a08a611610138578063aabe2fe3116100b5578063c8691b2a11610079578063c8691b2a1461098d578063d4567570146109c9578063e41dc9f8146109f3578063e834a83414610a1d578063f2fde38b14610a47578063fc2a88c314610a6f576103df565b8063aabe2fe3146108bc578063abd70aa2146108e6578063b914a21914610911578063c0324c771461093b578063c42b42a014610963576103df565b80639e658e91116100fc5780639e658e91146107ec578063a32bf59714610814578063a57848b61461083e578063a7a38f0b14610854578063aa70bb5314610894576103df565b8063787a08a61461071a5780638da5cb5b1461074457806391b7655f1461076e57806391cca3db14610798578063944d1210146107c2576103df565b80635000d3e5116101c65780636c5939a91161018a5780636c5939a91461064a5780636ff1c9bc146106745780637284e4161461069c578063760690c4146106c657806377d721bb146106f0576103df565b80635000d3e5146105865780635478f468146105a2578063597e05cd146105cc578063692b69ae146105f65780636b548d6d14610620576103df565b80633477ee2e1161020d5780633477ee2e146104b3578063364976ea146104ef57806347eba7401461051c57806348917d5d146105465780634e71d92d14610570576103df565b806306a49fce146103e3578063137ef0491461040d578063146ca531146104375780631ba900eb14610461578063249d39e914610489576103df565b366103df575f3490505f6127106113888361026491906126e5565b61026e9190612753565b90505f612710610fa08461028291906126e5565b61028c9190612753565b90505f81838561029c9190612783565b6102a69190612783565b90508260035f8282546102b991906127b6565b925050819055508160045f8282546102d191906127b6565b925050819055505f7f000000000000000000000000000000000000000000000000000000000000000073ffffffffffffffffffffffffffffffffffffffff168260405161031d90612816565b5f6040518083038185875af1925050503d805f8114610357576040519150601f19603f3d011682016040523d82523d5f602084013e61035c565b606091505b50509050806103a0576040517f08c379a000000000000000000000000000000000000000000000000000000000815260040161039790612884565b60405180910390fd5b7f27e35f3446b07a0965e3c79578ecf494de3d3fcb81c9b93195588ce7e8ebc156858585856040516103d594939291906128b1565b60405180910390a1005b5f80fd5b3480156103ee575f80fd5b506103f7610a99565b60405161040491906129db565b60405180910390f35b348015610418575f80fd5b50610421610b24565b60405161042e91906129fb565b60405180910390f35b348015610442575f80fd5b5061044b610b2a565b60405161045891906129fb565b60405180910390f35b34801561046c575f80fd5b5061048760048036038101906104829190612a85565b610b30565b005b348015610494575f80fd5b5061049d610baa565b6040516104aa91906129fb565b60405180910390f35b3480156104be575f80fd5b506104d960048036038101906104d49190612ac3565b610bb0565b6040516104e69190612afd565b60405180910390f35b3480156104fa575f80fd5b50610503610beb565b6040516105139493929190612b30565b60405180910390f35b348015610527575f80fd5b50610530610c34565b60405161053d9190612b82565b60405180910390f35b348015610551575f80fd5b5061055a610c39565b60405161056791906129fb565b60405180910390f35b34801561057b575f80fd5b50610584610c3f565b005b6105a0600480360381019061059b9190612ac3565b610eab565b005b3480156105ad575f80fd5b506105b6610f23565b6040516105c391906129fb565b60405180910390f35b3480156105d7575f80fd5b506105e0610f2f565b6040516105ed91906129fb565b60405180910390f35b348015610601575f80fd5b5061060a610f5f565b60405161061791906129fb565b60405180910390f35b34801561062b575f80fd5b50610634610f65565b60405161064191906129fb565b60405180910390f35b348015610655575f80fd5b5061065e610f6b565b60405161066b91906129fb565b60405180910390f35b34801561067f575f80fd5b5061069a60048036038101906106959190612bd6565b610f71565b005b3480156106a7575f80fd5b506106b06110ab565b6040516106bd9190612c7b565b60405180910390f35b3480156106d1575f80fd5b506106da611106565b6040516106e791906129fb565b60405180910390f35b3480156106fb575f80fd5b5061070461110c565b6040516107119190612c9b565b60405180910390f35b348015610725575f80fd5b5061072e611118565b60405161073b91906129fb565b60405180910390f35b34801561074f575f80fd5b5061075861111e565b6040516107659190612afd565b60405180910390f35b348015610779575f80fd5b50610782611141565b60405161078f91906129fb565b60405180910390f35b3480156107a3575f80fd5b506107ac611147565b6040516107b99190612afd565b60405180910390f35b3480156107cd575f80fd5b506107d661116b565b6040516107e391906129fb565b60405180910390f35b3480156107f7575f80fd5b50610812600480360381019061080d9190612d15565b611171565b005b34801561081f575f80fd5b5061082861133e565b60405161083591906129fb565b60405180910390f35b348015610849575f80fd5b50610852611347565b005b34801561085f575f80fd5b5061087a60048036038101906108759190612ac3565b611636565b60405161088b959493929190612d60565b60405180910390f35b34801561089f575f80fd5b506108ba60048036038101906108b59190612ddb565b6116a2565b005b3480156108c7575f80fd5b506108d06117ae565b6040516108dd9190612afd565b60405180910390f35b3480156108f1575f80fd5b506108fa6117d3565b604051610908929190612e06565b60405180910390f35b34801561091c575f80fd5b506109256117e3565b60405161093291906129fb565b60405180910390f35b348015610946575f80fd5b50610961600480360381019061095c9190612e2d565b6117e9565b005b34801561096e575f80fd5b506109776118c0565b60405161098491906129fb565b60405180910390f35b348015610998575f80fd5b506109b360048036038101906109ae9190612ac3565b6118c6565b6040516109c09190612eef565b60405180910390f35b3480156109d4575f80fd5b506109dd61198c565b6040516109ea91906129fb565b60405180910390f35b3480156109fe575f80fd5b50610a07611990565b604051610a1491906129fb565b60405180910390f35b348015610a28575f80fd5b50610a31611996565b604051610a3e9190612c9b565b60405180910390f35b348015610a52575f80fd5b50610a6d6004803603810190610a689190612ddb565b6119a8565b005b348015610a7a575f80fd5b50610a83611ae6565b604051610a9091906129fb565b60405180910390f35b6060600d805480602002602001604051908101604052809291908181526020018280548015610b1a57602002820191905f5260205f20905b815f9054906101000a900473ffffffffffffffffffffffffffffffffffffffff1673ffffffffffffffffffffffffffffffffffffffff1681526020019060010190808311610ad1575b5050505050905090565b600c5481565b60055481565b610b38611aef565b73ffffffffffffffffffffffffffffffffffffffff163373ffffffffffffffffffffffffffffffffffffffff1614610b9c576040517ffe5546e600000000000000000000000000000000000000000000000000000000815260040160405180910390fd5b610ba68282611b7e565b5050565b61271081565b600d8181548110610bbf575f80fd5b905f5260205f20015f915054906101000a900473ffffffffffffffffffffffffffffffffffffffff1681565b5f805f8060065f9054906101000a900473ffffffffffffffffffffffffffffffffffffffff1660075460095f9054906101000a900460ff16600854935093509350935090919293565b600581565b600b5481565b5f73ffffffffffffffffffffffffffffffffffffffff1660065f9054906101000a900473ffffffffffffffffffffffffffffffffffffffff1673ffffffffffffffffffffffffffffffffffffffff1603610cc5576040517f0553400200000000000000000000000000000000000000000000000000000000815260040160405180910390fd5b60065f9054906101000a900473ffffffffffffffffffffffffffffffffffffffff1673ffffffffffffffffffffffffffffffffffffffff163373ffffffffffffffffffffffffffffffffffffffff1614610d4b576040517f618c724200000000000000000000000000000000000000000000000000000000815260040160405180910390fd5b60095f9054906101000a900460ff1615610d91576040517f646cf55800000000000000000000000000000000000000000000000000000000815260040160405180910390fd5b600160095f6101000a81548160ff0219169083151502179055505f3373ffffffffffffffffffffffffffffffffffffffff16600754604051610dd290612816565b5f6040518083038185875af1925050503d805f8114610e0c576040519150601f19603f3d011682016040523d82523d5f602084013e610e11565b606091505b5050905080610e55576040517f08c379a0000000000000000000000000000000000000000000000000000000008152600401610e4c90612f52565b60405180910390fd5b3373ffffffffffffffffffffffffffffffffffffffff166005547f4aa95f981a8337cb337de335b965507da0879c3b49f799d20058e913f5ad2c26600754604051610ea091906129fb565b60405180910390a350565b610eb3611aef565b73ffffffffffffffffffffffffffffffffffffffff163373ffffffffffffffffffffffffffffffffffffffff1614610f17576040517ffe5546e600000000000000000000000000000000000000000000000000000000815260040160405180910390fd5b610f2081611c7e565b50565b5f600e80549050905090565b5f612710611770600454600354610f4691906127b6565b610f5091906126e5565b610f5a9190612753565b905090565b60035481565b61138881565b60045481565b5f8054906101000a900473ffffffffffffffffffffffffffffffffffffffff1673ffffffffffffffffffffffffffffffffffffffff163373ffffffffffffffffffffffffffffffffffffffff1614158015610fff5750610fcf611d03565b73ffffffffffffffffffffffffffffffffffffffff163373ffffffffffffffffffffffffffffffffffffffff1614155b15611036576040517f30cd747100000000000000000000000000000000000000000000000000000000815260040160405180910390fd5b5f8173ffffffffffffffffffffffffffffffffffffffff164760405161105b90612816565b5f6040518083038185875af1925050503d805f8114611095576040519150601f19603f3d011682016040523d82523d5f602084013e61109a565b606091505b50509050806110a7575f80fd5b5050565b60606110b8600554611d92565b6110d566038d7ea4c680006003546110d09190612753565b611d92565b6110e0600c54611d92565b6040516020016110f2939291906130d2565b604051602081830303815290604052905090565b6103e881565b5f80600a541415905090565b60025481565b5f8054906101000a900473ffffffffffffffffffffffffffffffffffffffff1681565b60015481565b7f000000000000000000000000000000000000000000000000000000000000000081565b61177081565b5f8054906101000a900473ffffffffffffffffffffffffffffffffffffffff1673ffffffffffffffffffffffffffffffffffffffff163373ffffffffffffffffffffffffffffffffffffffff16141580156111ff57506111cf611d03565b73ffffffffffffffffffffffffffffffffffffffff163373ffffffffffffffffffffffffffffffffffffffff1614155b15611236576040517f30cd747100000000000000000000000000000000000000000000000000000000815260040160405180910390fd5b5f8282905011801561124c575060058282905011155b61128b576040517f08c379a000000000000000000000000000000000000000000000000000000000815260040161128290613178565b60405180910390fd5b600d5f6112989190612634565b5f5b8282905081101561133957600d8383838181106112ba576112b9613196565b5b90506020020160208101906112cf9190612ddb565b908060018154018082558091505060019003905f5260205f20015f9091909190916101000a81548173ffffffffffffffffffffffffffffffffffffffff021916908373ffffffffffffffffffffffffffffffffffffffff160217905550808060010191505061129a565b505050565b5f600554905090565b5f8054906101000a900473ffffffffffffffffffffffffffffffffffffffff1673ffffffffffffffffffffffffffffffffffffffff163373ffffffffffffffffffffffffffffffffffffffff16141580156113d557506113a5611d03565b73ffffffffffffffffffffffffffffffffffffffff163373ffffffffffffffffffffffffffffffffffffffff1614155b1561140c576040517f30cd747100000000000000000000000000000000000000000000000000000000815260040160405180910390fd5b5f600a5414611447576040517fa2f59dfe00000000000000000000000000000000000000000000000000000000815260040160405180910390fd5b5f600d8054905003611485576040517fe504190400000000000000000000000000000000000000000000000000000000815260040160405180910390fd5b5f61148e611aef565b90505f8173ffffffffffffffffffffffffffffffffffffffff16636d3616945f6040518263ffffffff1660e01b81526004016114ca91906129fb565b5f60405180830381865afa1580156114e4573d5f803e3d5ffd5b505050506040513d5f823e3d601f19601f8201168201806040525081019061150c91906133a0565b60200151905080471015611555576040517f08c379a000000000000000000000000000000000000000000000000000000000815260040161154c90613431565b60405180910390fd5b5f600d8054905090508273ffffffffffffffffffffffffffffffffffffffff16638c9ab78a835f611584611ee8565b856040518563ffffffff1660e01b81526004016115a39392919061344f565b60206040518083038185885af11580156115bf573d5f803e3d5ffd5b50505050506040513d601f19601f820116820180604052508101906115e4919061348b565b600a8190555042600b819055507fa87d18931b669b94d135986745ba30491257a77c255767cdd6796f697c1172f1600a54600d80549050604051611629929190612e06565b60405180910390a1505050565b600e8181548110611645575f80fd5b905f5260205f2090600502015f91509050805f015490806001015f9054906101000a900473ffffffffffffffffffffffffffffffffffffffff1690806002015490806003015f9054906101000a900460ff16908060040154905085565b5f8054906101000a900473ffffffffffffffffffffffffffffffffffffffff1673ffffffffffffffffffffffffffffffffffffffff163373ffffffffffffffffffffffffffffffffffffffff16141580156117305750611700611d03565b73ffffffffffffffffffffffffffffffffffffffff163373ffffffffffffffffffffffffffffffffffffffff1614155b15611767576040517f30cd747100000000000000000000000000000000000000000000000000000000815260040160405180910390fd5b5f600a54146117a2576040517fa2f59dfe00000000000000000000000000000000000000000000000000000000815260040160405180910390fd5b6117ab8161204a565b50565b60065f9054906101000a900473ffffffffffffffffffffffffffffffffffffffff1681565b5f80600354600454915091509091565b60085481565b5f8054906101000a900473ffffffffffffffffffffffffffffffffffffffff1673ffffffffffffffffffffffffffffffffffffffff163373ffffffffffffffffffffffffffffffffffffffff16141580156118775750611847611d03565b73ffffffffffffffffffffffffffffffffffffffff163373ffffffffffffffffffffffffffffffffffffffff1614155b156118ae576040517f30cd747100000000000000000000000000000000000000000000000000000000815260040160405180910390fd5b81600181905550806002819055505050565b60075481565b6118ce612652565b600e82815481106118e2576118e1613196565b5b905f5260205f2090600502016040518060a00160405290815f8201548152602001600182015f9054906101000a900473ffffffffffffffffffffffffffffffffffffffff1673ffffffffffffffffffffffffffffffffffffffff1673ffffffffffffffffffffffffffffffffffffffff16815260200160028201548152602001600382015f9054906101000a900460ff161515151581526020016004820154815250509050919050565b5f81565b610fa081565b60095f9054906101000a900460ff1681565b5f8054906101000a900473ffffffffffffffffffffffffffffffffffffffff1673ffffffffffffffffffffffffffffffffffffffff163373ffffffffffffffffffffffffffffffffffffffff1614158015611a365750611a06611d03565b73ffffffffffffffffffffffffffffffffffffffff163373ffffffffffffffffffffffffffffffffffffffff1614155b15611a6d576040517f30cd747100000000000000000000000000000000000000000000000000000000815260040160405180910390fd5b5f73ffffffffffffffffffffffffffffffffffffffff168173ffffffffffffffffffffffffffffffffffffffff1603611aa4575f80fd5b805f806101000a81548173ffffffffffffffffffffffffffffffffffffffff021916908373ffffffffffffffffffffffffffffffffffffffff16021790555050565b5f600a54905090565b5f8046905060388103611b195773aee3a7ca6fe6b53f6c32a3e8407ec5a9df8b7e39915050611b7b565b60618103611b3e5773fbee0a1c921f6f4dadfadd102b8276175d1b518d915050611b7b565b806040517fb9ae4074000000000000000000000000000000000000000000000000000000008152600401611b7291906129fb565b60405180910390fd5b90565b600a548214611bc2576040517f08c379a0000000000000000000000000000000000000000000000000000000008152600401611bb990613500565b60405180910390fd5b5f600a81905550600c5f815480929190611bdb9061351e565b91905055507f8cee49ea2642227734a1de818ddd0d9ce7c23c5c8e039c02b9082a40a6116c3f8282604051611c11929190613565565b60405180910390a15f8160ff169050600d805490508110611c30575f90505b5f600d8281548110611c4557611c44613196565b5b905f5260205f20015f9054906101000a900473ffffffffffffffffffffffffffffffffffffffff169050611c788161204a565b50505050565b600a548114611cc2576040517f08c379a0000000000000000000000000000000000000000000000000000000008152600401611cb990613500565b60405180910390fd5b5f600a819055507ff581f203b4a117fd6d5a2d39de48e3a92c042e4fd81cf4b5672f17eb627a307981604051611cf891906129fb565b60405180910390a150565b5f8046905060388103611d2d57739e27098dcd8844bcc6287a557e0b4d09c86b8a4b915050611d8f565b60618103611d52577376fa8c526f8bc27ba6958b76deef92a0dbe46950915050611d8f565b806040517fc3a55c98000000000000000000000000000000000000000000000000000000008152600401611d8691906129fb565b60405180910390fd5b90565b60605f8203611dd8576040518060400160405280600181526020017f30000000000000000000000000000000000000000000000000000000000000008152509050611ee3565b5f8290505f5b5f8214611e07578080611df09061351e565b915050600a82611e009190612753565b9150611dde565b5f8167ffffffffffffffff811115611e2257611e216131c7565b5b6040519080825280601f01601f191660200182016040528015611e545781602001600182028036833780820191505090505b5090505b5f8514611edc57600a85611e6c919061358c565b6030611e7891906127b6565b60f81b8183611e86906135bc565b93508381518110611e9a57611e99613196565b5b60200101907effffffffffffffffffffffffffffffffffffffffffffffffffffffffffffff191690815f1a905350600a85611ed59190612753565b9450611e58565b8093505050505b919050565b60605f60405180602001604052805f81525090505f5b600d80549050811015611fed5781611f1582611d92565b611f59600d8481548110611f2c57611f2b613196565b5b905f5260205f20015f9054906101000a900473ffffffffffffffffffffffffffffffffffffffff166123ab565b6001600d80549050611f6b9190612783565b8410611f855760405180602001604052805f815250611fbc565b6040518060400160405280600181526020017f20000000000000000000000000000000000000000000000000000000000000008152505b604051602001611fcf9493929190613677565b60405160208183030381529060405291508080600101915050611efe565b5061200b66038d7ea4c680006003546120069190612753565b611d92565b612022600160055461201d91906127b6565b611d92565b826040516020016120359392919061398c565b60405160208183030381529060405291505090565b5f73ffffffffffffffffffffffffffffffffffffffff1660065f9054906101000a900473ffffffffffffffffffffffffffffffffffffffff1673ffffffffffffffffffffffffffffffffffffffff16146121be57600e6040518060a00160405280600554815260200160065f9054906101000a900473ffffffffffffffffffffffffffffffffffffffff1673ffffffffffffffffffffffffffffffffffffffff168152602001600754815260200160095f9054906101000a900460ff1615158152602001600854815250908060018154018082558091505060019003905f5260205f2090600502015f909190919091505f820151815f01556020820151816001015f6101000a81548173ffffffffffffffffffffffffffffffffffffffff021916908373ffffffffffffffffffffffffffffffffffffffff160217905550604082015181600201556060820151816003015f6101000a81548160ff0219169083151502179055506080820151816004015550505b60045460035f8282546121d191906127b6565b925050819055505f60048190555060055f8154809291906121f19061351e565b91905055505f61271061177060035461220a91906126e5565b6122149190612753565b90508060035f8282546122279190612783565b925050819055508160065f6101000a81548173ffffffffffffffffffffffffffffffffffffffff021916908373ffffffffffffffffffffffffffffffffffffffff16021790555080600781905550426008819055505f8273ffffffffffffffffffffffffffffffffffffffff16826040516122a190612816565b5f6040518083038185875af1925050503d805f81146122db576040519150601f19603f3d011682016040523d82523d5f602084013e6122e0565b606091505b505090508060095f6101000a81548160ff0219169083151502179055508015612355578273ffffffffffffffffffffffffffffffffffffffff166005547f4aa95f981a8337cb337de335b965507da0879c3b49f799d20058e913f5ad2c268460405161234c91906129fb565b60405180910390a35b8273ffffffffffffffffffffffffffffffffffffffff166005547f9c1e776cbdf221420917b223eb09503e61c8e990a1c09065cbf15bdff06a555e8460405161239e91906129fb565b60405180910390a3505050565b60605f7f303132333435363738396162636465660000000000000000000000000000000090505f602a67ffffffffffffffff8111156123ed576123ec6131c7565b5b6040519080825280601f01601f19166020018201604052801561241f5781602001600182028036833780820191505090505b5090507f3000000000000000000000000000000000000000000000000000000000000000815f8151811061245657612455613196565b5b60200101907effffffffffffffffffffffffffffffffffffffffffffffffffffffffffffff191690815f1a9053507f7800000000000000000000000000000000000000000000000000000000000000816001815181106124b9576124b8613196565b5b60200101907effffffffffffffffffffffffffffffffffffffffffffffffffffffffffffff191690815f1a9053505f8460601b90505f5b60148110156126285783600483836014811061250f5761250e613196565b5b1a60f81b60f81c60ff16901c60ff166010811061252f5761252e613196565b5b1a60f81b8360028361254191906126e5565b600261254d91906127b6565b8151811061255e5761255d613196565b5b60200101907effffffffffffffffffffffffffffffffffffffffffffffffffffffffffffff191690815f1a90535083600f8383601481106125a2576125a1613196565b5b1a60f81b60f81c1660ff16601081106125be576125bd613196565b5b1a60f81b836002836125d091906126e5565b60036125dc91906127b6565b815181106125ed576125ec613196565b5b60200101907effffffffffffffffffffffffffffffffffffffffffffffffffffffffffffff191690815f1a90535080806001019150506124f0565b50819350505050919050565b5080545f8255905f5260205f209081019061264f9190612694565b50565b6040518060a001604052805f81526020015f73ffffffffffffffffffffffffffffffffffffffff1681526020015f81526020015f151581526020015f81525090565b5b808211156126ab575f815f905550600101612695565b5090565b5f819050919050565b7f4e487b71000000000000000000000000000000000000000000000000000000005f52601160045260245ffd5b5f6126ef826126af565b91506126fa836126af565b9250828202612708816126af565b9150828204841483151761271f5761271e6126b8565b5b5092915050565b7f4e487b71000000000000000000000000000000000000000000000000000000005f52601260045260245ffd5b5f61275d826126af565b9150612768836126af565b92508261277857612777612726565b5b828204905092915050565b5f61278d826126af565b9150612798836126af565b92508282039050818111156127b0576127af6126b8565b5b92915050565b5f6127c0826126af565b91506127cb836126af565b92508282019050808211156127e3576127e26126b8565b5b92915050565b5f81905092915050565b50565b5f6128015f836127e9565b915061280c826127f3565b5f82019050919050565b5f612820826127f6565b9150819050919050565b5f82825260208201905092915050565b7f6465762078666572206661696c000000000000000000000000000000000000005f82015250565b5f61286e600d8361282a565b91506128798261283a565b602082019050919050565b5f6020820190508181035f83015261289b81612862565b9050919050565b6128ab816126af565b82525050565b5f6080820190506128c45f8301876128a2565b6128d160208301866128a2565b6128de60408301856128a2565b6128eb60608301846128a2565b95945050505050565b5f81519050919050565b5f82825260208201905092915050565b5f819050602082019050919050565b5f73ffffffffffffffffffffffffffffffffffffffff82169050919050565b5f6129468261291d565b9050919050565b6129568161293c565b82525050565b5f612967838361294d565b60208301905092915050565b5f602082019050919050565b5f612989826128f4565b61299381856128fe565b935061299e8361290e565b805f5b838110156129ce5781516129b5888261295c565b97506129c083612973565b9250506001810190506129a1565b5085935050505092915050565b5f6020820190508181035f8301526129f3818461297f565b905092915050565b5f602082019050612a0e5f8301846128a2565b92915050565b5f604051905090565b5f80fd5b5f80fd5b612a2e816126af565b8114612a38575f80fd5b50565b5f81359050612a4981612a25565b92915050565b5f60ff82169050919050565b612a6481612a4f565b8114612a6e575f80fd5b50565b5f81359050612a7f81612a5b565b92915050565b5f8060408385031215612a9b57612a9a612a1d565b5b5f612aa885828601612a3b565b9250506020612ab985828601612a71565b9150509250929050565b5f60208284031215612ad857612ad7612a1d565b5b5f612ae584828501612a3b565b91505092915050565b612af78161293c565b82525050565b5f602082019050612b105f830184612aee565b92915050565b5f8115159050919050565b612b2a81612b16565b82525050565b5f608082019050612b435f830187612aee565b612b5060208301866128a2565b612b5d6040830185612b21565b612b6a60608301846128a2565b95945050505050565b612b7c81612a4f565b82525050565b5f602082019050612b955f830184612b73565b92915050565b5f612ba58261291d565b9050919050565b612bb581612b9b565b8114612bbf575f80fd5b50565b5f81359050612bd081612bac565b92915050565b5f60208284031215612beb57612bea612a1d565b5b5f612bf884828501612bc2565b91505092915050565b5f81519050919050565b5f5b83811015612c28578082015181840152602081019050612c0d565b5f8484015250505050565b5f601f19601f8301169050919050565b5f612c4d82612c01565b612c57818561282a565b9350612c67818560208601612c0b565b612c7081612c33565b840191505092915050565b5f6020820190508181035f830152612c938184612c43565b905092915050565b5f602082019050612cae5f830184612b21565b92915050565b5f80fd5b5f80fd5b5f80fd5b5f8083601f840112612cd557612cd4612cb4565b5b8235905067ffffffffffffffff811115612cf257612cf1612cb8565b5b602083019150836020820283011115612d0e57612d0d612cbc565b5b9250929050565b5f8060208385031215612d2b57612d2a612a1d565b5b5f83013567ffffffffffffffff811115612d4857612d47612a21565b5b612d5485828601612cc0565b92509250509250929050565b5f60a082019050612d735f8301886128a2565b612d806020830187612aee565b612d8d60408301866128a2565b612d9a6060830185612b21565b612da760808301846128a2565b9695505050505050565b612dba8161293c565b8114612dc4575f80fd5b50565b5f81359050612dd581612db1565b92915050565b5f60208284031215612df057612def612a1d565b5b5f612dfd84828501612dc7565b91505092915050565b5f604082019050612e195f8301856128a2565b612e2660208301846128a2565b9392505050565b5f8060408385031215612e4357612e42612a1d565b5b5f612e5085828601612a3b565b9250506020612e6185828601612a3b565b9150509250929050565b612e74816126af565b82525050565b612e8381612b16565b82525050565b60a082015f820151612e9d5f850182612e6b565b506020820151612eb0602085018261294d565b506040820151612ec36040850182612e6b565b506060820151612ed66060850182612e7a565b506080820151612ee96080850182612e6b565b50505050565b5f60a082019050612f025f830184612e89565b92915050565b7f636c61696d206661696c000000000000000000000000000000000000000000005f82015250565b5f612f3c600a8361282a565b9150612f4782612f08565b602082019050919050565b5f6020820190508181035f830152612f6981612f30565b9050919050565b5f81905092915050565b7f4149204c6f7474657279205632207c20526f756e6420230000000000000000005f82015250565b5f612fae601783612f70565b9150612fb982612f7a565b601782019050919050565b5f612fce82612c01565b612fd88185612f70565b9350612fe8818560208601612c0b565b80840191505092915050565b7f207c20506f6f6c3a2000000000000000000000000000000000000000000000005f82015250565b5f613028600983612f70565b915061303382612ff4565b600982019050919050565b7f2066696e6e6579000000000000000000000000000000000000000000000000005f82015250565b5f613072600783612f70565b915061307d8261303e565b600782019050919050565b7f207c2044726177733a20000000000000000000000000000000000000000000005f82015250565b5f6130bc600a83612f70565b91506130c782613088565b600a82019050919050565b5f6130dc82612fa2565b91506130e88286612fc4565b91506130f38261301c565b91506130ff8285612fc4565b915061310a82613066565b9150613115826130b0565b91506131218284612fc4565b9150819050949350505050565b7f312d352063616e646964617465730000000000000000000000000000000000005f82015250565b5f613162600e8361282a565b915061316d8261312e565b602082019050919050565b5f6020820190508181035f83015261318f81613156565b9050919050565b7f4e487b71000000000000000000000000000000000000000000000000000000005f52603260045260245ffd5b5f80fd5b7f4e487b71000000000000000000000000000000000000000000000000000000005f52604160045260245ffd5b6131fd82612c33565b810181811067ffffffffffffffff8211171561321c5761321b6131c7565b5b80604052505050565b5f61322e612a14565b905061323a82826131f4565b919050565b5f80fd5b5f80fd5b5f67ffffffffffffffff821115613261576132606131c7565b5b61326a82612c33565b9050602081019050919050565b5f61328961328484613247565b613225565b9050828152602081018484840111156132a5576132a4613243565b5b6132b0848285612c0b565b509392505050565b5f82601f8301126132cc576132cb612cb4565b5b81516132dc848260208601613277565b91505092915050565b5f815190506132f381612a25565b92915050565b61330281612b16565b811461330c575f80fd5b50565b5f8151905061331d816132f9565b92915050565b5f60608284031215613338576133376131c3565b5b6133426060613225565b90505f82015167ffffffffffffffff8111156133615761336061323f565b5b61336d848285016132b8565b5f830152506020613380848285016132e5565b60208301525060406133948482850161330f565b60408301525092915050565b5f602082840312156133b5576133b4612a1d565b5b5f82015167ffffffffffffffff8111156133d2576133d1612a21565b5b6133de84828501613323565b91505092915050565b7f696e73756666696369656e7420666f72206f7261636c652066656500000000005f82015250565b5f61341b601b8361282a565b9150613426826133e7565b602082019050919050565b5f6020820190508181035f8301526134488161340f565b9050919050565b5f6060820190506134625f8301866128a2565b81810360208301526134748185612c43565b90506134836040830184612b73565b949350505050565b5f602082840312156134a05761349f612a1d565b5b5f6134ad848285016132e5565b91505092915050565b7f62616420696400000000000000000000000000000000000000000000000000005f82015250565b5f6134ea60068361282a565b91506134f5826134b6565b602082019050919050565b5f6020820190508181035f830152613517816134de565b9050919050565b5f613528826126af565b91507fffffffffffffffffffffffffffffffffffffffffffffffffffffffffffffffff820361355a576135596126b8565b5b600182019050919050565b5f6040820190506135785f8301856128a2565b6135856020830184612b73565b9392505050565b5f613596826126af565b91506135a1836126af565b9250826135b1576135b0612726565b5b828206905092915050565b5f6135c6826126af565b91505f82036135d8576135d76126b8565b5b600182039050919050565b7f28000000000000000000000000000000000000000000000000000000000000005f82015250565b5f613617600183612f70565b9150613622826135e3565b600182019050919050565b7f29200000000000000000000000000000000000000000000000000000000000005f82015250565b5f613661600283612f70565b915061366c8261362d565b600282019050919050565b5f6136828287612fc4565b915061368d8261360b565b91506136998286612fc4565b91506136a482613655565b91506136b08285612fc4565b91506136bc8284612fc4565b915081905095945050505050565b7f596f752061726520746865204149204f7261636c6520666f72204149204c6f745f8201527f7465727920282441494c4f54292e200000000000000000000000000000000000602082015250565b5f613724602f83612f70565b915061372f826136ca565b602f82019050919050565b7f5069636b204f4e452077696e6e65722066726f6d20746865736520746f6b656e5f8201527f20686f6c646572732e2000000000000000000000000000000000000000000000602082015250565b5f613794602a83612f70565b915061379f8261373a565b602a82019050919050565b7f5072697a6520706f6f6c3a2000000000000000000000000000000000000000005f82015250565b5f6137de600c83612f70565b91506137e9826137aa565b600c82019050919050565b7f2066696e6e65792e2000000000000000000000000000000000000000000000005f82015250565b5f613828600983612f70565b9150613833826137f4565b600982019050919050565b7f526f756e643a20000000000000000000000000000000000000000000000000005f82015250565b5f613872600783612f70565b915061387d8261383e565b600782019050919050565b7f2e200000000000000000000000000000000000000000000000000000000000005f82015250565b5f6138bc600283612f70565b91506138c782613888565b600282019050919050565b7f43616e646964617465733a2000000000000000000000000000000000000000005f82015250565b5f613906600c83612f70565b9150613911826138d2565b600c82019050919050565b7f436f6e736964657220666169726e65737320616e642072616e646f6d6e6573735f8201527f2e205265706c792077697468204f4e4c5920746865206e756d6265722e000000602082015250565b5f613976603d83612f70565b91506139818261391c565b603d82019050919050565b5f61399682613718565b91506139a182613788565b91506139ac826137d2565b91506139b88286612fc4565b91506139c38261381c565b91506139ce82613866565b91506139da8285612fc4565b91506139e5826138b0565b91506139f0826138fa565b91506139fc8284612fc4565b9150613a07826138b0565b9150613a128261396a565b915081905094935050505056fea2646970667358221220bff1f362dc7b018644217ed2422a0301cabbdd30aa90bf715c59a737bab7857264736f6c63430008180033","linkReferences":{}},"methodIdentifiers":{"BPS()":"249d39e9","DEV_BPS()":"760690c4","MODEL_ID()":"d4567570","NUM_CHOICES()":"47eba740","POOL_BPS()":"6b548d6d","PRIZE_BPS()":"944d1210","RESERVE_BPS()":"e41dc9f8","candidates(uint256)":"3477ee2e","claim()":"4e71d92d","claimed()":"e834a834","cooldown()":"787a08a6","currentPool()":"692b69ae","currentPrize()":"c42b42a0","currentWinner()":"aabe2fe3","description()":"7284e416","dev()":"91cca3db","drawTimestamp()":"b914a219","emergencyWithdraw(address)":"6ff1c9bc","fulfillReasoning(uint256,uint8)":"1ba900eb","getCandidates()":"06a49fce","getCurrentRound()":"a32bf597","getEstimatedNextPrize()":"597e05cd","getHistory(uint256)":"c8691b2a","getHistoryLength()":"5478f468","getPendingPrize()":"364976ea","getPoolBalance()":"abd70aa2","history(uint256)":"a7a38f0b","isDrawPending()":"77d721bb","lastDrawTs()":"48917d5d","lastRequestId()":"fc2a88c3","manualDraw(address)":"aa70bb53","minBal()":"91b7655f","nextReserve()":"6c5939a9","onFlapAIRequestRefunded(uint256)":"5000d3e5","owner()":"8da5cb5b","requestDraw()":"a57848b6","round()":"146ca531","setCandidates(address[])":"9e658e91","setParams(uint256,uint256)":"c0324c77","totalDraws()":"137ef049","transferOwnership(address)":"f2fde38b"},"id":0}