{"abi":[{"type":"constructor","inputs":[{"name":"_minBal","type":"uint256","internalType":"uint256"},{"name":"_cooldown","type":"uint256","internalType":"uint256"}],"stateMutability":"nonpayable"},{"type":"receive","stateMutability":"payable"},{"type":"function","name":"BPS","inputs":[],"outputs":[{"name":"","type":"uint256","internalType":"uint256"}],"stateMutability":"view"},{"type":"function","name":"DEV_BPS","inputs":[],"outputs":[{"name":"","type":"uint256","internalType":"uint256"}],"stateMutability":"view"},{"type":"function","name":"MODEL_ID","inputs":[],"outputs":[{"name":"","type":"uint256","internalType":"uint256"}],"stateMutability":"view"},{"type":"function","name":"NUM_CHOICES","inputs":[],"outputs":[{"name":"","type":"uint8","internalType":"uint8"}],"stateMutability":"view"},{"type":"function","name":"POOL_BPS","inputs":[],"outputs":[{"name":"","type":"uint256","internalType":"uint256"}],"stateMutability":"view"},{"type":"function","name":"PRIZE_BPS","inputs":[],"outputs":[{"name":"","type":"uint256","internalType":"uint256"}],"stateMutability":"view"},{"type":"function","name":"RESERVE_BPS","inputs":[],"outputs":[{"name":"","type":"uint256","internalType":"uint256"}],"stateMutability":"view"},{"type":"function","name":"candidates","inputs":[{"name":"","type":"uint256","internalType":"uint256"}],"outputs":[{"name":"","type":"address","internalType":"address"}],"stateMutability":"view"},{"type":"function","name":"claim","inputs":[],"outputs":[],"stateMutability":"nonpayable"},{"type":"function","name":"claimed","inputs":[],"outputs":[{"name":"","type":"bool","internalType":"bool"}],"stateMutability":"view"},{"type":"function","name":"cooldown","inputs":[],"outputs":[{"name":"","type":"uint256","internalType":"uint256"}],"stateMutability":"view"},{"type":"function","name":"currentPool","inputs":[],"outputs":[{"name":"","type":"uint256","internalType":"uint256"}],"stateMutability":"view"},{"type":"function","name":"currentPrize","inputs":[],"outputs":[{"name":"","type":"uint256","internalType":"uint256"}],"stateMutability":"view"},{"type":"function","name":"currentWinner","inputs":[],"outputs":[{"name":"","type":"address","internalType":"address"}],"stateMutability":"view"},{"type":"function","name":"description","inputs":[],"outputs":[{"name":"","type":"string","internalType":"string"}],"stateMutability":"view"},{"type":"function","name":"dev","inputs":[],"outputs":[{"name":"","type":"address","internalType":"address"}],"stateMutability":"view"},{"type":"function","name":"drawTimestamp","inputs":[],"outputs":[{"name":"","type":"uint256","internalType":"uint256"}],"stateMutability":"view"},{"type":"function","name":"emergencyWithdraw","inputs":[{"name":"to","type":"address","internalType":"address payable"}],"outputs":[],"stateMutability":"nonpayable"},{"type":"function","name":"fulfillReasoning","inputs":[{"name":"requestId","type":"uint256","internalType":"uint256"},{"name":"choice","type":"uint8","internalType":"uint8"}],"outputs":[],"stateMutability":"nonpayable"},{"type":"function","name":"getCandidates","inputs":[],"outputs":[{"name":"","type":"address[]","internalType":"address[]"}],"stateMutability":"view"},{"type":"function","name":"getCurrentRound","inputs":[],"outputs":[{"name":"","type":"uint256","internalType":"uint256"}],"stateMutability":"view"},{"type":"function","name":"getEstimatedNextPrize","inputs":[],"outputs":[{"name":"","type":"uint256","internalType":"uint256"}],"stateMutability":"view"},{"type":"function","name":"getHistory","inputs":[{"name":"idx","type":"uint256","internalType":"uint256"}],"outputs":[{"name":"","type":"tuple","internalType":"struct AILotteryVaultV2.DrawRecord","components":[{"name":"round","type":"uint256","internalType":"uint256"},{"name":"winner","type":"address","internalType":"address"},{"name":"prize","type":"uint256","internalType":"uint256"},{"name":"claimed","type":"bool","internalType":"bool"},{"name":"timestamp","type":"uint256","internalType":"uint256"}]}],"stateMutability":"view"},{"type":"function","name":"getHistoryLength","inputs":[],"outputs":[{"name":"","type":"uint256","internalType":"uint256"}],"stateMutability":"view"},{"type":"function","name":"getPendingPrize","inputs":[],"outputs":[{"name":"","type":"address","internalType":"address"},{"name":"","type":"uint256","internalType":"uint256"},{"name":"","type":"bool","internalType":"bool"},{"name":"","type":"uint256","internalType":"uint256"}],"stateMutability":"view"},{"type":"function","name":"getPoolBalance","inputs":[],"outputs":[{"name":"","type":"uint256","internalType":"uint256"},{"name":"","type":"uint256","internalType":"uint256"}],"stateMutability":"view"},{"type":"function","name":"history","inputs":[{"name":"","type":"uint256","internalType":"uint256"}],"outputs":[{"name":"round","type":"uint256","internalType":"uint256"},{"name":"winner","type":"address","internalType":"address"},{"name":"prize","type":"uint256","internalType":"uint256"},{"name":"claimed","type":"bool","internalType":"bool"},{"name":"timestamp","type":"uint256","internalType":"uint256"}],"stateMutability":"view"},{"type":"function","name":"isDrawPending","inputs":[],"outputs":[{"name":"","type":"bool","internalType":"bool"}],"stateMutability":"view"},{"type":"function","name":"lastDrawTs","inputs":[],"outputs":[{"name":"","type":"uint256","internalType":"uint256"}],"stateMutability":"view"},{"type":"function","name":"lastRequestId","inputs":[],"outputs":[{"name":"","type":"uint256","internalType":"uint256"}],"stateMutability":"view"},{"type":"function","name":"manualDraw","inputs":[{"name":"winner","type":"address","internalType":"address"}],"outputs":[],"stateMutability":"nonpayable"},{"type":"function","name":"minBal","inputs":[],"outputs":[{"name":"","type":"uint256","internalType":"uint256"}],"stateMutability":"view"},{"type":"function","name":"nextReserve","inputs":[],"outputs":[{"name":"","type":"uint256","internalType":"uint256"}],"stateMutability":"view"},{"type":"function","name":"onFlapAIRequestRefunded","inputs":[{"name":"requestId","type":"uint256","internalType":"uint256"}],"outputs":[],"stateMutability":"payable"},{"type":"function","name":"owner","inputs":[],"outputs":[{"name":"","type":"address","internalType":"address"}],"stateMutability":"view"},{"type":"function","name":"requestDraw","inputs":[],"outputs":[],"stateMutability":"nonpayable"},{"type":"function","name":"round","inputs":[],"outputs":[{"name":"","type":"uint256","internalType":"uint256"}],"stateMutability":"view"},{"type":"function","name":"setCandidates","inputs":[{"name":"_candidates","type":"address[]","internalType":"address[]"}],"outputs":[],"stateMutability":"nonpayable"},{"type":"function","name":"setParams","inputs":[{"name":"_min","type":"uint256","internalType":"uint256"},{"name":"_cd","type":"uint256","internalType":"uint256"}],"outputs":[],"stateMutability":"nonpayable"},{"type":"function","name":"totalDraws","inputs":[],"outputs":[{"name":"","type":"uint256","internalType":"uint256"}],"stateMutability":"view"},{"type":"function","name":"transferOwnership","inputs":[{"name":"o","type":"address","internalType":"address"}],"outputs":[],"stateMutability":"nonpayable"},{"type":"event","name":"DrawFulfilled","inputs":[{"name":"requestId","type":"uint256","indexed":false,"internalType":"uint256"},{"name":"choiceIndex","type":"uint8","indexed":false,"internalType":"uint8"}],"anonymous":false},{"type":"event","name":"DrawRefunded","inputs":[{"name":"requestId","type":"uint256","indexed":false,"internalType":"uint256"}],"anonymous":false},{"type":"event","name":"DrawRequested","inputs":[{"name":"requestId","type":"uint256","indexed":false,"internalType":"uint256"},{"name":"numCandidates","type":"uint256","indexed":false,"internalType":"uint256"}],"anonymous":false},{"type":"event","name":"PrizeClaimed","inputs":[{"name":"round","type":"uint256","indexed":true,"internalType":"uint256"},{"name":"winner","type":"address","indexed":true,"internalType":"address"},{"name":"prize","type":"uint256","indexed":false,"internalType":"uint256"}],"anonymous":false},{"type":"event","name":"PrizeExpired","inputs":[{"name":"round","type":"uint256","indexed":true,"internalType":"uint256"},{"name":"winner","type":"address","indexed":true,"internalType":"address"},{"name":"prize","type":"uint256","indexed":false,"internalType":"uint256"}],"anonymous":false},{"type":"event","name":"TaxReceived","inputs":[{"name":"amount","type":"uint256","indexed":false,"internalType":"uint256"},{"name":"toPool","type":"uint256","indexed":false,"internalType":"uint256"},{"name":"toReserve","type":"uint256","indexed":false,"internalType":"uint256"},{"name":"toDev","type":"uint256","indexed":false,"internalType":"uint256"}],"anonymous":false},{"type":"event","name":"WinnerDrawn","inputs":[{"name":"round","type":"uint256","indexed":true,"internalType":"uint256"},{"name":"winner","type":"address","indexed":true,"internalType":"address"},{"name":"prize","type":"uint256","indexed":false,"internalType":"uint256"}],"anonymous":false},{"type":"error","name":"AlreadyClaimed","inputs":[]},{"type":"error","name":"DrawPending","inputs":[]},{"type":"error","name":"FlapAIConsumerOnlyProvider","inputs":[]},{"type":"error","name":"FlapAIConsumerUnsupportedChain","inputs":[{"name":"chainId","type":"uint256","internalType":"uint256"}]},{"type":"error","name":"NoCandidates","inputs":[]},{"type":"error","name":"NoPendingPrize","inputs":[]},{"type":"error","name":"NotOwner","inputs":[]},{"type":"error","name":"NotWinner","inputs":[]},{"type":"error","name":"UnsupportedChain","inputs":[{"name":"chainId","type":"uint256","internalType":"uint256"}]}],"bytecode":{"object":"0x60a060405234801562000010575f80fd5b5060405162003d1338038062003d138339818101604052810190620000369190620000fb565b3373ffffffffffffffffffffffffffffffffffffffff1660808173ffffffffffffffffffffffffffffffffffffffff1681525050335f806101000a81548173ffffffffffffffffffffffffffffffffffffffff021916908373ffffffffffffffffffffffffffffffffffffffff1602179055508160018190555080600281905550505062000140565b5f80fd5b5f819050919050565b620000d781620000c3565b8114620000e2575f80fd5b50565b5f81519050620000f581620000cc565b92915050565b5f8060408385031215620001145762000113620000bf565b5b5f6200012385828601620000e5565b92505060206200013685828601620000e5565b9150509250929050565b608051613bb3620001605f395f81816102db01526111490152613bb35ff3fe608060405260043610610249575f3560e01c8063787a08a611610138578063aabe2fe3116100b5578063c8691b2a11610079578063c8691b2a1461098d578063d4567570146109c9578063e41dc9f8146109f3578063e834a83414610a1d578063f2fde38b14610a47578063fc2a88c314610a6f576103df565b8063aabe2fe3146108bc578063abd70aa2146108e6578063b914a21914610911578063c0324c771461093b578063c42b42a014610963576103df565b80639e658e91116100fc5780639e658e91146107ec578063a32bf59714610814578063a57848b61461083e578063a7a38f0b14610854578063aa70bb5314610894576103df565b8063787a08a61461071a5780638da5cb5b1461074457806391b7655f1461076e57806391cca3db14610798578063944d1210146107c2576103df565b80635000d3e5116101c65780636c5939a91161018a5780636c5939a91461064a5780636ff1c9bc146106745780637284e4161461069c578063760690c4146106c657806377d721bb146106f0576103df565b80635000d3e5146105865780635478f468146105a2578063597e05cd146105cc578063692b69ae146105f65780636b548d6d14610620576103df565b80633477ee2e1161020d5780633477ee2e146104b3578063364976ea146104ef57806347eba7401461051c57806348917d5d146105465780634e71d92d14610570576103df565b806306a49fce146103e3578063137ef0491461040d578063146ca531146104375780631ba900eb14610461578063249d39e914610489576103df565b366103df575f3490505f612710611388836102649190612843565b61026e91906128b1565b90505f612710610fa0846102829190612843565b61028c91906128b1565b90505f81838561029c91906128e1565b6102a691906128e1565b90508260035f8282546102b99190612914565b925050819055508160045f8282546102d19190612914565b925050819055505f7f000000000000000000000000000000000000000000000000000000000000000073ffffffffffffffffffffffffffffffffffffffff168260405161031d90612974565b5f6040518083038185875af1925050503d805f8114610357576040519150601f19603f3d011682016040523d82523d5f602084013e61035c565b606091505b50509050806103a0576040517f08c379a0000000000000000000000000000000000000000000000000000000008152600401610397906129e2565b60405180910390fd5b7f27e35f3446b07a0965e3c79578ecf494de3d3fcb81c9b93195588ce7e8ebc156858585856040516103d59493929190612a0f565b60405180910390a1005b5f80fd5b3480156103ee575f80fd5b506103f7610a99565b6040516104049190612b39565b60405180910390f35b348015610418575f80fd5b50610421610b24565b60405161042e9190612b59565b60405180910390f35b348015610442575f80fd5b5061044b610b2a565b6040516104589190612b59565b60405180910390f35b34801561046c575f80fd5b5061048760048036038101906104829190612be3565b610b30565b005b348015610494575f80fd5b5061049d610baa565b6040516104aa9190612b59565b60405180910390f35b3480156104be575f80fd5b506104d960048036038101906104d49190612c21565b610bb0565b6040516104e69190612c5b565b60405180910390f35b3480156104fa575f80fd5b50610503610beb565b6040516105139493929190612c8e565b60405180910390f35b348015610527575f80fd5b50610530610c34565b60405161053d9190612ce0565b60405180910390f35b348015610551575f80fd5b5061055a610c39565b6040516105679190612b59565b60405180910390f35b34801561057b575f80fd5b50610584610c3f565b005b6105a0600480360381019061059b9190612c21565b610eab565b005b3480156105ad575f80fd5b506105b6610f23565b6040516105c39190612b59565b60405180910390f35b3480156105d7575f80fd5b506105e0610f2f565b6040516105ed9190612b59565b60405180910390f35b348015610601575f80fd5b5061060a610f5f565b6040516106179190612b59565b60405180910390f35b34801561062b575f80fd5b50610634610f65565b6040516106419190612b59565b60405180910390f35b348015610655575f80fd5b5061065e610f6b565b60405161066b9190612b59565b60405180910390f35b34801561067f575f80fd5b5061069a60048036038101906106959190612d34565b610f71565b005b3480156106a7575f80fd5b506106b06110ab565b6040516106bd9190612dd9565b60405180910390f35b3480156106d1575f80fd5b506106da611106565b6040516106e79190612b59565b60405180910390f35b3480156106fb575f80fd5b5061070461110c565b6040516107119190612df9565b60405180910390f35b348015610725575f80fd5b5061072e611118565b60405161073b9190612b59565b60405180910390f35b34801561074f575f80fd5b5061075861111e565b6040516107659190612c5b565b60405180910390f35b348015610779575f80fd5b50610782611141565b60405161078f9190612b59565b60405180910390f35b3480156107a3575f80fd5b506107ac611147565b6040516107b99190612c5b565b60405180910390f35b3480156107cd575f80fd5b506107d661116b565b6040516107e39190612b59565b60405180910390f35b3480156107f7575f80fd5b50610812600480360381019061080d9190612e73565b611171565b005b34801561081f575f80fd5b5061082861133e565b6040516108359190612b59565b60405180910390f35b348015610849575f80fd5b50610852611347565b005b34801561085f575f80fd5b5061087a60048036038101906108759190612c21565b611636565b60405161088b959493929190612ebe565b60405180910390f35b34801561089f575f80fd5b506108ba60048036038101906108b59190612f39565b6116a2565b005b3480156108c7575f80fd5b506108d06117ae565b6040516108dd9190612c5b565b60405180910390f35b3480156108f1575f80fd5b506108fa6117d3565b604051610908929190612f64565b60405180910390f35b34801561091c575f80fd5b506109256117e3565b6040516109329190612b59565b60405180910390f35b348015610946575f80fd5b50610961600480360381019061095c9190612f8b565b6117e9565b005b34801561096e575f80fd5b506109776118c0565b6040516109849190612b59565b60405180910390f35b348015610998575f80fd5b506109b360048036038101906109ae9190612c21565b6118c6565b6040516109c0919061304d565b60405180910390f35b3480156109d4575f80fd5b506109dd61198c565b6040516109ea9190612b59565b60405180910390f35b3480156109fe575f80fd5b50610a07611990565b604051610a149190612b59565b60405180910390f35b348015610a28575f80fd5b50610a31611996565b604051610a3e9190612df9565b60405180910390f35b348015610a52575f80fd5b50610a6d6004803603810190610a689190612f39565b6119a8565b005b348015610a7a575f80fd5b50610a83611ae6565b604051610a909190612b59565b60405180910390f35b6060600d805480602002602001604051908101604052809291908181526020018280548015610b1a57602002820191905f5260205f20905b815f9054906101000a900473ffffffffffffffffffffffffffffffffffffffff1673ffffffffffffffffffffffffffffffffffffffff1681526020019060010190808311610ad1575b5050505050905090565b600c5481565b60055481565b610b38611aef565b73ffffffffffffffffffffffffffffffffffffffff163373ffffffffffffffffffffffffffffffffffffffff1614610b9c576040517ffe5546e600000000000000000000000000000000000000000000000000000000815260040160405180910390fd5b610ba68282611b7e565b5050565b61271081565b600d8181548110610bbf575f80fd5b905f5260205f20015f915054906101000a900473ffffffffffffffffffffffffffffffffffffffff1681565b5f805f8060065f9054906101000a900473ffffffffffffffffffffffffffffffffffffffff1660075460095f9054906101000a900460ff16600854935093509350935090919293565b600581565b600b5481565b5f73ffffffffffffffffffffffffffffffffffffffff1660065f9054906101000a900473ffffffffffffffffffffffffffffffffffffffff1673ffffffffffffffffffffffffffffffffffffffff1603610cc5576040517f0553400200000000000000000000000000000000000000000000000000000000815260040160405180910390fd5b60065f9054906101000a900473ffffffffffffffffffffffffffffffffffffffff1673ffffffffffffffffffffffffffffffffffffffff163373ffffffffffffffffffffffffffffffffffffffff1614610d4b576040517f618c724200000000000000000000000000000000000000000000000000000000815260040160405180910390fd5b60095f9054906101000a900460ff1615610d91576040517f646cf55800000000000000000000000000000000000000000000000000000000815260040160405180910390fd5b600160095f6101000a81548160ff0219169083151502179055505f3373ffffffffffffffffffffffffffffffffffffffff16600754604051610dd290612974565b5f6040518083038185875af1925050503d805f8114610e0c576040519150601f19603f3d011682016040523d82523d5f602084013e610e11565b606091505b5050905080610e55576040517f08c379a0000000000000000000000000000000000000000000000000000000008152600401610e4c906130b0565b60405180910390fd5b3373ffffffffffffffffffffffffffffffffffffffff166005547f4aa95f981a8337cb337de335b965507da0879c3b49f799d20058e913f5ad2c26600754604051610ea09190612b59565b60405180910390a350565b610eb3611aef565b73ffffffffffffffffffffffffffffffffffffffff163373ffffffffffffffffffffffffffffffffffffffff1614610f17576040517ffe5546e600000000000000000000000000000000000000000000000000000000815260040160405180910390fd5b610f2081611c7e565b50565b5f600e80549050905090565b5f612710611770600454600354610f469190612914565b610f509190612843565b610f5a91906128b1565b905090565b60035481565b61138881565b60045481565b5f8054906101000a900473ffffffffffffffffffffffffffffffffffffffff1673ffffffffffffffffffffffffffffffffffffffff163373ffffffffffffffffffffffffffffffffffffffff1614158015610fff5750610fcf611d03565b73ffffffffffffffffffffffffffffffffffffffff163373ffffffffffffffffffffffffffffffffffffffff1614155b15611036576040517f30cd747100000000000000000000000000000000000000000000000000000000815260040160405180910390fd5b5f8173ffffffffffffffffffffffffffffffffffffffff164760405161105b90612974565b5f6040518083038185875af1925050503d805f8114611095576040519150601f19603f3d011682016040523d82523d5f602084013e61109a565b606091505b50509050806110a7575f80fd5b5050565b60606110b8600554611d92565b6110d566038d7ea4c680006003546110d091906128b1565b611d92565b6110e0600c54611d92565b6040516020016110f293929190613230565b604051602081830303815290604052905090565b6103e881565b5f80600a541415905090565b60025481565b5f8054906101000a900473ffffffffffffffffffffffffffffffffffffffff1681565b60015481565b7f000000000000000000000000000000000000000000000000000000000000000081565b61177081565b5f8054906101000a900473ffffffffffffffffffffffffffffffffffffffff1673ffffffffffffffffffffffffffffffffffffffff163373ffffffffffffffffffffffffffffffffffffffff16141580156111ff57506111cf611d03565b73ffffffffffffffffffffffffffffffffffffffff163373ffffffffffffffffffffffffffffffffffffffff1614155b15611236576040517f30cd747100000000000000000000000000000000000000000000000000000000815260040160405180910390fd5b5f8282905011801561124c575060058282905011155b61128b576040517f08c379a0000000000000000000000000000000000000000000000000000000008152600401611282906132d6565b60405180910390fd5b600d5f6112989190612792565b5f5b8282905081101561133957600d8383838181106112ba576112b96132f4565b5b90506020020160208101906112cf9190612f39565b908060018154018082558091505060019003905f5260205f20015f9091909190916101000a81548173ffffffffffffffffffffffffffffffffffffffff021916908373ffffffffffffffffffffffffffffffffffffffff160217905550808060010191505061129a565b505050565b5f600554905090565b5f8054906101000a900473ffffffffffffffffffffffffffffffffffffffff1673ffffffffffffffffffffffffffffffffffffffff163373ffffffffffffffffffffffffffffffffffffffff16141580156113d557506113a5611d03565b73ffffffffffffffffffffffffffffffffffffffff163373ffffffffffffffffffffffffffffffffffffffff1614155b1561140c576040517f30cd747100000000000000000000000000000000000000000000000000000000815260040160405180910390fd5b5f600a5414611447576040517fa2f59dfe00000000000000000000000000000000000000000000000000000000815260040160405180910390fd5b5f600d8054905003611485576040517fe504190400000000000000000000000000000000000000000000000000000000815260040160405180910390fd5b5f61148e611aef565b90505f8173ffffffffffffffffffffffffffffffffffffffff16636d3616945f6040518263ffffffff1660e01b81526004016114ca9190612b59565b5f60405180830381865afa1580156114e4573d5f803e3d5ffd5b505050506040513d5f823e3d601f19601f8201168201806040525081019061150c91906134fe565b60200151905080471015611555576040517f08c379a000000000000000000000000000000000000000000000000000000000815260040161154c9061358f565b60405180910390fd5b5f600d8054905090508273ffffffffffffffffffffffffffffffffffffffff16638c9ab78a835f611584611ee8565b856040518563ffffffff1660e01b81526004016115a3939291906135ad565b60206040518083038185885af11580156115bf573d5f803e3d5ffd5b50505050506040513d601f19601f820116820180604052508101906115e491906135e9565b600a8190555042600b819055507fa87d18931b669b94d135986745ba30491257a77c255767cdd6796f697c1172f1600a54600d80549050604051611629929190612f64565b60405180910390a1505050565b600e8181548110611645575f80fd5b905f5260205f2090600502015f91509050805f015490806001015f9054906101000a900473ffffffffffffffffffffffffffffffffffffffff1690806002015490806003015f9054906101000a900460ff16908060040154905085565b5f8054906101000a900473ffffffffffffffffffffffffffffffffffffffff1673ffffffffffffffffffffffffffffffffffffffff163373ffffffffffffffffffffffffffffffffffffffff16141580156117305750611700611d03565b73ffffffffffffffffffffffffffffffffffffffff163373ffffffffffffffffffffffffffffffffffffffff1614155b15611767576040517f30cd747100000000000000000000000000000000000000000000000000000000815260040160405180910390fd5b5f600a54146117a2576040517fa2f59dfe00000000000000000000000000000000000000000000000000000000815260040160405180910390fd5b6117ab8161204a565b50565b60065f9054906101000a900473ffffffffffffffffffffffffffffffffffffffff1681565b5f80600354600454915091509091565b60085481565b5f8054906101000a900473ffffffffffffffffffffffffffffffffffffffff1673ffffffffffffffffffffffffffffffffffffffff163373ffffffffffffffffffffffffffffffffffffffff16141580156118775750611847611d03565b73ffffffffffffffffffffffffffffffffffffffff163373ffffffffffffffffffffffffffffffffffffffff1614155b156118ae576040517f30cd747100000000000000000000000000000000000000000000000000000000815260040160405180910390fd5b81600181905550806002819055505050565b60075481565b6118ce6127b0565b600e82815481106118e2576118e16132f4565b5b905f5260205f2090600502016040518060a00160405290815f8201548152602001600182015f9054906101000a900473ffffffffffffffffffffffffffffffffffffffff1673ffffffffffffffffffffffffffffffffffffffff1673ffffffffffffffffffffffffffffffffffffffff16815260200160028201548152602001600382015f9054906101000a900460ff161515151581526020016004820154815250509050919050565b5f81565b610fa081565b60095f9054906101000a900460ff1681565b5f8054906101000a900473ffffffffffffffffffffffffffffffffffffffff1673ffffffffffffffffffffffffffffffffffffffff163373ffffffffffffffffffffffffffffffffffffffff1614158015611a365750611a06611d03565b73ffffffffffffffffffffffffffffffffffffffff163373ffffffffffffffffffffffffffffffffffffffff1614155b15611a6d576040517f30cd747100000000000000000000000000000000000000000000000000000000815260040160405180910390fd5b5f73ffffffffffffffffffffffffffffffffffffffff168173ffffffffffffffffffffffffffffffffffffffff1603611aa4575f80fd5b805f806101000a81548173ffffffffffffffffffffffffffffffffffffffff021916908373ffffffffffffffffffffffffffffffffffffffff16021790555050565b5f600a54905090565b5f8046905060388103611b195773aee3a7ca6fe6b53f6c32a3e8407ec5a9df8b7e39915050611b7b565b60618103611b3e5773fbee0a1c921f6f4dadfadd102b8276175d1b518d915050611b7b565b806040517fb9ae4074000000000000000000000000000000000000000000000000000000008152600401611b729190612b59565b60405180910390fd5b90565b600a548214611bc2576040517f08c379a0000000000000000000000000000000000000000000000000000000008152600401611bb99061365e565b60405180910390fd5b5f600a81905550600c5f815480929190611bdb9061367c565b91905055507f8cee49ea2642227734a1de818ddd0d9ce7c23c5c8e039c02b9082a40a6116c3f8282604051611c119291906136c3565b60405180910390a15f8160ff169050600d805490508110611c30575f90505b5f600d8281548110611c4557611c446132f4565b5b905f5260205f20015f9054906101000a900473ffffffffffffffffffffffffffffffffffffffff169050611c788161204a565b50505050565b600a548114611cc2576040517f08c379a0000000000000000000000000000000000000000000000000000000008152600401611cb99061365e565b60405180910390fd5b5f600a819055507ff581f203b4a117fd6d5a2d39de48e3a92c042e4fd81cf4b5672f17eb627a307981604051611cf89190612b59565b60405180910390a150565b5f8046905060388103611d2d57739e27098dcd8844bcc6287a557e0b4d09c86b8a4b915050611d8f565b60618103611d52577376fa8c526f8bc27ba6958b76deef92a0dbe46950915050611d8f565b806040517fc3a55c98000000000000000000000000000000000000000000000000000000008152600401611d869190612b59565b60405180910390fd5b90565b60605f8203611dd8576040518060400160405280600181526020017f30000000000000000000000000000000000000000000000000000000000000008152509050611ee3565b5f8290505f5b5f8214611e07578080611df09061367c565b915050600a82611e0091906128b1565b9150611dde565b5f8167ffffffffffffffff811115611e2257611e21613325565b5b6040519080825280601f01601f191660200182016040528015611e545781602001600182028036833780820191505090505b5090505b5f8514611edc57600a85611e6c91906136ea565b6030611e789190612914565b60f81b8183611e869061371a565b93508381518110611e9a57611e996132f4565b5b60200101907effffffffffffffffffffffffffffffffffffffffffffffffffffffffffffff191690815f1a905350600a85611ed591906128b1565b9450611e58565b8093505050505b919050565b60605f60405180602001604052805f81525090505f5b600d80549050811015611fed5781611f1582611d92565b611f59600d8481548110611f2c57611f2b6132f4565b5b905f5260205f20015f9054906101000a900473ffffffffffffffffffffffffffffffffffffffff16612509565b6001600d80549050611f6b91906128e1565b8410611f855760405180602001604052805f815250611fbc565b6040518060400160405280600181526020017f20000000000000000000000000000000000000000000000000000000000000008152505b604051602001611fcf94939291906137d5565b60405160208183030381529060405291508080600101915050611efe565b5061200b66038d7ea4c6800060035461200691906128b1565b611d92565b612022600160055461201d9190612914565b611d92565b8260405160200161203593929190613aea565b60405160208183030381529060405291505090565b5f73ffffffffffffffffffffffffffffffffffffffff1660065f9054906101000a900473ffffffffffffffffffffffffffffffffffffffff1673ffffffffffffffffffffffffffffffffffffffff16141580156120b3575060095f9054906101000a900460ff16155b1561225c5760075460035f8282546120cb9190612914565b92505081905550600e6040518060a00160405280600554815260200160065f9054906101000a900473ffffffffffffffffffffffffffffffffffffffff1673ffffffffffffffffffffffffffffffffffffffff16815260200160075481526020015f15158152602001600854815250908060018154018082558091505060019003905f5260205f2090600502015f909190919091505f820151815f01556020820151816001015f6101000a81548173ffffffffffffffffffffffffffffffffffffffff021916908373ffffffffffffffffffffffffffffffffffffffff160217905550604082015181600201556060820151816003015f6101000a81548160ff02191690831515021790555060808201518160040155505060065f9054906101000a900473ffffffffffffffffffffffffffffffffffffffff1673ffffffffffffffffffffffffffffffffffffffff166005547ffd2195580a44eacf25019abee25eba02b7abeade2b38cc1409421b3c88818a9b60075460405161224f9190612b59565b60405180910390a36123dd565b5f73ffffffffffffffffffffffffffffffffffffffff1660065f9054906101000a900473ffffffffffffffffffffffffffffffffffffffff1673ffffffffffffffffffffffffffffffffffffffff16141580156122c4575060095f9054906101000a900460ff165b156123dc57600e6040518060a00160405280600554815260200160065f9054906101000a900473ffffffffffffffffffffffffffffffffffffffff1673ffffffffffffffffffffffffffffffffffffffff1681526020016007548152602001600115158152602001600854815250908060018154018082558091505060019003905f5260205f2090600502015f909190919091505f820151815f01556020820151816001015f6101000a81548173ffffffffffffffffffffffffffffffffffffffff021916908373ffffffffffffffffffffffffffffffffffffffff160217905550604082015181600201556060820151816003015f6101000a81548160ff0219169083151502179055506080820151816004015550505b5b60045460035f8282546123f09190612914565b925050819055505f60048190555060055f8154809291906124109061367c565b91905055505f6127106117706003546124299190612843565b61243391906128b1565b90508060035f82825461244691906128e1565b925050819055508160065f6101000a81548173ffffffffffffffffffffffffffffffffffffffff021916908373ffffffffffffffffffffffffffffffffffffffff16021790555080600781905550426008819055505f60095f6101000a81548160ff0219169083151502179055508173ffffffffffffffffffffffffffffffffffffffff166005547f9c1e776cbdf221420917b223eb09503e61c8e990a1c09065cbf15bdff06a555e836040516124fd9190612b59565b60405180910390a35050565b60605f7f303132333435363738396162636465660000000000000000000000000000000090505f602a67ffffffffffffffff81111561254b5761254a613325565b5b6040519080825280601f01601f19166020018201604052801561257d5781602001600182028036833780820191505090505b5090507f3000000000000000000000000000000000000000000000000000000000000000815f815181106125b4576125b36132f4565b5b60200101907effffffffffffffffffffffffffffffffffffffffffffffffffffffffffffff191690815f1a9053507f780000000000000000000000000000000000000000000000000000000000000081600181518110612617576126166132f4565b5b60200101907effffffffffffffffffffffffffffffffffffffffffffffffffffffffffffff191690815f1a9053505f8460601b90505f5b60148110156127865783600483836014811061266d5761266c6132f4565b5b1a60f81b60f81c60ff16901c60ff166010811061268d5761268c6132f4565b5b1a60f81b8360028361269f9190612843565b60026126ab9190612914565b815181106126bc576126bb6132f4565b5b60200101907effffffffffffffffffffffffffffffffffffffffffffffffffffffffffffff191690815f1a90535083600f838360148110612700576126ff6132f4565b5b1a60f81b60f81c1660ff166010811061271c5761271b6132f4565b5b1a60f81b8360028361272e9190612843565b600361273a9190612914565b8151811061274b5761274a6132f4565b5b60200101907effffffffffffffffffffffffffffffffffffffffffffffffffffffffffffff191690815f1a905350808060010191505061264e565b50819350505050919050565b5080545f8255905f5260205f20908101906127ad91906127f2565b50565b6040518060a001604052805f81526020015f73ffffffffffffffffffffffffffffffffffffffff1681526020015f81526020015f151581526020015f81525090565b5b80821115612809575f815f9055506001016127f3565b5090565b5f819050919050565b7f4e487b71000000000000000000000000000000000000000000000000000000005f52601160045260245ffd5b5f61284d8261280d565b91506128588361280d565b92508282026128668161280d565b9150828204841483151761287d5761287c612816565b5b5092915050565b7f4e487b71000000000000000000000000000000000000000000000000000000005f52601260045260245ffd5b5f6128bb8261280d565b91506128c68361280d565b9250826128d6576128d5612884565b5b828204905092915050565b5f6128eb8261280d565b91506128f68361280d565b925082820390508181111561290e5761290d612816565b5b92915050565b5f61291e8261280d565b91506129298361280d565b925082820190508082111561294157612940612816565b5b92915050565b5f81905092915050565b50565b5f61295f5f83612947565b915061296a82612951565b5f82019050919050565b5f61297e82612954565b9150819050919050565b5f82825260208201905092915050565b7f6465762078666572206661696c000000000000000000000000000000000000005f82015250565b5f6129cc600d83612988565b91506129d782612998565b602082019050919050565b5f6020820190508181035f8301526129f9816129c0565b9050919050565b612a098161280d565b82525050565b5f608082019050612a225f830187612a00565b612a2f6020830186612a00565b612a3c6040830185612a00565b612a496060830184612a00565b95945050505050565b5f81519050919050565b5f82825260208201905092915050565b5f819050602082019050919050565b5f73ffffffffffffffffffffffffffffffffffffffff82169050919050565b5f612aa482612a7b565b9050919050565b612ab481612a9a565b82525050565b5f612ac58383612aab565b60208301905092915050565b5f602082019050919050565b5f612ae782612a52565b612af18185612a5c565b9350612afc83612a6c565b805f5b83811015612b2c578151612b138882612aba565b9750612b1e83612ad1565b925050600181019050612aff565b5085935050505092915050565b5f6020820190508181035f830152612b518184612add565b905092915050565b5f602082019050612b6c5f830184612a00565b92915050565b5f604051905090565b5f80fd5b5f80fd5b612b8c8161280d565b8114612b96575f80fd5b50565b5f81359050612ba781612b83565b92915050565b5f60ff82169050919050565b612bc281612bad565b8114612bcc575f80fd5b50565b5f81359050612bdd81612bb9565b92915050565b5f8060408385031215612bf957612bf8612b7b565b5b5f612c0685828601612b99565b9250506020612c1785828601612bcf565b9150509250929050565b5f60208284031215612c3657612c35612b7b565b5b5f612c4384828501612b99565b91505092915050565b612c5581612a9a565b82525050565b5f602082019050612c6e5f830184612c4c565b92915050565b5f8115159050919050565b612c8881612c74565b82525050565b5f608082019050612ca15f830187612c4c565b612cae6020830186612a00565b612cbb6040830185612c7f565b612cc86060830184612a00565b95945050505050565b612cda81612bad565b82525050565b5f602082019050612cf35f830184612cd1565b92915050565b5f612d0382612a7b565b9050919050565b612d1381612cf9565b8114612d1d575f80fd5b50565b5f81359050612d2e81612d0a565b92915050565b5f60208284031215612d4957612d48612b7b565b5b5f612d5684828501612d20565b91505092915050565b5f81519050919050565b5f5b83811015612d86578082015181840152602081019050612d6b565b5f8484015250505050565b5f601f19601f8301169050919050565b5f612dab82612d5f565b612db58185612988565b9350612dc5818560208601612d69565b612dce81612d91565b840191505092915050565b5f6020820190508181035f830152612df18184612da1565b905092915050565b5f602082019050612e0c5f830184612c7f565b92915050565b5f80fd5b5f80fd5b5f80fd5b5f8083601f840112612e3357612e32612e12565b5b8235905067ffffffffffffffff811115612e5057612e4f612e16565b5b602083019150836020820283011115612e6c57612e6b612e1a565b5b9250929050565b5f8060208385031215612e8957612e88612b7b565b5b5f83013567ffffffffffffffff811115612ea657612ea5612b7f565b5b612eb285828601612e1e565b92509250509250929050565b5f60a082019050612ed15f830188612a00565b612ede6020830187612c4c565b612eeb6040830186612a00565b612ef86060830185612c7f565b612f056080830184612a00565b9695505050505050565b612f1881612a9a565b8114612f22575f80fd5b50565b5f81359050612f3381612f0f565b92915050565b5f60208284031215612f4e57612f4d612b7b565b5b5f612f5b84828501612f25565b91505092915050565b5f604082019050612f775f830185612a00565b612f846020830184612a00565b9392505050565b5f8060408385031215612fa157612fa0612b7b565b5b5f612fae85828601612b99565b9250506020612fbf85828601612b99565b9150509250929050565b612fd28161280d565b82525050565b612fe181612c74565b82525050565b60a082015f820151612ffb5f850182612fc9565b50602082015161300e6020850182612aab565b5060408201516130216040850182612fc9565b5060608201516130346060850182612fd8565b5060808201516130476080850182612fc9565b50505050565b5f60a0820190506130605f830184612fe7565b92915050565b7f636c61696d206661696c000000000000000000000000000000000000000000005f82015250565b5f61309a600a83612988565b91506130a582613066565b602082019050919050565b5f6020820190508181035f8301526130c78161308e565b9050919050565b5f81905092915050565b7f4149204c6f7474657279205632207c20526f756e6420230000000000000000005f82015250565b5f61310c6017836130ce565b9150613117826130d8565b601782019050919050565b5f61312c82612d5f565b61313681856130ce565b9350613146818560208601612d69565b80840191505092915050565b7f207c20506f6f6c3a2000000000000000000000000000000000000000000000005f82015250565b5f6131866009836130ce565b915061319182613152565b600982019050919050565b7f2066696e6e6579000000000000000000000000000000000000000000000000005f82015250565b5f6131d06007836130ce565b91506131db8261319c565b600782019050919050565b7f207c2044726177733a20000000000000000000000000000000000000000000005f82015250565b5f61321a600a836130ce565b9150613225826131e6565b600a82019050919050565b5f61323a82613100565b91506132468286613122565b91506132518261317a565b915061325d8285613122565b9150613268826131c4565b91506132738261320e565b915061327f8284613122565b9150819050949350505050565b7f312d352063616e646964617465730000000000000000000000000000000000005f82015250565b5f6132c0600e83612988565b91506132cb8261328c565b602082019050919050565b5f6020820190508181035f8301526132ed816132b4565b9050919050565b7f4e487b71000000000000000000000000000000000000000000000000000000005f52603260045260245ffd5b5f80fd5b7f4e487b71000000000000000000000000000000000000000000000000000000005f52604160045260245ffd5b61335b82612d91565b810181811067ffffffffffffffff8211171561337a57613379613325565b5b80604052505050565b5f61338c612b72565b90506133988282613352565b919050565b5f80fd5b5f80fd5b5f67ffffffffffffffff8211156133bf576133be613325565b5b6133c882612d91565b9050602081019050919050565b5f6133e76133e2846133a5565b613383565b905082815260208101848484011115613403576134026133a1565b5b61340e848285612d69565b509392505050565b5f82601f83011261342a57613429612e12565b5b815161343a8482602086016133d5565b91505092915050565b5f8151905061345181612b83565b92915050565b61346081612c74565b811461346a575f80fd5b50565b5f8151905061347b81613457565b92915050565b5f6060828403121561349657613495613321565b5b6134a06060613383565b90505f82015167ffffffffffffffff8111156134bf576134be61339d565b5b6134cb84828501613416565b5f8301525060206134de84828501613443565b60208301525060406134f28482850161346d565b60408301525092915050565b5f6020828403121561351357613512612b7b565b5b5f82015167ffffffffffffffff8111156135305761352f612b7f565b5b61353c84828501613481565b91505092915050565b7f696e73756666696369656e7420666f72206f7261636c652066656500000000005f82015250565b5f613579601b83612988565b915061358482613545565b602082019050919050565b5f6020820190508181035f8301526135a68161356d565b9050919050565b5f6060820190506135c05f830186612a00565b81810360208301526135d28185612da1565b90506135e16040830184612cd1565b949350505050565b5f602082840312156135fe576135fd612b7b565b5b5f61360b84828501613443565b91505092915050565b7f62616420696400000000000000000000000000000000000000000000000000005f82015250565b5f613648600683612988565b915061365382613614565b602082019050919050565b5f6020820190508181035f8301526136758161363c565b9050919050565b5f6136868261280d565b91507fffffffffffffffffffffffffffffffffffffffffffffffffffffffffffffffff82036136b8576136b7612816565b5b600182019050919050565b5f6040820190506136d65f830185612a00565b6136e36020830184612cd1565b9392505050565b5f6136f48261280d565b91506136ff8361280d565b92508261370f5761370e612884565b5b828206905092915050565b5f6137248261280d565b91505f820361373657613735612816565b5b600182039050919050565b7f28000000000000000000000000000000000000000000000000000000000000005f82015250565b5f6137756001836130ce565b915061378082613741565b600182019050919050565b7f29200000000000000000000000000000000000000000000000000000000000005f82015250565b5f6137bf6002836130ce565b91506137ca8261378b565b600282019050919050565b5f6137e08287613122565b91506137eb82613769565b91506137f78286613122565b9150613802826137b3565b915061380e8285613122565b915061381a8284613122565b915081905095945050505050565b7f596f752061726520746865204149204f7261636c6520666f72204149204c6f745f8201527f7465727920282441494c4f54292e200000000000000000000000000000000000602082015250565b5f613882602f836130ce565b915061388d82613828565b602f82019050919050565b7f5069636b204f4e452077696e6e65722066726f6d20746865736520746f6b656e5f8201527f20686f6c646572732e2000000000000000000000000000000000000000000000602082015250565b5f6138f2602a836130ce565b91506138fd82613898565b602a82019050919050565b7f5072697a6520706f6f6c3a2000000000000000000000000000000000000000005f82015250565b5f61393c600c836130ce565b915061394782613908565b600c82019050919050565b7f2066696e6e65792e2000000000000000000000000000000000000000000000005f82015250565b5f6139866009836130ce565b915061399182613952565b600982019050919050565b7f526f756e643a20000000000000000000000000000000000000000000000000005f82015250565b5f6139d06007836130ce565b91506139db8261399c565b600782019050919050565b7f2e200000000000000000000000000000000000000000000000000000000000005f82015250565b5f613a1a6002836130ce565b9150613a25826139e6565b600282019050919050565b7f43616e646964617465733a2000000000000000000000000000000000000000005f82015250565b5f613a64600c836130ce565b9150613a6f82613a30565b600c82019050919050565b7f436f6e736964657220666169726e65737320616e642072616e646f6d6e6573735f8201527f2e205265706c792077697468204f4e4c5920746865206e756d6265722e000000602082015250565b5f613ad4603d836130ce565b9150613adf82613a7a565b603d82019050919050565b5f613af482613876565b9150613aff826138e6565b9150613b0a82613930565b9150613b168286613122565b9150613b218261397a565b9150613b2c826139c4565b9150613b388285613122565b9150613b4382613a0e565b9150613b4e82613a58565b9150613b5a8284613122565b9150613b6582613a0e565b9150613b7082613ac8565b915081905094935050505056fea2646970667358221220050e433aa17b4cef38be9c4ae771239dceae1c4fb9514aa40e81393eee1a7a8564736f6c63430008180033","linkReferences":{}},"methodIdentifiers":{"BPS()":"249d39e9","DEV_BPS()":"760690c4","MODEL_ID()":"d4567570","NUM_CHOICES()":"47eba740","POOL_BPS()":"6b548d6d","PRIZE_BPS()":"944d1210","RESERVE_BPS()":"e41dc9f8","candidates(uint256)":"3477ee2e","claim()":"4e71d92d","claimed()":"e834a834","cooldown()":"787a08a6","currentPool()":"692b69ae","currentPrize()":"c42b42a0","currentWinner()":"aabe2fe3","description()":"7284e416","dev()":"91cca3db","drawTimestamp()":"b914a219","emergencyWithdraw(address)":"6ff1c9bc","fulfillReasoning(uint256,uint8)":"1ba900eb","getCandidates()":"06a49fce","getCurrentRound()":"a32bf597","getEstimatedNextPrize()":"597e05cd","getHistory(uint256)":"c8691b2a","getHistoryLength()":"5478f468","getPendingPrize()":"364976ea","getPoolBalance()":"abd70aa2","history(uint256)":"a7a38f0b","isDrawPending()":"77d721bb","lastDrawTs()":"48917d5d","lastRequestId()":"fc2a88c3","manualDraw(address)":"aa70bb53","minBal()":"91b7655f","nextReserve()":"6c5939a9","onFlapAIRequestRefunded(uint256)":"5000d3e5","owner()":"8da5cb5b","requestDraw()":"a57848b6","round()":"146ca531","setCandidates(address[])":"9e658e91","setParams(uint256,uint256)":"c0324c77","totalDraws()":"137ef049","transferOwnership(address)":"f2fde38b"},"id":2}