{"abi":[{"type":"constructor","inputs":[],"stateMutability":"nonpayable"},{"type":"function","name":"isQuoteTokenSupported","inputs":[{"name":"quoteToken","type":"address","internalType":"address"}],"outputs":[{"name":"","type":"bool","internalType":"bool"}],"stateMutability":"pure"},{"type":"function","name":"newVault","inputs":[{"name":"taxToken","type":"address","internalType":"address"},{"name":"","type":"address","internalType":"address"},{"name":"creator","type":"address","internalType":"address"},{"name":"vaultData","type":"bytes","internalType":"bytes"}],"outputs":[{"name":"vault","type":"address","internalType":"address"}],"stateMutability":"nonpayable"},{"type":"function","name":"portal","inputs":[],"outputs":[{"name":"","type":"address","internalType":"address"}],"stateMutability":"view"},{"type":"function","name":"vaultDataSchema","inputs":[],"outputs":[{"name":"schema","type":"tuple","internalType":"struct VaultDataSchema","components":[{"name":"description","type":"string","internalType":"string"},{"name":"fields","type":"tuple[]","internalType":"struct FieldDescriptor[]","components":[{"name":"name","type":"string","internalType":"string"},{"name":"fieldType","type":"string","internalType":"string"},{"name":"description","type":"string","internalType":"string"},{"name":"decimals","type":"uint8","internalType":"uint8"}]},{"name":"isArray","type":"bool","internalType":"bool"}]}],"stateMutability":"pure"},{"type":"event","name":"VaultCreated","inputs":[{"name":"vault","type":"address","indexed":true,"internalType":"address"},{"name":"taxToken","type":"address","indexed":true,"internalType":"address"},{"name":"creator","type":"address","indexed":true,"internalType":"address"}],"anonymous":false},{"type":"error","name":"OnlyVaultPortal","inputs":[]},{"type":"error","name":"ZeroAddress","inputs":[]}],"bytecode":{"object":"0x60a060405234801561000f575f80fd5b505f469050603881036100695773e2ce6ab80874fa9fa2aae65d277dd6b8e65c9de073ffffffffffffffffffffffffffffffffffffffff1660808173ffffffffffffffffffffffffffffffffffffffff16815250506100fa565b606181036100be57735beacaf7abcbb3ab280e80d007fd31fce26510e973ffffffffffffffffffffffffffffffffffffffff1660808173ffffffffffffffffffffffffffffffffffffffff16815250506100f9565b6040517f08c379a00000000000000000000000000000000000000000000000000000000081526004016100f09061015a565b60405180910390fd5b5b50610178565b5f82825260208201905092915050565b7f756e737570706f7274656420636861696e0000000000000000000000000000005f82015250565b5f610144601183610100565b915061014f82610110565b602082019050919050565b5f6020820190508181035f83015261017181610138565b9050919050565b6080516145f56101965f395f818160ed015261029f01526145f55ff3fe608060405234801561000f575f80fd5b506004361061004a575f3560e01c806315b92d7a1461004e5780636425666b1461007e578063b62a4f9a1461009c578063ff02ca80146100cc575b5f80fd5b61006860048036038101906100639190610578565b6100ea565b604051610075919061060b565b60405180910390f35b61008661029d565b604051610093919061060b565b60405180910390f35b6100b660048036038101906100b19190610624565b6102c1565b6040516100c39190610669565b60405180910390f35b6100d46102f8565b6040516100e191906108b3565b60405180910390f35b5f7f000000000000000000000000000000000000000000000000000000000000000073ffffffffffffffffffffffffffffffffffffffff163373ffffffffffffffffffffffffffffffffffffffff1614610170576040517fb6ae84bc00000000000000000000000000000000000000000000000000000000815260040160405180910390fd5b5f8383810190610180919061090e565b90505f85826040516101919061045b565b61019c929190610939565b604051809103905ff0801580156101b5573d5f803e3d5ffd5b5090508073ffffffffffffffffffffffffffffffffffffffff1663487d1ce5896040518263ffffffff1660e01b81526004016101f1919061060b565b5f604051808303815f87803b158015610208575f80fd5b505af115801561021a573d5f803e3d5ffd5b505050508092508573ffffffffffffffffffffffffffffffffffffffff168873ffffffffffffffffffffffffffffffffffffffff168473ffffffffffffffffffffffffffffffffffffffff167f897c133dfbfe1f6239e98b4ffd7e4f6c86a62350a131a7a37790419f58af02f960405160405180910390a4505095945050505050565b7f000000000000000000000000000000000000000000000000000000000000000081565b5f8073ffffffffffffffffffffffffffffffffffffffff168273ffffffffffffffffffffffffffffffffffffffff16149050919050565b610300610469565b60405180610120016040528060f38152602001620044ab60f39139815f0181905250600167ffffffffffffffff81111561033d5761033c610960565b5b60405190808252806020026020018201604052801561037657816020015b61036361048b565b81526020019060019003908161035b5790505b50816020018190525060405180608001604052806040518060400160405280600681526020017f6f7261636c65000000000000000000000000000000000000000000000000000081525081526020016040518060400160405280600781526020017f616464726573730000000000000000000000000000000000000000000000000081525081526020016040518060600160405280602281526020016200459e6022913981526020015f60ff1681525081602001515f8151811061043d5761043c61098d565b5b60200260200101819052505f81604001901515908115158152505090565b613af080620009bb83390190565b604051806060016040528060608152602001606081526020015f151581525090565b60405180608001604052806060815260200160608152602001606081526020015f60ff1681525090565b5f80fd5b5f80fd5b5f73ffffffffffffffffffffffffffffffffffffffff82169050919050565b5f6104e6826104bd565b9050919050565b6104f6816104dc565b8114610500575f80fd5b50565b5f81359050610511816104ed565b92915050565b5f80fd5b5f80fd5b5f80fd5b5f8083601f84011261053857610537610517565b5b8235905067ffffffffffffffff8111156105555761055461051b565b5b6020830191508360018202830111156105715761057061051f565b5b9250929050565b5f805f805f60808688031215610591576105906104b5565b5b5f61059e88828901610503565b95505060206105af88828901610503565b94505060406105c088828901610503565b935050606086013567ffffffffffffffff8111156105e1576105e06104b9565b5b6105ed88828901610523565b92509250509295509295909350565b610605816104dc565b82525050565b5f60208201905061061e5f8301846105fc565b92915050565b5f60208284031215610639576106386104b5565b5b5f61064684828501610503565b91505092915050565b5f8115159050919050565b6106638161064f565b82525050565b5f60208201905061067c5f83018461065a565b92915050565b5f81519050919050565b5f82825260208201905092915050565b5f5b838110156106b957808201518184015260208101905061069e565b5f8484015250505050565b5f601f19601f8301169050919050565b5f6106de82610682565b6106e8818561068c565b93506106f881856020860161069c565b610701816106c4565b840191505092915050565b5f81519050919050565b5f82825260208201905092915050565b5f819050602082019050919050565b5f60ff82169050919050565b61074a81610735565b82525050565b5f608083015f8301518482035f86015261076a82826106d4565b9150506020830151848203602086015261078482826106d4565b9150506040830151848203604086015261079e82826106d4565b91505060608301516107b36060860182610741565b508091505092915050565b5f6107c98383610750565b905092915050565b5f602082019050919050565b5f6107e78261070c565b6107f18185610716565b93508360208202850161080385610726565b805f5b8581101561083e578484038952815161081f85826107be565b945061082a836107d1565b925060208a01995050600181019050610806565b50829750879550505050505092915050565b6108598161064f565b82525050565b5f606083015f8301518482035f86015261087982826106d4565b9150506020830151848203602086015261089382826107dd565b91505060408301516108a86040860182610850565b508091505092915050565b5f6020820190508181035f8301526108cb818461085f565b905092915050565b5f6108dd826104bd565b9050919050565b6108ed816108d3565b81146108f7575f80fd5b50565b5f81359050610908816108e4565b92915050565b5f60208284031215610923576109226104b5565b5b5f610930848285016108fa565b91505092915050565b5f60408201905061094c5f8301856105fc565b61095960208301846105fc565b9392505050565b7f4e487b71000000000000000000000000000000000000000000000000000000005f52604160045260245ffd5b7f4e487b71000000000000000000000000000000000000000000000000000000005f52603260045260245ffdfe60a060405234801562000010575f80fd5b5060405162003af038038062003af0833981810160405281019062000036919062000117565b8173ffffffffffffffffffffffffffffffffffffffff1660808173ffffffffffffffffffffffffffffffffffffffff16815250508060015f6101000a81548173ffffffffffffffffffffffffffffffffffffffff021916908373ffffffffffffffffffffffffffffffffffffffff16021790555050506200015c565b5f80fd5b5f73ffffffffffffffffffffffffffffffffffffffff82169050919050565b5f620000e182620000b6565b9050919050565b620000f381620000d5565b8114620000fe575f80fd5b50565b5f815190506200011181620000e8565b92915050565b5f806040838503121562000130576200012f620000b2565b5b5f6200013f8582860162000101565b9250506020620001528582860162000101565b9150509250929050565b6080516139666200018a5f395f818161024c0152818161090501528181610d69015261149801526139665ff3fe6080604052600436106101ba575f3560e01c80637dc0d1d0116100eb578063abd70aa211610089578063c8691b2a11610063578063c8691b2a14610744578063df72036c14610780578063e41dc9f8146107aa578063e834a834146107d457610350565b8063abd70aa2146106c5578063b914a219146106f0578063c42b42a01461071a57610350565b8063944d1210116100c5578063944d121014610607578063a32bf59714610631578063a7a38f0b1461065b578063aabe2fe31461069b57610350565b80637dc0d1d01461058b5780638d329a97146105b557806391cca3db146105dd57610350565b8063597e05cd116101585780636c5939a9116101325780636c5939a9146104e55780637284e4161461050f578063760690c4146105395780637adbf9731461056357610350565b8063597e05cd14610467578063692b69ae146104915780636b548d6d146104bb57610350565b8063364976ea11610194578063364976ea146103d2578063487d1ce5146103ff5780634e71d92d146104275780635478f4681461043d57610350565b8063146ca531146103545780631fc928ae1461037e578063249d39e9146103a857610350565b36610350575f3490505f612710611388836101d59190612998565b6101df9190612a06565b90505f612710610fa0846101f39190612998565b6101fd9190612a06565b90505f81838561020d9190612a36565b6102179190612a36565b90508260025f82825461022a9190612a69565b925050819055508160035f8282546102429190612a69565b925050819055505f7f000000000000000000000000000000000000000000000000000000000000000073ffffffffffffffffffffffffffffffffffffffff168260405161028e90612ac9565b5f6040518083038185875af1925050503d805f81146102c8576040519150601f19603f3d011682016040523d82523d5f602084013e6102cd565b606091505b5050905080610311576040517f08c379a000000000000000000000000000000000000000000000000000000000815260040161030890612b37565b60405180910390fd5b7f27e35f3446b07a0965e3c79578ecf494de3d3fcb81c9b93195588ce7e8ebc156858585856040516103469493929190612b64565b60405180910390a1005b5f80fd5b34801561035f575f80fd5b506103686107fe565b6040516103759190612ba7565b60405180910390f35b348015610389575f80fd5b50610392610804565b60405161039f9190612bff565b60405180910390f35b3480156103b3575f80fd5b506103bc610827565b6040516103c99190612ba7565b60405180910390f35b3480156103dd575f80fd5b506103e661082d565b6040516103f69493929190612c32565b60405180910390f35b34801561040a575f80fd5b5061042560048036038101906104209190612ca3565b610876565b005b348015610432575f80fd5b5061043b610a10565b005b348015610448575f80fd5b50610451610c7f565b60405161045e9190612ba7565b60405180910390f35b348015610472575f80fd5b5061047b610c8b565b6040516104889190612ba7565b60405180910390f35b34801561049c575f80fd5b506104a5610cbb565b6040516104b29190612ba7565b60405180910390f35b3480156104c6575f80fd5b506104cf610cc1565b6040516104dc9190612ba7565b60405180910390f35b3480156104f0575f80fd5b506104f9610cc7565b6040516105069190612ba7565b60405180910390f35b34801561051a575f80fd5b50610523610ccd565b6040516105309190612d48565b60405180910390f35b348015610544575f80fd5b5061054d610d61565b60405161055a9190612ba7565b60405180910390f35b34801561056e575f80fd5b5061058960048036038101906105849190612ca3565b610d67565b005b348015610596575f80fd5b5061059f610eeb565b6040516105ac9190612bff565b60405180910390f35b3480156105c0575f80fd5b506105db60048036038101906105d69190612ca3565b610f10565b005b3480156105e8575f80fd5b506105f1611496565b6040516105fe9190612bff565b60405180910390f35b348015610612575f80fd5b5061061b6114ba565b6040516106289190612ba7565b60405180910390f35b34801561063c575f80fd5b506106456114c0565b6040516106529190612ba7565b60405180910390f35b348015610666575f80fd5b50610681600480360381019061067c9190612d92565b6114c9565b604051610692959493929190612dbd565b60405180910390f35b3480156106a6575f80fd5b506106af611535565b6040516106bc9190612bff565b60405180910390f35b3480156106d0575f80fd5b506106d961155a565b6040516106e7929190612e0e565b60405180910390f35b3480156106fb575f80fd5b5061070461156a565b6040516107119190612ba7565b60405180910390f35b348015610725575f80fd5b5061072e611570565b60405161073b9190612ba7565b60405180910390f35b34801561074f575f80fd5b5061076a60048036038101906107659190612d92565b611576565b6040516107779190612ec8565b60405180910390f35b34801561078b575f80fd5b5061079461163c565b6040516107a19190613321565b60405180910390f35b3480156107b5575f80fd5b506107be612685565b6040516107cb9190612ba7565b60405180910390f35b3480156107df575f80fd5b506107e861268b565b6040516107f59190613341565b60405180910390f35b60045481565b5f8054906101000a900473ffffffffffffffffffffffffffffffffffffffff1681565b61271081565b5f805f8060055f9054906101000a900473ffffffffffffffffffffffffffffffffffffffff1660065460085f9054906101000a900460ff16600754935093509350935090919293565b5f73ffffffffffffffffffffffffffffffffffffffff165f8054906101000a900473ffffffffffffffffffffffffffffffffffffffff1673ffffffffffffffffffffffffffffffffffffffff1614610903576040517f08c379a00000000000000000000000000000000000000000000000000000000081526004016108fa906133a4565b60405180910390fd5b7f000000000000000000000000000000000000000000000000000000000000000073ffffffffffffffffffffffffffffffffffffffff163373ffffffffffffffffffffffffffffffffffffffff16148061098f575061096061269d565b73ffffffffffffffffffffffffffffffffffffffff163373ffffffffffffffffffffffffffffffffffffffff16145b6109ce576040517f08c379a00000000000000000000000000000000000000000000000000000000081526004016109c59061340c565b60405180910390fd5b805f806101000a81548173ffffffffffffffffffffffffffffffffffffffff021916908373ffffffffffffffffffffffffffffffffffffffff16021790555050565b5f73ffffffffffffffffffffffffffffffffffffffff1660055f9054906101000a900473ffffffffffffffffffffffffffffffffffffffff1673ffffffffffffffffffffffffffffffffffffffff1603610a96576040517f0553400200000000000000000000000000000000000000000000000000000000815260040160405180910390fd5b60055f9054906101000a900473ffffffffffffffffffffffffffffffffffffffff1673ffffffffffffffffffffffffffffffffffffffff163373ffffffffffffffffffffffffffffffffffffffff1614610b1c576040517f618c724200000000000000000000000000000000000000000000000000000000815260040160405180910390fd5b60085f9054906101000a900460ff1615610b62576040517f646cf55800000000000000000000000000000000000000000000000000000000815260040160405180910390fd5b600160085f6101000a81548160ff0219169083151502179055505f60065490505f3373ffffffffffffffffffffffffffffffffffffffff1682604051610ba790612ac9565b5f6040518083038185875af1925050503d805f8114610be1576040519150601f19603f3d011682016040523d82523d5f602084013e610be6565b606091505b5050905080610c2a576040517f08c379a0000000000000000000000000000000000000000000000000000000008152600401610c2190613474565b60405180910390fd5b3373ffffffffffffffffffffffffffffffffffffffff166004547f4aa95f981a8337cb337de335b965507da0879c3b49f799d20058e913f5ad2c2684604051610c739190612ba7565b60405180910390a35050565b5f600980549050905090565b5f612710611770600354600254610ca29190612a69565b610cac9190612998565b610cb69190612a06565b905090565b60025481565b61138881565b60035481565b6060610cda60045461272c565b610cf766038d7ea4c68000600254610cf29190612a06565b61272c565b610d3b66038d7ea4c68000612710611770600354600254610d189190612a69565b610d229190612998565b610d2c9190612a06565b610d369190612a06565b61272c565b604051602001610d4d939291906135f4565b604051602081830303815290604052905090565b6103e881565b7f000000000000000000000000000000000000000000000000000000000000000073ffffffffffffffffffffffffffffffffffffffff163373ffffffffffffffffffffffffffffffffffffffff1614158015610df65750610dc661269d565b73ffffffffffffffffffffffffffffffffffffffff163373ffffffffffffffffffffffffffffffffffffffff1614155b15610e2d576040517f64c42c6300000000000000000000000000000000000000000000000000000000815260040160405180910390fd5b8073ffffffffffffffffffffffffffffffffffffffff1660015f9054906101000a900473ffffffffffffffffffffffffffffffffffffffff1673ffffffffffffffffffffffffffffffffffffffff167f078c3b417dadf69374a59793b829c52001247130433427049317bde56607b1b760405160405180910390a38060015f6101000a81548173ffffffffffffffffffffffffffffffffffffffff021916908373ffffffffffffffffffffffffffffffffffffffff16021790555050565b60015f9054906101000a900473ffffffffffffffffffffffffffffffffffffffff1681565b60015f9054906101000a900473ffffffffffffffffffffffffffffffffffffffff1673ffffffffffffffffffffffffffffffffffffffff163373ffffffffffffffffffffffffffffffffffffffff1614158015610fa05750610f7061269d565b73ffffffffffffffffffffffffffffffffffffffff163373ffffffffffffffffffffffffffffffffffffffff1614155b15610fd7576040517f80fee10500000000000000000000000000000000000000000000000000000000815260040160405180910390fd5b5f73ffffffffffffffffffffffffffffffffffffffff1660055f9054906101000a900473ffffffffffffffffffffffffffffffffffffffff1673ffffffffffffffffffffffffffffffffffffffff1614158015611040575060085f9054906101000a900460ff16155b156111e95760065460025f8282546110589190612a69565b9250508190555060096040518060a00160405280600454815260200160055f9054906101000a900473ffffffffffffffffffffffffffffffffffffffff1673ffffffffffffffffffffffffffffffffffffffff16815260200160065481526020015f15158152602001600754815250908060018154018082558091505060019003905f5260205f2090600502015f909190919091505f820151815f01556020820151816001015f6101000a81548173ffffffffffffffffffffffffffffffffffffffff021916908373ffffffffffffffffffffffffffffffffffffffff160217905550604082015181600201556060820151816003015f6101000a81548160ff02191690831515021790555060808201518160040155505060055f9054906101000a900473ffffffffffffffffffffffffffffffffffffffff1673ffffffffffffffffffffffffffffffffffffffff166004547ffd2195580a44eacf25019abee25eba02b7abeade2b38cc1409421b3c88818a9b6006546040516111dc9190612ba7565b60405180910390a361136a565b5f73ffffffffffffffffffffffffffffffffffffffff1660055f9054906101000a900473ffffffffffffffffffffffffffffffffffffffff1673ffffffffffffffffffffffffffffffffffffffff1614158015611251575060085f9054906101000a900460ff165b156113695760096040518060a00160405280600454815260200160055f9054906101000a900473ffffffffffffffffffffffffffffffffffffffff1673ffffffffffffffffffffffffffffffffffffffff1681526020016006548152602001600115158152602001600754815250908060018154018082558091505060019003905f5260205f2090600502015f909190919091505f820151815f01556020820151816001015f6101000a81548173ffffffffffffffffffffffffffffffffffffffff021916908373ffffffffffffffffffffffffffffffffffffffff160217905550604082015181600201556060820151816003015f6101000a81548160ff0219169083151502179055506080820151816004015550505b5b60035460025f82825461137d9190612a69565b925050819055505f60038190555060045f81548092919061139d9061365b565b91905055505f6127106117706002546113b69190612998565b6113c09190612a06565b90508060025f8282546113d39190612a36565b925050819055508160055f6101000a81548173ffffffffffffffffffffffffffffffffffffffff021916908373ffffffffffffffffffffffffffffffffffffffff16021790555080600681905550426007819055505f60085f6101000a81548160ff0219169083151502179055508173ffffffffffffffffffffffffffffffffffffffff166004547f9c1e776cbdf221420917b223eb09503e61c8e990a1c09065cbf15bdff06a555e8360405161148a9190612ba7565b60405180910390a35050565b7f000000000000000000000000000000000000000000000000000000000000000081565b61177081565b5f600454905090565b600981815481106114d8575f80fd5b905f5260205f2090600502015f91509050805f015490806001015f9054906101000a900473ffffffffffffffffffffffffffffffffffffffff1690806002015490806003015f9054906101000a900460ff16908060040154905085565b60055f9054906101000a900473ffffffffffffffffffffffffffffffffffffffff1681565b5f80600254600354915091509091565b60075481565b60065481565b61157e612884565b60098281548110611592576115916136a2565b5b905f5260205f2090600502016040518060a00160405290815f8201548152602001600182015f9054906101000a900473ffffffffffffffffffffffffffffffffffffffff1673ffffffffffffffffffffffffffffffffffffffff1673ffffffffffffffffffffffffffffffffffffffff16815260200160028201548152602001600382015f9054906101000a900460ff161515151581526020016004820154815250509050919050565b6116446128c6565b6040518060400160405280600e81526020017f41494c6f74746572795661756c74000000000000000000000000000000000000815250815f018190525060405180610100016040528060cb815260200161378360cb91398160200181905250600467ffffffffffffffff8111156116be576116bd6136cf565b5b6040519080825280602002602001820160405280156116f757816020015b6116e46128e7565b8152602001906001900390816116dc5790505b5081604001819052506040518060400160405280600f81526020017f67657450656e64696e675072697a65000000000000000000000000000000000081525081604001515f8151811061174d5761174c6136a2565b5b60200260200101515f01819052506040518060800160405280604481526020016138ed6044913981604001515f8151811061178b5761178a6136a2565b5b6020026020010151602001819052505f67ffffffffffffffff8111156117b4576117b36136cf565b5b6040519080825280602002602001820160405280156117ed57816020015b6117da61291e565b8152602001906001900390816117d25790505b5081604001515f81518110611805576118046136a2565b5b602002602001015160400181905250600467ffffffffffffffff81111561182f5761182e6136cf565b5b60405190808252806020026020018201604052801561186857816020015b61185561291e565b81526020019060019003908161184d5790505b5081604001515f815181106118805761187f6136a2565b5b60200260200101516060018190525060405180608001604052806040518060400160405280600681526020017f77696e6e6572000000000000000000000000000000000000000000000000000081525081526020016040518060400160405280600781526020017f616464726573730000000000000000000000000000000000000000000000000081525081526020016040518060400160405280600e81526020017f57696e6e6572206164647265737300000000000000000000000000000000000081525081526020015f60ff1681525081604001515f81518110611969576119686136a2565b5b6020026020010151606001515f81518110611987576119866136a2565b5b602002602001018190525060405180608001604052806040518060400160405280600581526020017f7072697a6500000000000000000000000000000000000000000000000000000081525081526020016040518060400160405280600781526020017f75696e743235360000000000000000000000000000000000000000000000000081525081526020016040518060400160405280601381526020017f5072697a6520616d6f756e7420696e20424e42000000000000000000000000008152508152602001601260ff1681525081604001515f81518110611a6d57611a6c6136a2565b5b602002602001015160600151600181518110611a8c57611a8b6136a2565b5b602002602001018190525060405180608001604052806040518060400160405280600981526020017f6973436c61696d6564000000000000000000000000000000000000000000000081525081526020016040518060400160405280600481526020017f626f6f6c0000000000000000000000000000000000000000000000000000000081525081526020016040518060400160405280600f81526020017f5768657468657220636c61696d6564000000000000000000000000000000000081525081526020015f60ff1681525081604001515f81518110611b7157611b706136a2565b5b602002602001015160600151600281518110611b9057611b8f6136a2565b5b602002602001018190525060405180608001604052806040518060400160405280600781526020017f647261776e41740000000000000000000000000000000000000000000000000081525081526020016040518060400160405280600481526020017f74696d650000000000000000000000000000000000000000000000000000000081525081526020016040518060400160405280600e81526020017f447261772074696d657374616d7000000000000000000000000000000000000081525081526020015f60ff1681525081604001515f81518110611c7557611c746136a2565b5b602002602001015160600151600381518110611c9457611c936136a2565b5b60200260200101819052505f67ffffffffffffffff811115611cb957611cb86136cf565b5b604051908082528060200260200182016040528015611cf257816020015b611cdf612948565b815260200190600190039081611cd75790505b5081604001515f81518110611d0a57611d096136a2565b5b6020026020010151608001819052506040518060400160405280600e81526020017f676574506f6f6c42616c616e63650000000000000000000000000000000000008152508160400151600181518110611d6757611d666136a2565b5b60200260200101515f01819052506040518060600160405280603e815260200161384e603e91398160400151600181518110611da657611da56136a2565b5b6020026020010151602001819052505f67ffffffffffffffff811115611dcf57611dce6136cf565b5b604051908082528060200260200182016040528015611e0857816020015b611df561291e565b815260200190600190039081611ded5790505b508160400151600181518110611e2157611e206136a2565b5b602002602001015160400181905250600267ffffffffffffffff811115611e4b57611e4a6136cf565b5b604051908082528060200260200182016040528015611e8457816020015b611e7161291e565b815260200190600190039081611e695790505b508160400151600181518110611e9d57611e9c6136a2565b5b60200260200101516060018190525060405180608001604052806040518060400160405280600481526020017f706f6f6c0000000000000000000000000000000000000000000000000000000081525081526020016040518060400160405280600781526020017f75696e743235360000000000000000000000000000000000000000000000000081525081526020016040518060400160405280601081526020017f43757272656e7420706f6f6c20424e42000000000000000000000000000000008152508152602001601260ff168152508160400151600181518110611f8857611f876136a2565b5b6020026020010151606001515f81518110611fa657611fa56136a2565b5b602002602001018190525060405180608001604052806040518060400160405280600781526020017f726573657276650000000000000000000000000000000000000000000000000081525081526020016040518060400160405280600781526020017f75696e743235360000000000000000000000000000000000000000000000000081525081526020016040518060400160405280601681526020017f4e65787420726f756e64207265736572766520424e42000000000000000000008152508152602001601260ff16815250816040015160018151811061208d5761208c6136a2565b5b6020026020010151606001516001815181106120ac576120ab6136a2565b5b60200260200101819052505f67ffffffffffffffff8111156120d1576120d06136cf565b5b60405190808252806020026020018201604052801561210a57816020015b6120f7612948565b8152602001906001900390816120ef5790505b508160400151600181518110612123576121226136a2565b5b6020026020010151608001819052506040518060400160405280601581526020017f676574457374696d617465644e6578745072697a65000000000000000000000081525081604001516002815181106121805761217f6136a2565b5b60200260200101515f01819052506040518060600160405280602f8152602001613754602f913981604001516002815181106121bf576121be6136a2565b5b6020026020010151602001819052505f67ffffffffffffffff8111156121e8576121e76136cf565b5b60405190808252806020026020018201604052801561222157816020015b61220e61291e565b8152602001906001900390816122065790505b50816040015160028151811061223a576122396136a2565b5b602002602001015160400181905250600167ffffffffffffffff811115612264576122636136cf565b5b60405190808252806020026020018201604052801561229d57816020015b61228a61291e565b8152602001906001900390816122825790505b5081604001516002815181106122b6576122b56136a2565b5b60200260200101516060018190525060405180608001604052806040518060400160405280600581526020017f7072697a6500000000000000000000000000000000000000000000000000000081525081526020016040518060400160405280600781526020017f75696e743235360000000000000000000000000000000000000000000000000081525081526020016040518060400160405280601681526020017f457374696d61746564207072697a6520696e20424e42000000000000000000008152508152602001601260ff1681525081604001516002815181106123a1576123a06136a2565b5b6020026020010151606001515f815181106123bf576123be6136a2565b5b60200260200101819052505f67ffffffffffffffff8111156123e4576123e36136cf565b5b60405190808252806020026020018201604052801561241d57816020015b61240a612948565b8152602001906001900390816124025790505b508160400151600281518110612436576124356136a2565b5b6020026020010151608001819052506040518060400160405280600581526020017f636c61696d0000000000000000000000000000000000000000000000000000008152508160400151600381518110612493576124926136a2565b5b60200260200101515f01819052506040518060a001604052806061815260200161388c6061913981604001516003815181106124d2576124d16136a2565b5b6020026020010151602001819052505f67ffffffffffffffff8111156124fb576124fa6136cf565b5b60405190808252806020026020018201604052801561253457816020015b61252161291e565b8152602001906001900390816125195790505b50816040015160038151811061254d5761254c6136a2565b5b6020026020010151604001819052505f67ffffffffffffffff811115612576576125756136cf565b5b6040519080825280602002602001820160405280156125af57816020015b61259c61291e565b8152602001906001900390816125945790505b5081604001516003815181106125c8576125c76136a2565b5b6020026020010151606001819052505f67ffffffffffffffff8111156125f1576125f06136cf565b5b60405190808252806020026020018201604052801561262a57816020015b612617612948565b81526020019060019003908161260f5790505b508160400151600381518110612643576126426136a2565b5b6020026020010151608001819052506001816040015160038151811061266c5761266b6136a2565b5b602002602001015160a001901515908115158152505090565b610fa081565b60085f9054906101000a900460ff1681565b5f80469050603881036126c757739e27098dcd8844bcc6287a557e0b4d09c86b8a4b915050612729565b606181036126ec577376fa8c526f8bc27ba6958b76deef92a0dbe46950915050612729565b806040517fc3a55c980000000000000000000000000000000000000000000000000000000081526004016127209190612ba7565b60405180910390fd5b90565b60605f8203612772576040518060400160405280600181526020017f3000000000000000000000000000000000000000000000000000000000000000815250905061287f565b5f8290505f5b5f82146127a157808061278a9061365b565b915050600a8261279a9190612a06565b9150612778565b5f8167ffffffffffffffff8111156127bc576127bb6136cf565b5b6040519080825280601f01601f1916602001820160405280156127ee5781602001600182028036833780820191505090505b5090505b5f8514612878578180612804906136fc565b925050600a856128149190613723565b60306128209190612a69565b60f81b818381518110612836576128356136a2565b5b60200101907effffffffffffffffffffffffffffffffffffffffffffffffffffffffffffff191690815f1a905350600a856128719190612a06565b94506127f2565b8093505050505b919050565b6040518060a001604052805f81526020015f73ffffffffffffffffffffffffffffffffffffffff1681526020015f81526020015f151581526020015f81525090565b60405180606001604052806060815260200160608152602001606081525090565b6040518060c0016040528060608152602001606081526020016060815260200160608152602001606081526020015f151581525090565b60405180608001604052806060815260200160608152602001606081526020015f60ff1681525090565b604051806040016040528060608152602001606081525090565b5f819050919050565b7f4e487b71000000000000000000000000000000000000000000000000000000005f52601160045260245ffd5b5f6129a282612962565b91506129ad83612962565b92508282026129bb81612962565b915082820484148315176129d2576129d161296b565b5b5092915050565b7f4e487b71000000000000000000000000000000000000000000000000000000005f52601260045260245ffd5b5f612a1082612962565b9150612a1b83612962565b925082612a2b57612a2a6129d9565b5b828204905092915050565b5f612a4082612962565b9150612a4b83612962565b9250828203905081811115612a6357612a6261296b565b5b92915050565b5f612a7382612962565b9150612a7e83612962565b9250828201905080821115612a9657612a9561296b565b5b92915050565b5f81905092915050565b50565b5f612ab45f83612a9c565b9150612abf82612aa6565b5f82019050919050565b5f612ad382612aa9565b9150819050919050565b5f82825260208201905092915050565b7f646576207472616e73666572206661696c6564000000000000000000000000005f82015250565b5f612b21601383612add565b9150612b2c82612aed565b602082019050919050565b5f6020820190508181035f830152612b4e81612b15565b9050919050565b612b5e81612962565b82525050565b5f608082019050612b775f830187612b55565b612b846020830186612b55565b612b916040830185612b55565b612b9e6060830184612b55565b95945050505050565b5f602082019050612bba5f830184612b55565b92915050565b5f73ffffffffffffffffffffffffffffffffffffffff82169050919050565b5f612be982612bc0565b9050919050565b612bf981612bdf565b82525050565b5f602082019050612c125f830184612bf0565b92915050565b5f8115159050919050565b612c2c81612c18565b82525050565b5f608082019050612c455f830187612bf0565b612c526020830186612b55565b612c5f6040830185612c23565b612c6c6060830184612b55565b95945050505050565b5f80fd5b612c8281612bdf565b8114612c8c575f80fd5b50565b5f81359050612c9d81612c79565b92915050565b5f60208284031215612cb857612cb7612c75565b5b5f612cc584828501612c8f565b91505092915050565b5f81519050919050565b5f5b83811015612cf5578082015181840152602081019050612cda565b5f8484015250505050565b5f601f19601f8301169050919050565b5f612d1a82612cce565b612d248185612add565b9350612d34818560208601612cd8565b612d3d81612d00565b840191505092915050565b5f6020820190508181035f830152612d608184612d10565b905092915050565b612d7181612962565b8114612d7b575f80fd5b50565b5f81359050612d8c81612d68565b92915050565b5f60208284031215612da757612da6612c75565b5b5f612db484828501612d7e565b91505092915050565b5f60a082019050612dd05f830188612b55565b612ddd6020830187612bf0565b612dea6040830186612b55565b612df76060830185612c23565b612e046080830184612b55565b9695505050505050565b5f604082019050612e215f830185612b55565b612e2e6020830184612b55565b9392505050565b612e3e81612962565b82525050565b612e4d81612bdf565b82525050565b612e5c81612c18565b82525050565b60a082015f820151612e765f850182612e35565b506020820151612e896020850182612e44565b506040820151612e9c6040850182612e35565b506060820151612eaf6060850182612e53565b506080820151612ec26080850182612e35565b50505050565b5f60a082019050612edb5f830184612e62565b92915050565b5f82825260208201905092915050565b5f612efb82612cce565b612f058185612ee1565b9350612f15818560208601612cd8565b612f1e81612d00565b840191505092915050565b5f81519050919050565b5f82825260208201905092915050565b5f819050602082019050919050565b5f81519050919050565b5f82825260208201905092915050565b5f819050602082019050919050565b5f60ff82169050919050565b612f9081612f7b565b82525050565b5f608083015f8301518482035f860152612fb08282612ef1565b91505060208301518482036020860152612fca8282612ef1565b91505060408301518482036040860152612fe48282612ef1565b9150506060830151612ff96060860182612f87565b508091505092915050565b5f61300f8383612f96565b905092915050565b5f602082019050919050565b5f61302d82612f52565b6130378185612f5c565b93508360208202850161304985612f6c565b805f5b8581101561308457848403895281516130658582613004565b945061307083613017565b925060208a0199505060018101905061304c565b50829750879550505050505092915050565b5f81519050919050565b5f82825260208201905092915050565b5f819050602082019050919050565b5f604083015f8301518482035f8601526130d98282612ef1565b915050602083015184820360208601526130f38282612ef1565b9150508091505092915050565b5f61310b83836130bf565b905092915050565b5f602082019050919050565b5f61312982613096565b61313381856130a0565b935083602082028501613145856130b0565b805f5b8581101561318057848403895281516131618582613100565b945061316c83613113565b925060208a01995050600181019050613148565b50829750879550505050505092915050565b5f60c083015f8301518482035f8601526131ac8282612ef1565b915050602083015184820360208601526131c68282612ef1565b915050604083015184820360408601526131e08282613023565b915050606083015184820360608601526131fa8282613023565b91505060808301518482036080860152613214828261311f565b91505060a083015161322960a0860182612e53565b508091505092915050565b5f61323f8383613192565b905092915050565b5f602082019050919050565b5f61325d82612f29565b6132678185612f33565b93508360208202850161327985612f43565b805f5b858110156132b457848403895281516132958582613234565b94506132a083613247565b925060208a0199505060018101905061327c565b50829750879550505050505092915050565b5f606083015f8301518482035f8601526132e08282612ef1565b915050602083015184820360208601526132fa8282612ef1565b915050604083015184820360408601526133148282613253565b9150508091505092915050565b5f6020820190508181035f83015261333981846132c6565b905092915050565b5f6020820190506133545f830184612c23565b92915050565b7f616c7265616479207365740000000000000000000000000000000000000000005f82015250565b5f61338e600b83612add565b91506133998261335a565b602082019050919050565b5f6020820190508181035f8301526133bb81613382565b9050919050565b7f756e617574686f72697a656400000000000000000000000000000000000000005f82015250565b5f6133f6600c83612add565b9150613401826133c2565b602082019050919050565b5f6020820190508181035f830152613423816133ea565b9050919050565b7f636c61696d207472616e73666572206661696c656400000000000000000000005f82015250565b5f61345e601583612add565b91506134698261342a565b602082019050919050565b5f6020820190508181035f83015261348b81613452565b9050919050565b5f81905092915050565b7f4149204c6f7474657279205661756c74207c20526f756e6420230000000000005f82015250565b5f6134d0601a83613492565b91506134db8261349c565b601a82019050919050565b5f6134f082612cce565b6134fa8185613492565b935061350a818560208601612cd8565b80840191505092915050565b7f207c20506f6f6c3a2000000000000000000000000000000000000000000000005f82015250565b5f61354a600983613492565b915061355582613516565b600982019050919050565b7f2066696e6e6579000000000000000000000000000000000000000000000000005f82015250565b5f613594600783613492565b915061359f82613560565b600782019050919050565b7f207c204e657874206573743a20000000000000000000000000000000000000005f82015250565b5f6135de600d83613492565b91506135e9826135aa565b600d82019050919050565b5f6135fe826134c4565b915061360a82866134e6565b91506136158261353e565b915061362182856134e6565b915061362c82613588565b9150613637826135d2565b915061364382846134e6565b915061364e82613588565b9150819050949350505050565b5f61366582612962565b91507fffffffffffffffffffffffffffffffffffffffffffffffffffffffffffffffff82036136975761369661296b565b5b600182019050919050565b7f4e487b71000000000000000000000000000000000000000000000000000000005f52603260045260245ffd5b7f4e487b71000000000000000000000000000000000000000000000000000000005f52604160045260245ffd5b5f61370682612962565b91505f82036137185761371761296b565b5b600182039050919050565b5f61372d82612962565b915061373883612962565b925082613748576137476129d9565b5b82820690509291505056fe457374696d61746564206e65787420726f756e64207072697a65202f20e9a284e4bcb0e4b88be69c9fe5a596e9879141492d6a7564676564206c6f74746572792e20457665727920686f75722c204149204f7261636c65207069636b7320612077696e6e65722077686f206765747320363025206f662074686520706f6f6c2e20556e636c61696d6564207072697a657320726f6c6c20696e746f206e65787420726f756e642e202f204149e5bda9e7a5a8efbc8ce6af8fe5b08fe697b6e5bc80e5a596efbc8ce8b5a2e5aeb6e88eb7e5a596e6b1a0363025efbc8ce69caae9a286e58f96e887aae58aa8e6bb9ae585a5e4b88be69c9fe3808243757272656e7420706f6f6c20616e6420726573657276652062616c616e6365202f20e5bd93e5898de5a596e6b1a0e5928ce9a284e5ad98e4bd99e9a29d436c61696d20796f7572207072697a6520696620796f7520617265207468652063757272656e7420726f756e642077696e6e6572202f20e5a682e69e9ce4bda0e698afe5bd93e5898de8bdaee8b5a2e5aeb6efbc8ce9a286e58f96e5a596e9879143757272656e7420726f756e642077696e6e657220616e64207072697a6520696e666f202f20e5bd93e5898de8bdaee8b5a2e5aeb6e5928ce5a596e98791e4bfa1e681afa26469706673582212203d57acb4fe7bbffff5d8849c8b83650cae021f9766d5f6245b32cb1bb83556ae64736f6c634300081800334149204c6f7474657279205661756c7420e28094204149204f7261636c65207069636b7320612077696e6e657220657665727920686f75722c20363025206f6620706f6f6c206173207072697a652e205461782073706c69743a2035302520706f6f6c202f20343025206e65787420726f756e64202f20313025206465762e202f204149e5bda9e7a5a8e98791e5ba9320e2809420e6af8fe5b08fe697b64149e5bc80e5a596efbc8ce5a596e6b1a0363025e58f91e7bb99e8b5a2e5aeb6e38082e7a88ee694b6e58886e9858defbc9a353025e5a596e6b1a02f343025e4b88be69c9f2f313025e5bc80e58f91e88085e380824f7261636c6520616464726573732074686174207472696767657273206472617773a26469706673582212205234212cc798a09c38c1768b9b582d9a5adfa957863dec7cd1ee972985e97d6164736f6c63430008180033","linkReferences":{}},"methodIdentifiers":{"isQuoteTokenSupported(address)":"b62a4f9a","newVault(address,address,address,bytes)":"15b92d7a","portal()":"6425666b","vaultDataSchema()":"ff02ca80"},"id":1}