{"abi":[{"type":"constructor","inputs":[{"name":"_taxToken","type":"address","internalType":"address"},{"name":"_dev","type":"address","internalType":"address"},{"name":"_oracle","type":"address","internalType":"address"}],"stateMutability":"nonpayable"},{"type":"receive","stateMutability":"payable"},{"type":"function","name":"BPS","inputs":[],"outputs":[{"name":"","type":"uint256","internalType":"uint256"}],"stateMutability":"view"},{"type":"function","name":"DEV_BPS","inputs":[],"outputs":[{"name":"","type":"uint256","internalType":"uint256"}],"stateMutability":"view"},{"type":"function","name":"POOL_BPS","inputs":[],"outputs":[{"name":"","type":"uint256","internalType":"uint256"}],"stateMutability":"view"},{"type":"function","name":"PRIZE_BPS","inputs":[],"outputs":[{"name":"","type":"uint256","internalType":"uint256"}],"stateMutability":"view"},{"type":"function","name":"RESERVE_BPS","inputs":[],"outputs":[{"name":"","type":"uint256","internalType":"uint256"}],"stateMutability":"view"},{"type":"function","name":"claim","inputs":[],"outputs":[],"stateMutability":"nonpayable"},{"type":"function","name":"claimed","inputs":[],"outputs":[{"name":"","type":"bool","internalType":"bool"}],"stateMutability":"view"},{"type":"function","name":"currentPool","inputs":[],"outputs":[{"name":"","type":"uint256","internalType":"uint256"}],"stateMutability":"view"},{"type":"function","name":"currentPrize","inputs":[],"outputs":[{"name":"","type":"uint256","internalType":"uint256"}],"stateMutability":"view"},{"type":"function","name":"currentWinner","inputs":[],"outputs":[{"name":"","type":"address","internalType":"address"}],"stateMutability":"view"},{"type":"function","name":"description","inputs":[],"outputs":[{"name":"","type":"string","internalType":"string"}],"stateMutability":"view"},{"type":"function","name":"dev","inputs":[],"outputs":[{"name":"","type":"address","internalType":"address"}],"stateMutability":"view"},{"type":"function","name":"drawTimestamp","inputs":[],"outputs":[{"name":"","type":"uint256","internalType":"uint256"}],"stateMutability":"view"},{"type":"function","name":"drawWinner","inputs":[{"name":"winner","type":"address","internalType":"address"}],"outputs":[],"stateMutability":"nonpayable"},{"type":"function","name":"getCurrentRound","inputs":[],"outputs":[{"name":"","type":"uint256","internalType":"uint256"}],"stateMutability":"view"},{"type":"function","name":"getEstimatedNextPrize","inputs":[],"outputs":[{"name":"","type":"uint256","internalType":"uint256"}],"stateMutability":"view"},{"type":"function","name":"getHistory","inputs":[{"name":"idx","type":"uint256","internalType":"uint256"}],"outputs":[{"name":"","type":"tuple","internalType":"struct AILotteryVault.DrawRecord","components":[{"name":"round","type":"uint256","internalType":"uint256"},{"name":"winner","type":"address","internalType":"address"},{"name":"prize","type":"uint256","internalType":"uint256"},{"name":"claimed","type":"bool","internalType":"bool"},{"name":"timestamp","type":"uint256","internalType":"uint256"}]}],"stateMutability":"view"},{"type":"function","name":"getHistoryLength","inputs":[],"outputs":[{"name":"","type":"uint256","internalType":"uint256"}],"stateMutability":"view"},{"type":"function","name":"getPendingPrize","inputs":[],"outputs":[{"name":"winner","type":"address","internalType":"address"},{"name":"prize","type":"uint256","internalType":"uint256"},{"name":"isClaimed","type":"bool","internalType":"bool"},{"name":"drawnAt","type":"uint256","internalType":"uint256"}],"stateMutability":"view"},{"type":"function","name":"getPoolBalance","inputs":[],"outputs":[{"name":"pool","type":"uint256","internalType":"uint256"},{"name":"reserve","type":"uint256","internalType":"uint256"}],"stateMutability":"view"},{"type":"function","name":"history","inputs":[{"name":"","type":"uint256","internalType":"uint256"}],"outputs":[{"name":"round","type":"uint256","internalType":"uint256"},{"name":"winner","type":"address","internalType":"address"},{"name":"prize","type":"uint256","internalType":"uint256"},{"name":"claimed","type":"bool","internalType":"bool"},{"name":"timestamp","type":"uint256","internalType":"uint256"}],"stateMutability":"view"},{"type":"function","name":"nextReserve","inputs":[],"outputs":[{"name":"","type":"uint256","internalType":"uint256"}],"stateMutability":"view"},{"type":"function","name":"oracle","inputs":[],"outputs":[{"name":"","type":"address","internalType":"address"}],"stateMutability":"view"},{"type":"function","name":"round","inputs":[],"outputs":[{"name":"","type":"uint256","internalType":"uint256"}],"stateMutability":"view"},{"type":"function","name":"setOracle","inputs":[{"name":"_oracle","type":"address","internalType":"address"}],"outputs":[],"stateMutability":"nonpayable"},{"type":"function","name":"taxToken","inputs":[],"outputs":[{"name":"","type":"address","internalType":"address"}],"stateMutability":"view"},{"type":"function","name":"vaultUISchema","inputs":[],"outputs":[{"name":"schema","type":"tuple","internalType":"struct VaultUISchema","components":[{"name":"vaultType","type":"string","internalType":"string"},{"name":"description","type":"string","internalType":"string"},{"name":"methods","type":"tuple[]","internalType":"struct VaultMethodSchema[]","components":[{"name":"name","type":"string","internalType":"string"},{"name":"description","type":"string","internalType":"string"},{"name":"inputs","type":"tuple[]","internalType":"struct FieldDescriptor[]","components":[{"name":"name","type":"string","internalType":"string"},{"name":"fieldType","type":"string","internalType":"string"},{"name":"description","type":"string","internalType":"string"},{"name":"decimals","type":"uint8","internalType":"uint8"}]},{"name":"outputs","type":"tuple[]","internalType":"struct FieldDescriptor[]","components":[{"name":"name","type":"string","internalType":"string"},{"name":"fieldType","type":"string","internalType":"string"},{"name":"description","type":"string","internalType":"string"},{"name":"decimals","type":"uint8","internalType":"uint8"}]},{"name":"approvals","type":"tuple[]","internalType":"struct ApproveAction[]","components":[{"name":"tokenFieldName","type":"string","internalType":"string"},{"name":"amountFieldName","type":"string","internalType":"string"}]},{"name":"isWriteMethod","type":"bool","internalType":"bool"}]}]}],"stateMutability":"pure"},{"type":"event","name":"OracleUpdated","inputs":[{"name":"oldOracle","type":"address","indexed":true,"internalType":"address"},{"name":"newOracle","type":"address","indexed":true,"internalType":"address"}],"anonymous":false},{"type":"event","name":"PrizeClaimed","inputs":[{"name":"round","type":"uint256","indexed":true,"internalType":"uint256"},{"name":"winner","type":"address","indexed":true,"internalType":"address"},{"name":"prize","type":"uint256","indexed":false,"internalType":"uint256"}],"anonymous":false},{"type":"event","name":"PrizeExpired","inputs":[{"name":"round","type":"uint256","indexed":true,"internalType":"uint256"},{"name":"winner","type":"address","indexed":true,"internalType":"address"},{"name":"prize","type":"uint256","indexed":false,"internalType":"uint256"}],"anonymous":false},{"type":"event","name":"TaxReceived","inputs":[{"name":"amount","type":"uint256","indexed":false,"internalType":"uint256"},{"name":"toPool","type":"uint256","indexed":false,"internalType":"uint256"},{"name":"toReserve","type":"uint256","indexed":false,"internalType":"uint256"},{"name":"toDev","type":"uint256","indexed":false,"internalType":"uint256"}],"anonymous":false},{"type":"event","name":"WinnerDrawn","inputs":[{"name":"round","type":"uint256","indexed":true,"internalType":"uint256"},{"name":"winner","type":"address","indexed":true,"internalType":"address"},{"name":"prize","type":"uint256","indexed":false,"internalType":"uint256"}],"anonymous":false},{"type":"error","name":"AlreadyClaimed","inputs":[]},{"type":"error","name":"CannotRevokeGuardian","inputs":[]},{"type":"error","name":"DrawStillPending","inputs":[]},{"type":"error","name":"NoPendingPrize","inputs":[]},{"type":"error","name":"NotWinner","inputs":[]},{"type":"error","name":"OnlyDev","inputs":[]},{"type":"error","name":"OnlyOracle","inputs":[]},{"type":"error","name":"UnsupportedChain","inputs":[{"name":"chainId","type":"uint256","internalType":"uint256"}]}],"bytecode":{"object":"0x60c060405234801562000010575f80fd5b50604051620038873803806200388783398181016040528101906200003691906200014b565b8273ffffffffffffffffffffffffffffffffffffffff1660808173ffffffffffffffffffffffffffffffffffffffff16815250508173ffffffffffffffffffffffffffffffffffffffff1660a08173ffffffffffffffffffffffffffffffffffffffff1681525050805f806101000a81548173ffffffffffffffffffffffffffffffffffffffff021916908373ffffffffffffffffffffffffffffffffffffffff160217905550505050620001a4565b5f80fd5b5f73ffffffffffffffffffffffffffffffffffffffff82169050919050565b5f6200011582620000ea565b9050919050565b620001278162000109565b811462000132575f80fd5b50565b5f8151905062000145816200011c565b92915050565b5f805f60608486031215620001655762000164620000e6565b5b5f620001748682870162000135565b9350506020620001878682870162000135565b92505060406200019a8682870162000135565b9150509250925092565b60805160a0516136b3620001d45f395f818161023101528181610b8d01526112b501525f6107c301526136b35ff3fe60806040526004361061019f575f3560e01c80637dc0d1d0116100eb578063abd70aa211610089578063c8691b2a11610063578063c8691b2a14610701578063df72036c1461073d578063e41dc9f814610767578063e834a8341461079157610335565b8063abd70aa214610682578063b914a219146106ad578063c42b42a0146106d757610335565b8063944d1210116100c5578063944d1210146105c4578063a32bf597146105ee578063a7a38f0b14610618578063aabe2fe31461065857610335565b80637dc0d1d0146105485780638d329a971461057257806391cca3db1461059a57610335565b8063597e05cd116101585780636c5939a9116101325780636c5939a9146104a25780637284e416146104cc578063760690c4146104f65780637adbf9731461052057610335565b8063597e05cd14610424578063692b69ae1461044e5780636b548d6d1461047857610335565b8063146ca531146103395780631fc928ae14610363578063249d39e91461038d578063364976ea146103b75780634e71d92d146103e45780635478f468146103fa57610335565b36610335575f3490505f612710611388836101ba91906127b5565b6101c49190612823565b90505f612710610fa0846101d891906127b5565b6101e29190612823565b90505f8183856101f29190612853565b6101fc9190612853565b90508260015f82825461020f9190612886565b925050819055508160025f8282546102279190612886565b925050819055505f7f000000000000000000000000000000000000000000000000000000000000000073ffffffffffffffffffffffffffffffffffffffff1682604051610273906128e6565b5f6040518083038185875af1925050503d805f81146102ad576040519150601f19603f3d011682016040523d82523d5f602084013e6102b2565b606091505b50509050806102f6576040517f08c379a00000000000000000000000000000000000000000000000000000000081526004016102ed90612954565b60405180910390fd5b7f27e35f3446b07a0965e3c79578ecf494de3d3fcb81c9b93195588ce7e8ebc1568585858560405161032b9493929190612981565b60405180910390a1005b5f80fd5b348015610344575f80fd5b5061034d6107bb565b60405161035a91906129c4565b60405180910390f35b34801561036e575f80fd5b506103776107c1565b6040516103849190612a1c565b60405180910390f35b348015610398575f80fd5b506103a16107e5565b6040516103ae91906129c4565b60405180910390f35b3480156103c2575f80fd5b506103cb6107eb565b6040516103db9493929190612a4f565b60405180910390f35b3480156103ef575f80fd5b506103f8610834565b005b348015610405575f80fd5b5061040e610aa3565b60405161041b91906129c4565b60405180910390f35b34801561042f575f80fd5b50610438610aaf565b60405161044591906129c4565b60405180910390f35b348015610459575f80fd5b50610462610adf565b60405161046f91906129c4565b60405180910390f35b348015610483575f80fd5b5061048c610ae5565b60405161049991906129c4565b60405180910390f35b3480156104ad575f80fd5b506104b6610aeb565b6040516104c391906129c4565b60405180910390f35b3480156104d7575f80fd5b506104e0610af1565b6040516104ed9190612b0c565b60405180910390f35b348015610501575f80fd5b5061050a610b85565b60405161051791906129c4565b60405180910390f35b34801561052b575f80fd5b5061054660048036038101906105419190612b5a565b610b8b565b005b348015610553575f80fd5b5061055c610d0c565b6040516105699190612a1c565b60405180910390f35b34801561057d575f80fd5b5061059860048036038101906105939190612b5a565b610d2f565b005b3480156105a5575f80fd5b506105ae6112b3565b6040516105bb9190612a1c565b60405180910390f35b3480156105cf575f80fd5b506105d86112d7565b6040516105e591906129c4565b60405180910390f35b3480156105f9575f80fd5b506106026112dd565b60405161060f91906129c4565b60405180910390f35b348015610623575f80fd5b5061063e60048036038101906106399190612baf565b6112e6565b60405161064f959493929190612bda565b60405180910390f35b348015610663575f80fd5b5061066c611352565b6040516106799190612a1c565b60405180910390f35b34801561068d575f80fd5b50610696611377565b6040516106a4929190612c2b565b60405180910390f35b3480156106b8575f80fd5b506106c1611387565b6040516106ce91906129c4565b60405180910390f35b3480156106e2575f80fd5b506106eb61138d565b6040516106f891906129c4565b60405180910390f35b34801561070c575f80fd5b5061072760048036038101906107229190612baf565b611393565b6040516107349190612ce5565b60405180910390f35b348015610748575f80fd5b50610751611459565b60405161075e919061313e565b60405180910390f35b348015610772575f80fd5b5061077b6124a2565b60405161078891906129c4565b60405180910390f35b34801561079c575f80fd5b506107a56124a8565b6040516107b2919061315e565b60405180910390f35b60035481565b7f000000000000000000000000000000000000000000000000000000000000000081565b61271081565b5f805f8060045f9054906101000a900473ffffffffffffffffffffffffffffffffffffffff1660055460075f9054906101000a900460ff16600654935093509350935090919293565b5f73ffffffffffffffffffffffffffffffffffffffff1660045f9054906101000a900473ffffffffffffffffffffffffffffffffffffffff1673ffffffffffffffffffffffffffffffffffffffff16036108ba576040517f0553400200000000000000000000000000000000000000000000000000000000815260040160405180910390fd5b60045f9054906101000a900473ffffffffffffffffffffffffffffffffffffffff1673ffffffffffffffffffffffffffffffffffffffff163373ffffffffffffffffffffffffffffffffffffffff1614610940576040517f618c724200000000000000000000000000000000000000000000000000000000815260040160405180910390fd5b60075f9054906101000a900460ff1615610986576040517f646cf55800000000000000000000000000000000000000000000000000000000815260040160405180910390fd5b600160075f6101000a81548160ff0219169083151502179055505f60055490505f3373ffffffffffffffffffffffffffffffffffffffff16826040516109cb906128e6565b5f6040518083038185875af1925050503d805f8114610a05576040519150601f19603f3d011682016040523d82523d5f602084013e610a0a565b606091505b5050905080610a4e576040517f08c379a0000000000000000000000000000000000000000000000000000000008152600401610a45906131c1565b60405180910390fd5b3373ffffffffffffffffffffffffffffffffffffffff166003547f4aa95f981a8337cb337de335b965507da0879c3b49f799d20058e913f5ad2c2684604051610a9791906129c4565b60405180910390a35050565b5f600880549050905090565b5f612710611770600254600154610ac69190612886565b610ad091906127b5565b610ada9190612823565b905090565b60015481565b61138881565b60025481565b6060610afe6003546124ba565b610b1b66038d7ea4c68000600154610b169190612823565b6124ba565b610b5f66038d7ea4c68000612710611770600254600154610b3c9190612886565b610b4691906127b5565b610b509190612823565b610b5a9190612823565b6124ba565b604051602001610b7193929190613341565b604051602081830303815290604052905090565b6103e881565b7f000000000000000000000000000000000000000000000000000000000000000073ffffffffffffffffffffffffffffffffffffffff163373ffffffffffffffffffffffffffffffffffffffff1614158015610c1a5750610bea612612565b73ffffffffffffffffffffffffffffffffffffffff163373ffffffffffffffffffffffffffffffffffffffff1614155b15610c51576040517f64c42c6300000000000000000000000000000000000000000000000000000000815260040160405180910390fd5b8073ffffffffffffffffffffffffffffffffffffffff165f8054906101000a900473ffffffffffffffffffffffffffffffffffffffff1673ffffffffffffffffffffffffffffffffffffffff167f078c3b417dadf69374a59793b829c52001247130433427049317bde56607b1b760405160405180910390a3805f806101000a81548173ffffffffffffffffffffffffffffffffffffffff021916908373ffffffffffffffffffffffffffffffffffffffff16021790555050565b5f8054906101000a900473ffffffffffffffffffffffffffffffffffffffff1681565b5f8054906101000a900473ffffffffffffffffffffffffffffffffffffffff1673ffffffffffffffffffffffffffffffffffffffff163373ffffffffffffffffffffffffffffffffffffffff1614158015610dbd5750610d8d612612565b73ffffffffffffffffffffffffffffffffffffffff163373ffffffffffffffffffffffffffffffffffffffff1614155b15610df4576040517f80fee10500000000000000000000000000000000000000000000000000000000815260040160405180910390fd5b5f73ffffffffffffffffffffffffffffffffffffffff1660045f9054906101000a900473ffffffffffffffffffffffffffffffffffffffff1673ffffffffffffffffffffffffffffffffffffffff1614158015610e5d575060075f9054906101000a900460ff16155b156110065760055460015f828254610e759190612886565b9250508190555060086040518060a00160405280600354815260200160045f9054906101000a900473ffffffffffffffffffffffffffffffffffffffff1673ffffffffffffffffffffffffffffffffffffffff16815260200160055481526020015f15158152602001600654815250908060018154018082558091505060019003905f5260205f2090600502015f909190919091505f820151815f01556020820151816001015f6101000a81548173ffffffffffffffffffffffffffffffffffffffff021916908373ffffffffffffffffffffffffffffffffffffffff160217905550604082015181600201556060820151816003015f6101000a81548160ff02191690831515021790555060808201518160040155505060045f9054906101000a900473ffffffffffffffffffffffffffffffffffffffff1673ffffffffffffffffffffffffffffffffffffffff166003547ffd2195580a44eacf25019abee25eba02b7abeade2b38cc1409421b3c88818a9b600554604051610ff991906129c4565b60405180910390a3611187565b5f73ffffffffffffffffffffffffffffffffffffffff1660045f9054906101000a900473ffffffffffffffffffffffffffffffffffffffff1673ffffffffffffffffffffffffffffffffffffffff161415801561106e575060075f9054906101000a900460ff165b156111865760086040518060a00160405280600354815260200160045f9054906101000a900473ffffffffffffffffffffffffffffffffffffffff1673ffffffffffffffffffffffffffffffffffffffff1681526020016005548152602001600115158152602001600654815250908060018154018082558091505060019003905f5260205f2090600502015f909190919091505f820151815f01556020820151816001015f6101000a81548173ffffffffffffffffffffffffffffffffffffffff021916908373ffffffffffffffffffffffffffffffffffffffff160217905550604082015181600201556060820151816003015f6101000a81548160ff0219169083151502179055506080820151816004015550505b5b60025460015f82825461119a9190612886565b925050819055505f60028190555060035f8154809291906111ba906133a8565b91905055505f6127106117706001546111d391906127b5565b6111dd9190612823565b90508060015f8282546111f09190612853565b925050819055508160045f6101000a81548173ffffffffffffffffffffffffffffffffffffffff021916908373ffffffffffffffffffffffffffffffffffffffff16021790555080600581905550426006819055505f60075f6101000a81548160ff0219169083151502179055508173ffffffffffffffffffffffffffffffffffffffff166003547f9c1e776cbdf221420917b223eb09503e61c8e990a1c09065cbf15bdff06a555e836040516112a791906129c4565b60405180910390a35050565b7f000000000000000000000000000000000000000000000000000000000000000081565b61177081565b5f600354905090565b600881815481106112f5575f80fd5b905f5260205f2090600502015f91509050805f015490806001015f9054906101000a900473ffffffffffffffffffffffffffffffffffffffff1690806002015490806003015f9054906101000a900460ff16908060040154905085565b60045f9054906101000a900473ffffffffffffffffffffffffffffffffffffffff1681565b5f80600154600254915091509091565b60065481565b60055481565b61139b6126a1565b600882815481106113af576113ae6133ef565b5b905f5260205f2090600502016040518060a00160405290815f8201548152602001600182015f9054906101000a900473ffffffffffffffffffffffffffffffffffffffff1673ffffffffffffffffffffffffffffffffffffffff1673ffffffffffffffffffffffffffffffffffffffff16815260200160028201548152602001600382015f9054906101000a900460ff161515151581526020016004820154815250509050919050565b6114616126e3565b6040518060400160405280600e81526020017f41494c6f74746572795661756c74000000000000000000000000000000000000815250815f018190525060405180610100016040528060cb81526020016134d060cb91398160200181905250600467ffffffffffffffff8111156114db576114da61341c565b5b60405190808252806020026020018201604052801561151457816020015b611501612704565b8152602001906001900390816114f95790505b5081604001819052506040518060400160405280600f81526020017f67657450656e64696e675072697a65000000000000000000000000000000000081525081604001515f8151811061156a576115696133ef565b5b60200260200101515f018190525060405180608001604052806044815260200161363a6044913981604001515f815181106115a8576115a76133ef565b5b6020026020010151602001819052505f67ffffffffffffffff8111156115d1576115d061341c565b5b60405190808252806020026020018201604052801561160a57816020015b6115f761273b565b8152602001906001900390816115ef5790505b5081604001515f81518110611622576116216133ef565b5b602002602001015160400181905250600467ffffffffffffffff81111561164c5761164b61341c565b5b60405190808252806020026020018201604052801561168557816020015b61167261273b565b81526020019060019003908161166a5790505b5081604001515f8151811061169d5761169c6133ef565b5b60200260200101516060018190525060405180608001604052806040518060400160405280600681526020017f77696e6e6572000000000000000000000000000000000000000000000000000081525081526020016040518060400160405280600781526020017f616464726573730000000000000000000000000000000000000000000000000081525081526020016040518060400160405280600e81526020017f57696e6e6572206164647265737300000000000000000000000000000000000081525081526020015f60ff1681525081604001515f81518110611786576117856133ef565b5b6020026020010151606001515f815181106117a4576117a36133ef565b5b602002602001018190525060405180608001604052806040518060400160405280600581526020017f7072697a6500000000000000000000000000000000000000000000000000000081525081526020016040518060400160405280600781526020017f75696e743235360000000000000000000000000000000000000000000000000081525081526020016040518060400160405280601381526020017f5072697a6520616d6f756e7420696e20424e42000000000000000000000000008152508152602001601260ff1681525081604001515f8151811061188a576118896133ef565b5b6020026020010151606001516001815181106118a9576118a86133ef565b5b602002602001018190525060405180608001604052806040518060400160405280600981526020017f6973436c61696d6564000000000000000000000000000000000000000000000081525081526020016040518060400160405280600481526020017f626f6f6c0000000000000000000000000000000000000000000000000000000081525081526020016040518060400160405280600f81526020017f5768657468657220636c61696d6564000000000000000000000000000000000081525081526020015f60ff1681525081604001515f8151811061198e5761198d6133ef565b5b6020026020010151606001516002815181106119ad576119ac6133ef565b5b602002602001018190525060405180608001604052806040518060400160405280600781526020017f647261776e41740000000000000000000000000000000000000000000000000081525081526020016040518060400160405280600481526020017f74696d650000000000000000000000000000000000000000000000000000000081525081526020016040518060400160405280600e81526020017f447261772074696d657374616d7000000000000000000000000000000000000081525081526020015f60ff1681525081604001515f81518110611a9257611a916133ef565b5b602002602001015160600151600381518110611ab157611ab06133ef565b5b60200260200101819052505f67ffffffffffffffff811115611ad657611ad561341c565b5b604051908082528060200260200182016040528015611b0f57816020015b611afc612765565b815260200190600190039081611af45790505b5081604001515f81518110611b2757611b266133ef565b5b6020026020010151608001819052506040518060400160405280600e81526020017f676574506f6f6c42616c616e63650000000000000000000000000000000000008152508160400151600181518110611b8457611b836133ef565b5b60200260200101515f01819052506040518060600160405280603e815260200161359b603e91398160400151600181518110611bc357611bc26133ef565b5b6020026020010151602001819052505f67ffffffffffffffff811115611bec57611beb61341c565b5b604051908082528060200260200182016040528015611c2557816020015b611c1261273b565b815260200190600190039081611c0a5790505b508160400151600181518110611c3e57611c3d6133ef565b5b602002602001015160400181905250600267ffffffffffffffff811115611c6857611c6761341c565b5b604051908082528060200260200182016040528015611ca157816020015b611c8e61273b565b815260200190600190039081611c865790505b508160400151600181518110611cba57611cb96133ef565b5b60200260200101516060018190525060405180608001604052806040518060400160405280600481526020017f706f6f6c0000000000000000000000000000000000000000000000000000000081525081526020016040518060400160405280600781526020017f75696e743235360000000000000000000000000000000000000000000000000081525081526020016040518060400160405280601081526020017f43757272656e7420706f6f6c20424e42000000000000000000000000000000008152508152602001601260ff168152508160400151600181518110611da557611da46133ef565b5b6020026020010151606001515f81518110611dc357611dc26133ef565b5b602002602001018190525060405180608001604052806040518060400160405280600781526020017f726573657276650000000000000000000000000000000000000000000000000081525081526020016040518060400160405280600781526020017f75696e743235360000000000000000000000000000000000000000000000000081525081526020016040518060400160405280601681526020017f4e65787420726f756e64207265736572766520424e42000000000000000000008152508152602001601260ff168152508160400151600181518110611eaa57611ea96133ef565b5b602002602001015160600151600181518110611ec957611ec86133ef565b5b60200260200101819052505f67ffffffffffffffff811115611eee57611eed61341c565b5b604051908082528060200260200182016040528015611f2757816020015b611f14612765565b815260200190600190039081611f0c5790505b508160400151600181518110611f4057611f3f6133ef565b5b6020026020010151608001819052506040518060400160405280601581526020017f676574457374696d617465644e6578745072697a6500000000000000000000008152508160400151600281518110611f9d57611f9c6133ef565b5b60200260200101515f01819052506040518060600160405280602f81526020016134a1602f91398160400151600281518110611fdc57611fdb6133ef565b5b6020026020010151602001819052505f67ffffffffffffffff8111156120055761200461341c565b5b60405190808252806020026020018201604052801561203e57816020015b61202b61273b565b8152602001906001900390816120235790505b508160400151600281518110612057576120566133ef565b5b602002602001015160400181905250600167ffffffffffffffff8111156120815761208061341c565b5b6040519080825280602002602001820160405280156120ba57816020015b6120a761273b565b81526020019060019003908161209f5790505b5081604001516002815181106120d3576120d26133ef565b5b60200260200101516060018190525060405180608001604052806040518060400160405280600581526020017f7072697a6500000000000000000000000000000000000000000000000000000081525081526020016040518060400160405280600781526020017f75696e743235360000000000000000000000000000000000000000000000000081525081526020016040518060400160405280601681526020017f457374696d61746564207072697a6520696e20424e42000000000000000000008152508152602001601260ff1681525081604001516002815181106121be576121bd6133ef565b5b6020026020010151606001515f815181106121dc576121db6133ef565b5b60200260200101819052505f67ffffffffffffffff8111156122015761220061341c565b5b60405190808252806020026020018201604052801561223a57816020015b612227612765565b81526020019060019003908161221f5790505b508160400151600281518110612253576122526133ef565b5b6020026020010151608001819052506040518060400160405280600581526020017f636c61696d00000000000000000000000000000000000000000000000000000081525081604001516003815181106122b0576122af6133ef565b5b60200260200101515f01819052506040518060a00160405280606181526020016135d96061913981604001516003815181106122ef576122ee6133ef565b5b6020026020010151602001819052505f67ffffffffffffffff8111156123185761231761341c565b5b60405190808252806020026020018201604052801561235157816020015b61233e61273b565b8152602001906001900390816123365790505b50816040015160038151811061236a576123696133ef565b5b6020026020010151604001819052505f67ffffffffffffffff8111156123935761239261341c565b5b6040519080825280602002602001820160405280156123cc57816020015b6123b961273b565b8152602001906001900390816123b15790505b5081604001516003815181106123e5576123e46133ef565b5b6020026020010151606001819052505f67ffffffffffffffff81111561240e5761240d61341c565b5b60405190808252806020026020018201604052801561244757816020015b612434612765565b81526020019060019003908161242c5790505b5081604001516003815181106124605761245f6133ef565b5b60200260200101516080018190525060018160400151600381518110612489576124886133ef565b5b602002602001015160a001901515908115158152505090565b610fa081565b60075f9054906101000a900460ff1681565b60605f8203612500576040518060400160405280600181526020017f3000000000000000000000000000000000000000000000000000000000000000815250905061260d565b5f8290505f5b5f821461252f578080612518906133a8565b915050600a826125289190612823565b9150612506565b5f8167ffffffffffffffff81111561254a5761254961341c565b5b6040519080825280601f01601f19166020018201604052801561257c5781602001600182028036833780820191505090505b5090505b5f851461260657818061259290613449565b925050600a856125a29190613470565b60306125ae9190612886565b60f81b8183815181106125c4576125c36133ef565b5b60200101907effffffffffffffffffffffffffffffffffffffffffffffffffffffffffffff191690815f1a905350600a856125ff9190612823565b9450612580565b8093505050505b919050565b5f804690506038810361263c57739e27098dcd8844bcc6287a557e0b4d09c86b8a4b91505061269e565b60618103612661577376fa8c526f8bc27ba6958b76deef92a0dbe4695091505061269e565b806040517fc3a55c9800000000000000000000000000000000000000000000000000000000815260040161269591906129c4565b60405180910390fd5b90565b6040518060a001604052805f81526020015f73ffffffffffffffffffffffffffffffffffffffff1681526020015f81526020015f151581526020015f81525090565b60405180606001604052806060815260200160608152602001606081525090565b6040518060c0016040528060608152602001606081526020016060815260200160608152602001606081526020015f151581525090565b60405180608001604052806060815260200160608152602001606081526020015f60ff1681525090565b604051806040016040528060608152602001606081525090565b5f819050919050565b7f4e487b71000000000000000000000000000000000000000000000000000000005f52601160045260245ffd5b5f6127bf8261277f565b91506127ca8361277f565b92508282026127d88161277f565b915082820484148315176127ef576127ee612788565b5b5092915050565b7f4e487b71000000000000000000000000000000000000000000000000000000005f52601260045260245ffd5b5f61282d8261277f565b91506128388361277f565b925082612848576128476127f6565b5b828204905092915050565b5f61285d8261277f565b91506128688361277f565b92508282039050818111156128805761287f612788565b5b92915050565b5f6128908261277f565b915061289b8361277f565b92508282019050808211156128b3576128b2612788565b5b92915050565b5f81905092915050565b50565b5f6128d15f836128b9565b91506128dc826128c3565b5f82019050919050565b5f6128f0826128c6565b9150819050919050565b5f82825260208201905092915050565b7f646576207472616e73666572206661696c6564000000000000000000000000005f82015250565b5f61293e6013836128fa565b91506129498261290a565b602082019050919050565b5f6020820190508181035f83015261296b81612932565b9050919050565b61297b8161277f565b82525050565b5f6080820190506129945f830187612972565b6129a16020830186612972565b6129ae6040830185612972565b6129bb6060830184612972565b95945050505050565b5f6020820190506129d75f830184612972565b92915050565b5f73ffffffffffffffffffffffffffffffffffffffff82169050919050565b5f612a06826129dd565b9050919050565b612a16816129fc565b82525050565b5f602082019050612a2f5f830184612a0d565b92915050565b5f8115159050919050565b612a4981612a35565b82525050565b5f608082019050612a625f830187612a0d565b612a6f6020830186612972565b612a7c6040830185612a40565b612a896060830184612972565b95945050505050565b5f81519050919050565b5f5b83811015612ab9578082015181840152602081019050612a9e565b5f8484015250505050565b5f601f19601f8301169050919050565b5f612ade82612a92565b612ae881856128fa565b9350612af8818560208601612a9c565b612b0181612ac4565b840191505092915050565b5f6020820190508181035f830152612b248184612ad4565b905092915050565b5f80fd5b612b39816129fc565b8114612b43575f80fd5b50565b5f81359050612b5481612b30565b92915050565b5f60208284031215612b6f57612b6e612b2c565b5b5f612b7c84828501612b46565b91505092915050565b612b8e8161277f565b8114612b98575f80fd5b50565b5f81359050612ba981612b85565b92915050565b5f60208284031215612bc457612bc3612b2c565b5b5f612bd184828501612b9b565b91505092915050565b5f60a082019050612bed5f830188612972565b612bfa6020830187612a0d565b612c076040830186612972565b612c146060830185612a40565b612c216080830184612972565b9695505050505050565b5f604082019050612c3e5f830185612972565b612c4b6020830184612972565b9392505050565b612c5b8161277f565b82525050565b612c6a816129fc565b82525050565b612c7981612a35565b82525050565b60a082015f820151612c935f850182612c52565b506020820151612ca66020850182612c61565b506040820151612cb96040850182612c52565b506060820151612ccc6060850182612c70565b506080820151612cdf6080850182612c52565b50505050565b5f60a082019050612cf85f830184612c7f565b92915050565b5f82825260208201905092915050565b5f612d1882612a92565b612d228185612cfe565b9350612d32818560208601612a9c565b612d3b81612ac4565b840191505092915050565b5f81519050919050565b5f82825260208201905092915050565b5f819050602082019050919050565b5f81519050919050565b5f82825260208201905092915050565b5f819050602082019050919050565b5f60ff82169050919050565b612dad81612d98565b82525050565b5f608083015f8301518482035f860152612dcd8282612d0e565b91505060208301518482036020860152612de78282612d0e565b91505060408301518482036040860152612e018282612d0e565b9150506060830151612e166060860182612da4565b508091505092915050565b5f612e2c8383612db3565b905092915050565b5f602082019050919050565b5f612e4a82612d6f565b612e548185612d79565b935083602082028501612e6685612d89565b805f5b85811015612ea15784840389528151612e828582612e21565b9450612e8d83612e34565b925060208a01995050600181019050612e69565b50829750879550505050505092915050565b5f81519050919050565b5f82825260208201905092915050565b5f819050602082019050919050565b5f604083015f8301518482035f860152612ef68282612d0e565b91505060208301518482036020860152612f108282612d0e565b9150508091505092915050565b5f612f288383612edc565b905092915050565b5f602082019050919050565b5f612f4682612eb3565b612f508185612ebd565b935083602082028501612f6285612ecd565b805f5b85811015612f9d5784840389528151612f7e8582612f1d565b9450612f8983612f30565b925060208a01995050600181019050612f65565b50829750879550505050505092915050565b5f60c083015f8301518482035f860152612fc98282612d0e565b91505060208301518482036020860152612fe38282612d0e565b91505060408301518482036040860152612ffd8282612e40565b915050606083015184820360608601526130178282612e40565b915050608083015184820360808601526130318282612f3c565b91505060a083015161304660a0860182612c70565b508091505092915050565b5f61305c8383612faf565b905092915050565b5f602082019050919050565b5f61307a82612d46565b6130848185612d50565b93508360208202850161309685612d60565b805f5b858110156130d157848403895281516130b28582613051565b94506130bd83613064565b925060208a01995050600181019050613099565b50829750879550505050505092915050565b5f606083015f8301518482035f8601526130fd8282612d0e565b915050602083015184820360208601526131178282612d0e565b915050604083015184820360408601526131318282613070565b9150508091505092915050565b5f6020820190508181035f83015261315681846130e3565b905092915050565b5f6020820190506131715f830184612a40565b92915050565b7f636c61696d207472616e73666572206661696c656400000000000000000000005f82015250565b5f6131ab6015836128fa565b91506131b682613177565b602082019050919050565b5f6020820190508181035f8301526131d88161319f565b9050919050565b5f81905092915050565b7f4149204c6f7474657279205661756c74207c20526f756e6420230000000000005f82015250565b5f61321d601a836131df565b9150613228826131e9565b601a82019050919050565b5f61323d82612a92565b61324781856131df565b9350613257818560208601612a9c565b80840191505092915050565b7f207c20506f6f6c3a2000000000000000000000000000000000000000000000005f82015250565b5f6132976009836131df565b91506132a282613263565b600982019050919050565b7f2066696e6e6579000000000000000000000000000000000000000000000000005f82015250565b5f6132e16007836131df565b91506132ec826132ad565b600782019050919050565b7f207c204e657874206573743a20000000000000000000000000000000000000005f82015250565b5f61332b600d836131df565b9150613336826132f7565b600d82019050919050565b5f61334b82613211565b91506133578286613233565b91506133628261328b565b915061336e8285613233565b9150613379826132d5565b91506133848261331f565b91506133908284613233565b915061339b826132d5565b9150819050949350505050565b5f6133b28261277f565b91507fffffffffffffffffffffffffffffffffffffffffffffffffffffffffffffffff82036133e4576133e3612788565b5b600182019050919050565b7f4e487b71000000000000000000000000000000000000000000000000000000005f52603260045260245ffd5b7f4e487b71000000000000000000000000000000000000000000000000000000005f52604160045260245ffd5b5f6134538261277f565b91505f820361346557613464612788565b5b600182039050919050565b5f61347a8261277f565b91506134858361277f565b925082613495576134946127f6565b5b82820690509291505056fe457374696d61746564206e65787420726f756e64207072697a65202f20e9a284e4bcb0e4b88be69c9fe5a596e9879141492d6a7564676564206c6f74746572792e20457665727920686f75722c204149204f7261636c65207069636b7320612077696e6e65722077686f206765747320363025206f662074686520706f6f6c2e20556e636c61696d6564207072697a657320726f6c6c20696e746f206e65787420726f756e642e202f204149e5bda9e7a5a8efbc8ce6af8fe5b08fe697b6e5bc80e5a596efbc8ce8b5a2e5aeb6e88eb7e5a596e6b1a0363025efbc8ce69caae9a286e58f96e887aae58aa8e6bb9ae585a5e4b88be69c9fe3808243757272656e7420706f6f6c20616e6420726573657276652062616c616e6365202f20e5bd93e5898de5a596e6b1a0e5928ce9a284e5ad98e4bd99e9a29d436c61696d20796f7572207072697a6520696620796f7520617265207468652063757272656e7420726f756e642077696e6e6572202f20e5a682e69e9ce4bda0e698afe5bd93e5898de8bdaee8b5a2e5aeb6efbc8ce9a286e58f96e5a596e9879143757272656e7420726f756e642077696e6e657220616e64207072697a6520696e666f202f20e5bd93e5898de8bdaee8b5a2e5aeb6e5928ce5a596e98791e4bfa1e681afa264697066735822122085cec9930034e434480478b4aa8328bc6cf4e2bd3a15a4521043c55c89d2a80264736f6c63430008180033","linkReferences":{}},"methodIdentifiers":{"BPS()":"249d39e9","DEV_BPS()":"760690c4","POOL_BPS()":"6b548d6d","PRIZE_BPS()":"944d1210","RESERVE_BPS()":"e41dc9f8","claim()":"4e71d92d","claimed()":"e834a834","currentPool()":"692b69ae","currentPrize()":"c42b42a0","currentWinner()":"aabe2fe3","description()":"7284e416","dev()":"91cca3db","drawTimestamp()":"b914a219","drawWinner(address)":"8d329a97","getCurrentRound()":"a32bf597","getEstimatedNextPrize()":"597e05cd","getHistory(uint256)":"c8691b2a","getHistoryLength()":"5478f468","getPendingPrize()":"364976ea","getPoolBalance()":"abd70aa2","history(uint256)":"a7a38f0b","nextReserve()":"6c5939a9","oracle()":"7dc0d1d0","round()":"146ca531","setOracle(address)":"7adbf973","taxToken()":"1fc928ae","vaultUISchema()":"df72036c"},"id":0}